:100000006DC700007DC700007BC7000079C70000F6
:1000100077C700000C94DF2973C700000C945C0FB5
:100020006FC700006DC700000C940F200C94C3290B
:100030000C94D1290C94E91F63C7000061C700002C
:100040000C949D295DC700005BC7000059C70000E4
:1000500057C700000C945D0F53C7000051C7000044
:100060004FC700004DC70000B200A900A000100853
:10007000407E01013E01013E01013E01017E404002
:1000800018000720080808F80000002060A03FA022
:100090006020020202FF0202021010101F00000086
:1000A0000708FFDBBDB5B5CBFF0708FFBB9DADADB6
:1000B000B3FF0708FFFFF7FB81FFFF10100508F8EB
:1000C00078385888091003081C3E7F0D080710FF78
:1000D000818181F1E1C1FF4040404743410D08016A
:1000E00010FFFF11080310F1E1C14743410E000862
:1000F000202121122060E0E0E0FEFE040201000168
:10010000037F7F21C2C4C4C040948400070301025E
:10011000040E080210FEFE7F7F00000000110005A3
:10012000202060E0E0E00201000103C2C4C4C0403E
:1001300007030102040104100102044865206F9FB7
:100140009A619B9892706F93619D2100B903870318
:1001500058032E030703E402C302A402880200002E
:10016000140029003E005300690080009700AE0093
:10017000C600DF00F80012012D014901650182016E
:10018000A001BE01DE01FF012102440268028E02CD
:10019000B502DE020903350364039403C803FE03BA
:1001A00037047304B404F90443059305EA054906CA
:1001B000B3062907AE074808FF08DE090000000063
:1001C0000000000000000000000000001E212121AE
:1001D0001200807F0000007E4A4A4A34000000007E
:1001E0000000FC4020100804020100000001010191
:1001F000010101010101010101017F0488D0E0F04A
:10020000F8000000000000000000000000000000F6
:10021000000000FC94948400000102FC0000000037
:1002200000000000000000001E21212112E0C0801B
:100230004020100F000000C020202040000000FCE3
:1002400000009E9E040303030302000000202023FD
:10025000242525232020203F00007B7B214284048D
:1002600080C000000000000000000000000000004E
:10027000FC94948400040607070708F000000000BF
:10028000000000000000000000803F2121120C004F
:10029000000000FF000000F0084848C80000FE0011
:1002A00000E7818181C1E1F181818101002020206D
:1002B0002121212020203F0000F3404040414347BE
:1002C00040407FC00000000000000000000000006F
:1002D0000000489494946400000000FF00000000B7
:1002E0000000000000000000000000003F2121127B
:1002F0000C0000FF000000F0084848D0000000009B
:100300000000FEFE040404040404040700080808B6
:1003100009090908087F3E1C08087F7F202020204B
:10032000202020E00000000000000000000000008D
:100330000000000048949494640000FF0000000056
:1003400000000000000000FF003C0A090A3C0022F7
:1003500031292926000082868E9EBEFEFEBEDEEF7B
:10036000F6FAFEFEFAF2E2C2820000000808080473
:10037000027984A4A46800FF0000000000000000CF
:10038000000000000000000000000000000000FF6E
:100390000000F0282428F0001008FC0000000000F5
:1003A000000000000000003C0A090A3C00FF0000B9
:1003B000000000000000000000000000000000003D
:1003C000040C1C3C7CFF7C3C1C0C04000000000066
:1003D000009EA1A9A99A804323130B0703FF0303DF
:1003E0000303030300000000000000000000007889
:1003F0008484844800FF000000000000000000F03A
:100400000804E2110909090909090909091121C2A8
:10041000040810E0000000010204040700000000CE
:1004200000804020108844231008040300000000CE
:1004300000000000000000FE0100FC0201000000BE
:100440000000000000000000000000000000007933
:1004500049497900000000000000000080E02020F1
:100460002020E080000302020202030080F8F0E096
:10047000C080F880000F070301000F0080F880C0E3
:10048000E0F0F880000F000103070F0080F8F8008B
:1004900000F8F880000F0F00000F0F00E0100808B0
:1004A0000810E00019121E001E12190000F80000CA
:1004B00000E02000403F0810081F1000101010102E
:1004C0001010F080040404040404070080F01010ED
:1004D00010101010000704040404040480808080BD
:1004E000808080800000000000000000800000008C
:1004F00000000000070808070808070800000000BF
:1005000000000080080708080708080700F0080432
:1005100084483000403F000810110E000000000029
:1005200000000000000000000000000000000000CB
:1005300000000000000000000000000000000000BB
:1005400000000000000000000000000000000000AB
:100550000000000000000000000000000000F8049F
:1005600002FE020070181710101F700002FE020039
:1005700002FE0200101F1010105F300002FE02F099
:1005800002FE0200101F101F105F30000000E0107C
:1005900008F8080070181710101F7000804028F825
:1005A000284080000708507F5008070008F808001E
:1005B00008F80800101F1010105F300008F808C07D
:1005C00008F80800101F101F105F30000000000026
:1005D000000000000000000000000000000000001B
:1005E000000000000000000000000000000000000B
:1005F00000000000000000000000000000000000FB
:1006000000000000000000000000000000000000EA
:1006100000000000000000000000000000000000DA
:1006200000000000000000000000000000000000CA
:1006300000000000000000000000000000000000BA
:1006400000000000000000000000000000000000AA
:10065000000000000000000000000000000000009A
:10066000000000000000000000000000000000FE8C
:1006700000000000000000370000000000160E001F
:1006800000160E0000000000000000000020F8200E
:1006900020F8200000020F02020F0200102844FE82
:1006A000840810000304081F080502001824249879
:1006B000402010000402010C12120C0018A4E2A247
:1006C000128C800007081010111205080000001697
:1006D0000E00000000000000000000000000F00814
:1006E00004020000000003040810000000000204DF
:1006F00008F00000000010080403000090A0C0F8FB
:10070000C0A090000402010F01020400808080F06C
:100710008080800000000007000000000000000052
:100720000000000000000058380000008080808039
:100730008080800000000000000000000000000039
:1007400000000000000000181800000000000080F9
:10075000402010000402010000000000F804020222
:100760000204F8000708101010080700000804FE33
:10077000020000000010101F1010000018040202F8
:10078000824438001814121110101C000E0242622C
:10079000528A0600060810101008070080403E002C
:1007A00000FC000003020202121F12007E2212123D
:1007B0001222C6000408101010080700F844221284
:1007C0001224C00007081010100807000E0282C291
:1007D00062321E0000001F000000000018A4424208
:1007E00042A418000708101010080700F8040202BD
:1007F0000284F800000912121108070000000030FE
:10080000300000000000000C0C0000000000003070
:10081000300000000000002C1C0000000080402080
:1008200010080400000001020408100000404040CD
:1008300040404000000202020202020000040810D0
:100840002040800000100804020100001804020289
:10085000028478000000003601000000F008A4A423
:10086000C408F00007081312110A090000F0080478
:1008700002FE0200101F1202121F100002FE42426E
:1008800042A41800101F101010080700F8040202FC
:1008900002041E00070810101008060002FE0202E3
:1008A0000204F800101F10101008070002FE424258
:1008B000F2020E00101F101011101C0002FE424226
:1008C000F2020E00101F101001000000F804028256
:1008D00082849E000708101108041F0002FE424097
:1008E00042FE0200101F1000101F1000000202FE46
:1008F000020200000010101F101000000000020291
:10090000FE0202000C1010100F00000002FEC230A8
:1009100008060200101F10030418100002FE020057
:1009200000000000101F101010101E0002FE32C048
:1009300032FE0200101F1001101F100002FE1AE00C
:1009400002FE0200101F1000131F1000F804020224
:100950000204F800070810101008070002FE020247
:1009600002847800101F110101000000F804020247
:100970000204F8000708101012140B1002FE828205
:1009800082443800101F1001021C1000182442423B
:1009900042841E0006081010100807000E0202FE16
:1009A00002020E000010101F1010000002FE0200D4
:1009B00002FE0200000F1010100F000002FE0200E5
:1009C00002FE020000030E180E03000002FE02F0F9
:1009D00002FE020000071C0F1C070000021EF2406E
:1009E000F21E0200101F1100111F100002FE8200F3
:1009F00082FE02000000111F110000000E02824260
:100A000022120E001E11101010101E0000FE020215
:100A100002020000003F202020200000081020409B
:100A2000800000000000000000010200000202023D
:100A300002FE000000202020203F000010080402D9
:100A4000040810000000000000000000000000008A
:100A50000000000020202020202020000000000EA8
:100A60001600000000000000000000000090484850
:100A70004890E0000708101008041F0002FE12084A
:100A80000810E000101F081010080700E010080808
:100A9000081038000708101010080600E0100808B9
:100AA00012FE020007081010081F1000E09088884E
:100AB0008890E000070810101008040040F8444235
:100AC00002040800101F101000000000E0100808C9
:100AD00010F8080003244848443F000002FE20109C
:100AE00008F00000101F1000101F100000080BFB82
:100AF000000000000010101F101000000000080887
:100B00000BFB000000304040403F000002FE8040F0
:100B100030081800101F110204081800000002021B
:100B2000FE000000000010101F10100008F808F070
:100B300008F00000101F001F001F100008F8100828
:100B400008F00000101F1000101F1000E01008082F
:100B50000810E000070810101008070008F8100837
:100B60000810E000407F481010080700E010080857
:100B700010F8080007081010487F400008F82010FF
:100B800008087000101F1000000000002050888826
:100B90008810380006081010100906002020FE20DA
:100BA0002000000000000F1010100C0008F80800D2
:100BB00008F80800000F1010081F100008F80800BF
:100BC00008F8080000030E180E03000008F808C01B
:100BD00008F80800000F180F180F00000838E08010
:100BE000E0380800101F0100011F100008F808007D
:100BF00008F8080000274848443F000038080888E3
:100C0000482818001C12111010101E0080403804D3
:100C10000202000000010E1020200000000000FE73
:100C2000000000000000003F00000000000202047D
:100C300038408000002020100E0100000080F0E00D
:100C4000C080000000000703010000000080C0E039
:100C5000F0800000000001030700000002FE424295
:100C6000428E0000101F10101008070002FE020242
:100C700002020E00101F1000000000000BFB88E8AD
:100C80000B3B0000101F101310101C0002BEC0FE12
:100C9000C0BE0200101F001F001F10001E040242F1
:100CA00042A41800060810101008070002FE00E019
:100CB00018FE0200101F1300101F100004FC01C2D8
:100CC00031FC0400101F1601101F100000F0080472
:100CD00002FE0200101F0000101F100002FE0202A0
:100CE00002FE0200101F1000101F100002FE020082
:100CF00002FE020000091212110F0000F0080AFEA5
:100D00000A08F0000102121F1202010002FE020096
:100D100002FE020000010202111F100002FE02F09A
:100D200002FE0200101F101F101F10000E02FE1204
:100D30000808F00010101F101008070002FE12082B
:100D4000F000FE00101F10100F001F000E0402F232
:100D50004244F800060810111008070002FE40FC8B
:100D60000202FC00101F000F10100F003844828296
:100D700082FE0200101C0201101F1000F048242403
:100D800022428000070810101008070008F8888821
:100D900088502000101F10101009060008F80808DD
:100DA00008380000101F100000000000E0938B883E
:100DB0008B93E0000708101010080400087880F8F2
:100DC00080780800101F011F011F100038100888CC
:100DD00088502000060810101009060008F8088046
:100DE00068F80800101F1601101F100008F902848F
:100DF00062F90800101F1601101F100008F880404B
:100E000030081800101F0001021C100000E010083C
:100E100008F80800101F0000101F100008F8E880F4
:100E2000E8F80800101F1003101F100008F8888051
:100E300088F80800101F1000101F100008F808089C
:100E400008F80800101F1000101F1000380808F8DC
:100E5000080838000000101F1000000008F8080003
:100E600008F8080000010202111F100008F808C06D
:100E700008F80800101F101F101F10003808F8880D
:100E80004040800010101F101008070008F888402C
:100E90008000F800101F10100F001F0008F8884095
:100EA00040800000101F101010080700381008C8FC
:100EB0008890E000060810111008070008F880F07C
:100EC0000808F000101F000F10100F00E0100808B5
:100ED00008F8080000110A06121F100011241FBE96
:100EE000CFEFD8E0DEBFCDBF11E0A0E0B1E001C0A0
:100EF0001D92AA3CB107E1F70E94A1370C94BC3FB8
:100F00007FC85D98559A80FD599A80FF5998519AEB
:100F1000539A5A9867FD5B9A67FF5B985A9A5A985A
:100F200066FD5B9A66FF5B985A9A5A9865FD5B9AD4
:100F300065FF5B985A9A5A9864FD5B9A64FF5B98C8
:100F40005A9A5A9863FD5B9A63FF5B985A9A5A982B
:100F500062FD5B9A62FF5B985A9A5A9861FD5B9AB0
:100F600061FF5B985A9A5A9860FD5B9A60FF5B98A4
:100F70005A9A5D9A5A985B980895609348018093B5
:100F8000040186958093B101660F660F660F60932A
:100F90000F0108951092B10160E080E0EECF60E0B3
:100FA00082E0EBCF60E084E0E8CF60E086E0E5CF70
:100FB00080914801809301018091B10180930301E8
:100FC00008958091030160910101880FD6CFCF93DE
:100FD000C82F692F81E095DF6C2F81E092DFCF91E0
:100FE0000895682F80E08DCFCF93DF938AE2F9DFF9
:100FF00080E090E0ECDF80EA90E0E9DF8BE2F1DF77
:1010000080E090E0E4DF80E890E0E1DF8CE2E9DF7F
:10101000C0E0A895D0EA8091260190912701D7DF02
:10102000D150C9F7CF5FC038A1F7B4DFDF91CF91BE
:10103000089558985A985B985D98509A529A539A86
:10104000559A4FD55D9A559A5998519A84E150D541
:10105000589A84E14DD58AE04BD581E1C2DF84E026
:1010600047D586E2BEDF64E081E04BDF81EBB9DF8C
:101070006EE081E046DF64E181E043DF80ECB1DFD8
:1010800080E09EE0A4DF81ECACDF65E081E039DF49
:1010900085ECA7DF80E498E39ADF8AE3A2DF65E0CE
:1010A00081E02FDF86E39DDF8CE693E00E947E3FA8
:1010B000809326018BE693E00E947E3F8093270178
:1010C0008AE693E00E947E3F8093600189E693E088
:1010D0000E947E3F809361016CE381E012DF84EB2C
:1010E00080DF60E081E00DDF7FDF89E27ADF8AE088
:1010F000FFC40895582F28E030E090E841E080E0F8
:10110000642F652309F0892B440F969521503109EE
:1011100021153105A9F70895A7E0B0E0E2E9F8E06C
:101120000C94EE3E9F838E83142FA02EB12C862E1E
:10113000912CC4018A0D9B1D813A91050CF092C03F
:101140008E2D90E0AC01410F511D413851050CF03E
:1011500089C0EA94E10EE7FE02C05FE7E52E322F78
:101160003270F32E21FF13C0019743E095958795C8
:101170004A95E1F78A9DA0018B9D500D9A9D500DD7
:1011800011248E819F81840F951F9F838E832170F0
:101190002B839501215031093D832C83E11608F4FE
:1011A00061C0C12CD12C812F90E027E7622E712CD9
:1011B000681A790A2EE730E0281B390B3A83298315
:1011C0004C805D808E819F81480E591EC01608F0AC
:1011D00038C08BE206DFC301FADE89819A81F7DE2F
:1011E0008AE2FFDE1601280C391CC101F0DEC101C4
:1011F000EEDE8CE2F6DE3B81332321F0F201EC19C6
:10120000FD0904C0EE81FF81EC0DFD1D3490FF202F
:1012100019F0832D6FDF382E38E0232E37FE05C0FE
:10122000809160019091610104C0809126019091AC
:101230002701CDDE330C2A9489F78FEFC81AD80A1C
:10124000C5CFFF2039F0EE81FF81EA19FB09FF834A
:10125000EE8306C02E813F812A0D3B1D3F832E83E6
:10126000185F9CCF2796E2E10C940A3FEF920F9310
:10127000282F8F7030E6839FC001112484549E4F25
:10128000322F307324FF02C028E001C028E52093EC
:101290001001303218F01092000108C020E22093B3
:1012A0000001209110012D5D2093100160E2E62ED7
:1012B00008E120E040910001609110012DDF0F91C5
:1012C000EF900895EF920F93262FFC0164913196D1
:1012D0004491FC0132960491FC013396E4905091C4
:1012E0000001450F50911001650F049615DF0F9115
:1012F000EF90089560E0E6CFEF920F939091480150
:101300009F5F9093480140910401440F440F440FA4
:1013100020E1829FC001112470E1E72E08E020E067
:1013200060910F01845A9B4FF7DE80910F01885F17
:1013300080930F010F91EF9008958F5CDDCF80E2D5
:10134000DBCFA1E0B0E0E7EAF9E00C94FE3E18162E
:101350002CF48983F4DF89818150F9CF2196E2E072
:101360000C941A3F9091480184E1891BEACFA1E0D7
:10137000B0E0EDEBF9E00C94FE3E8983F3DF909151
:10138000B1019F5F9093B1016981983038F087E097
:101390008093B10181E080934B0102C010924B0118
:1013A0008091B101880FE9DD2196E2E00C941A3FAB
:1013B000DEDFE2C4EFDDD6DFEDCDF1DDD3DFEFCD53
:1013C0008DE39ACFCF93DF93EC018991882311F0BD
:1013D00093DFFBCFDF91CF910895CF93DF93EC01A3
:1013E000FE018491982F9F7719F086DF2196F8CF20
:1013F000DF91CF910895CF93DF93EC01CE010E944E
:101400007E3F982F9F7719F077DF2196F7CFDF91F6
:10141000CF910895EF920F93FC0104913196E490DF
:1014200002967ADE0F91EF9008950F9384EB91E08E
:10143000E2DF409195014D3F64F46091830170912A
:101440008401809185019091860103E026E4CFD04C
:1014500002C08FE351DF0F91089597FF09C08F936A
:101460009F938DE249DF9F918F91909581959F4F3A
:101470006EE271E04AE050E00E946A3FA3CFEDDFE8
:1014800001C0EBDF5CCFEF92FF920F931F93182FF9
:10149000062FF42E86E991E0AEDFEE24E0914901BB
:1014A000F0914A018685E81611F4812F09C08485E0
:1014B000E81611F4802F04C08585E81611F48F2DED
:1014C0001BDFE3948E2D833049F71F910F91FF901E
:1014D000EF900895EF92FF920F931F93182F062F0E
:1014E000F42E80E065DF2BDF8CE991E084DF4F2D67
:1014F000602F812FC8DF1F910F91FF90EF9008950B
:10150000682F80E092E0662309F491E0623009F4EC
:1015100081E008950F93082FE2EBF1E0880F880F28
:10152000E80FF11D608171818281938164367105BC
:101530008105910570F42091020127FD0AC0802FDA
:10154000DFDF692F0E946D256EEF23E044E03ED17E
:1015500004C04FEF04E024E04AD0F1DE0F9108957B
:10156000863058F4E5EAF1E0E80FF11DE80FF11DCF
:101570008081918163E035D1E2CE08951F93182FC9
:1015800080917E01882319F0DADE80E0B5DE07DD88
:101590008DE891E030DF812F82958F70E1DF812F20
:1015A0008F70DEDF1F910895CF93DF93809111013B
:1015B00082958F70C9E9D1E0C80FD11D8881BDDE49
:1015C00085E591E018DF8E81B8DE85E591E013DFD7
:1015D000C9E9D1E0809111018370C80FD11D8E81BE
:1015E000ACDE80911101CADFDF91CF910895AEE0AA
:1015F000B0E0EDEFFAE00C94EE3E342E222E6B01BB
:101600007C01102F1F7080E389838A838B838C83F6
:101610008D838E83F7FE0BC08DE26EDEF094E09436
:10162000D094C094C11CD11CE11CF11C04C005FF66
:1016300002C08BE261DE133009F4B6C0143009F445
:10164000BAC0153051F0163081F01730B1F074E6A1
:10165000872E912CA12CB12C17C060EA862E66E84B
:10166000962EAA24A394B12C0FC050E4852E52E4E8
:10167000952E5FE0A52EB12C07C040E8842E46E9E8
:10168000942E48E9A42EB12C3AE0432E512C612C23
:10169000712CC814D904EA04FB0470F0C701B60128
:1016A0006B5F7F4F8F4F9F4FA30192010E94523E6D
:1016B00069017A013394EDCF81E1830D9BEA899F23
:1016C000812C1124869486E08319899F912C112402
:1016D0009694992D990F990D982E991A5E0187E08D
:1016E000A80EB11C2AE030E0A501C701B6010E9496
:1016F000473FF50101900020E9F7CF0101977C01F8
:10170000EA18FB08AE2C6701DD24892D90E00496D1
:101710008C159D051CF4839493E0990E882D90E020
:101720008B5C9F4F0E947E3FB82E04FF04C0A11621
:1017300010F41E1901C010E0AE2CA918A10E1A1445
:1017400024F08EE2D9DD192D1E19911002C028EF68
:10175000A22E912C012F10E0C00ED11EEA2CFF24E6
:10176000E7FCF094E92DF0E0EC15FD05A4F43696C5
:10177000E01BF10B81E090E08C0F9D1FE80FF91F3B
:101780008081BADD9394892D90E08E159F0551F7E5
:101790008EE2B2DDE7CFBB2011F08B2DADDD222034
:1017A00089F0822DA9DD0EC098EE892E93E0992E46
:1017B000A12CB12C69CF80E1882E87E2982EA12C34
:1017C000B12C62CF2E96E2E10C940A3F0F93362F94
:1017D000BC0180E090E0022F242F432F08DF0F91FF
:1017E00008950F93062FBC0180E090E026E54DEFB1
:1017F000FEDE0F9108950F93042F28E440E0F7DEFA
:101800008AE77ADD9CDD0F910895E82FF0E0EE0F76
:10181000FF1FE859FF4F8591949120910001420FDD
:1018200020911001620F20E0F5CDCF93DF93C82FF8
:10183000D62FE0914901F0914A0148E16EE1868599
:10184000E4DFE0914901F0914A014D2F6C2F84852E
:10185000DCDFE0914901F0914A0140E06EE18585CD
:10186000D4DFDF91CF9108951F93CF93DF93BCDB3B
:1018700080E3FCDC62E080E890E024DD80E2F6DCDE
:101880008BEB90E037DD60E085E077DB89EA91E083
:10189000B2DD6AE085E071DB81EA91E0ACDD88E9E8
:1018A0009AE304D2A1DB83E1E1DC83E0DFDC84ECBA
:1018B00090E020DD61E082E060DB8EE41DDD8DE202
:1018C0001BDD83EC91E097DD6BE082E056DB80E589
:1018D00013DD8DE211DD83EC91E08DDD88E99AE383
:1018E000E5D182DB81E3C2DC81E2C0DC8DE191E005
:1018F00001DD60E085E041DB8EE4FEDC8DE2FCDCB6
:1019000085E4FADC8DEB91E076DD6AE086E035DB9C
:1019100080E5F2DC8DE2F0DC85E4EEDC8DEB91E03D
:101920006ADD88E99AE3C2D15FDB81E19FDC81E176
:1019300091E0E0DC81E09ADC8DEE90E0DBDC60E0C1
:1019400081E01BDB8EE4D8DC8DE2D6DC84E4D4DCE1
:101950008DEB91E050DD6AE082E00FDB80E5CCDCCE
:101960008DE2CADC84E4C8DC8DEB91E044DD88E9DB
:101970009AE39CD139DB82E379DC82E277DC83EE87
:1019800090E0B8DC60E085E0F8DA8EE4B5DC8DE26A
:10199000B3DC85E4B1DC88EC91E02DDD6AE086E023
:1019A000ECDA80E5A9DC8DE2A7DC85E4A5DC88EC37
:1019B00091E021DD88E99AE379D116DB82E156DCFA
:1019C0008DED90E097DC82E051DC8BEC90E092DCD6
:1019D00061E081E0D2DA8EE48FDC8DE28DDC84E49C
:1019E0008BDC88EC91E007DD6BE082E0C6DA80E515
:1019F00083DC8DE281DC84E47FDC88EC91E0FBDC3D
:101A000088E99AE353D1F0DAC5DA86E391E0F3DCB2
:101A1000C6DA81E391E0EFDCC5DA8FE791E0EBDC39
:101A2000C4DA85E591E0E7DC8ADC81E591E0E3DC7E
:101A3000C0E014E18C2F612F0E941F3ED82F91111E
:101A40000AC0811104C088E99AE330D1CDDA60E0A0
:101A50008D2F880F92DA80E28C0F4EDCCF5FCF356E
:101A600049F788E99AE322D1BFDAC0E0D4E18C2FAC
:101A70006D2F0E941F3E911103C060E0880F7DDA38
:101A8000C83210F480E801C088EE8C0F35DCCF5FDF
:101A9000CF3269F788E99AE309D1A6DADF91CF91CD
:101AA0001F910895089503D002D001D000D000D036
:101AB00003D002D001D000D000D003D002D001D09A
:101AC00000D000D0A89503D002D001D000D000D023
:101AD00003D002D001D000D000D003D002D001D07A
:101AE00000D000D003D002D001D000D00000089573
:101AF00090E0893C28F0885C48EC849FC001112468
:101B0000009709F4089520918100277019F0DADF19
:101B10000197F6CF8130910519F002973EE303C09B
:101B200037E180E090E02091B200230F2093B300D2
:101B300042E04093700027E023BF889526E023BF52
:101B400010927000A895DCCF8F9384E0D1DF07C09E
:101B50008F9382E0CDDF03C08F9381E0C9DF8F9147
:101B60001F93182F106410937C00E12FE078809170
:101B70003901E81759F0E0933901AEDF8EE980931F
:101B80007A0083E083BF889582E083BF20E030E065
:101B9000A901E0E01FC08EE980937A0083E083BF53
:101BA000889582E083BF6091780070917900260F5C
:101BB000371F411D511DE43061F480913B0180309D
:101BC00041F084E02030380720F417FD02C010688F
:101BD000CACFEF5F80913801E817E8F260913C01CD
:101BE00070913D0117FF04C060913A0170913B0173
:101BF00080E090E00E94103E2FEF33E040E050E0A4
:101C00000E94523EB901CA012091380130E040E003
:101C100050E00E94523EC9011F91089589B183FB93
:101C2000882780F94999826090911C01943050F086
:101C30009EE0909318018093190110921D0191E08C
:101C400090931C01E0911C01AE2FB0E0A85EBE4F46
:101C50009C91981721F181111AC0A3E0AE0FA370D7
:101C600020911D01923041F4B0E0A85EBE4F9C91DE
:101C7000933069F42F5F09C0913049F4B0E0A85E59
:101C8000BE4F9C91933019F4215020931D01EF5FBA
:101C9000E370E0931C01F0E0E85EFE4F80838091EA
:101CA0001D0187FD819580931E010895A0E0B0E09D
:101CB000ECE5FEE00C94F73ED82EC92E53985198CF
:101CC00006DF10921D01E0911C01F0E03196E370F7
:101CD000FF27E85EFE4F80EF8083C5E6D9E19EDFF7
:101CE0004F9905C0F8DED150D1F7C150B9F7CD2DCD
:101CF000DC2DF12C05E510E0BB24B394D7FD36C0F4
:101D000082E3E82E8BDFE7DEEA94E1F7000F4F9BDA
:101D10000F5F0F730F3349F4111103C0CD2DDC2D6C
:101D200014E01F5F163928F021C0011102C0111103
:101D30001DC0A8951C161D062CF42A97209711F497
:101D4000CFEFDFEF80911E01882339F0F39480916B
:101D50007F01811102C0B0927F0184E18F1570F67E
:101D600080911D01811102C0F12CC8CF812FCDB708
:101D7000DEB7E9E00C94133FCF931AD9C82F8091B6
:101D80004B01882301F1813051F4C73041F463E104
:101D90008EE0F3D88BE2B0DA63E18EE0EED880E437
:101DA0009FE184DF811104C080911E018111F7CF72
:101DB000C73041F480914B01813021F460E08EE026
:101DC000DCD8D0DAFED8CF91089585E993E00E945F
:101DD0007E3F382F86E993E00E947E3F20914001AC
:101DE000230F30914101381F2093210130932201AC
:101DF00083E0283E380720F0C901885E934002C086
:101E000080E090E062E370E00E942B3E683008F0D2
:101E100067E0ECE4F1E0E60FF11DE60FF11D4591FE
:101E200055912591359162E3681B421B530B649FCA
:101E3000C001659F900D1124499662E370E00E94F5
:101E40002B3E620F731F709382016093810187E9BB
:101E500093E00E947E3F992787FD90956091400115
:101E600070914101860F971F90933B0180933A0137
:101E700090937D0180937C010895CF93DF9324E1BB
:101E800030E0B9010E942B3EDC01EEE5F1E0E60F07
:101E9000F71FE60FF71FC591D591459155914C1B42
:101EA0004A9FC0011124B9010E942B3E6C0F7D1F77
:101EB000CB01DF91CF9108951895189510922501C7
:101EC000109223011092770110925B01109224016D
:101ED0001092470110927E011092620110926301EC
:101EE000109264011092930182E080939401109209
:101EF00002011092920110929101109287011092AA
:101F000088011092890110928A0181EF80939601D5
:101F100008955E9880E090E0C9CEA1E0B0E0E3E9EA
:101F2000FFE00C94FC3E17B818B8E82FF0E0EB5C2B
:101F3000FE4F949195B9262F281BE20FF11D27FD26
:101F4000FA95E491E92BE4B969830ADE8C01698191
:101F5000862F06DE20913C0130913D013695279574
:101F6000A90143505109B801625E7F4F46175707D8
:101F700078F4255E3F4F0217130750F4BC01625EF0
:101F80007F4F4617570720F441E08217930708F068
:101F900040E014B8842F2196E4E00C94183FCF93CE
:101FA00061E080E0BADFC82F62E080E0B6DFC80FF2
:101FB00062E081E0B2DF8C0FCF910895A3E1B0E041
:101FC000E4EEFFE00C94EE3EB82E10922501807FE7
:101FD000B9F4E5DF833009F0C7C306D88FE892E093
:101FE0000ADA0E94CF078FE387D980ED97E05EDEA3
:101FF0008B30D0F40E94F40783E291E0FCD9B4C3A3
:1020000006E910E00E94F40782EE91E0F4D9C7DF00
:10201000833021F41F5F143010F006C010E088E216
:1020200067DD015079F764C00E94CF070E947020DD
:102030008AEC90E0E0D960E08FE693E00E948B3F6D
:1020400060E080E793E00E948B3F60E08EE693E0E3
:102050000E948B3F60E082E00E946D256C019A83B4
:10206000898361E082E00E946D257C019C838B83E3
:1020700060E081E00E946D258C019E838D8323E0CA
:1020800040E26EEFC601A2DB23E040E26EEFC70143
:102090009DDB23E044E06EEFC80198DB2AE5C21621
:1020A000D10424F024E130E03A83298369818FE66A
:1020B00093E00E948B3F8AE5E816F10424F024E1C6
:1020C00030E03C832B836B8180E793E00E948B3F61
:1020D0000A35110524F024E130E03E832D836D8123
:1020E0008EE693E00E948B3F82E080934B0144DEBA
:1020F0009B2D9F709F87913009F04EC001E010E04A
:1021000058EB252E52ED352E57E4452E512C62E02A
:10211000A62E78E0972EECE06E2EF4ECCF2EF6E3B0
:10212000DF2EE12CF12C3AC0839423E0281560F1D6
:1021300044D940D984E5E0D8C8019AD900D9E1E072
:10214000BE1231C08DEF90E056D964E0809140011D
:102150009091410146DB0E94CF0788EF90E04BD978
:10216000809181019091820183D98EEB8093380117
:1021700017B818B814B815B888EE93E097DDF4E0F6
:10218000BF1691F28B3080F288EE93E08FDD0F5F07
:102190001F4F0830110511F418E71FC1812CB02E14
:1021A000B0E27B2EC5CFF2E0BF1241C020913C01CE
:1021B00030913D01A8E5BBE10E94EB3DA7019601EE
:1021C0000E94743E81E085B985E084B980E0288B67
:1021D000398B4A8B5B8BB8DC288939894A895B89C2
:1021E000821B930B9A83898381E184B980E0288BD9
:1021F000398B4A8B5B8BA8DC288939894A895B89B2
:10220000821B930B9C838B8384E085B984E184B922
:1022100081E0288B398B4A8B5B8B96DC2889398946
:10222000821B930B9E838D8382EE90E0B7C093E078
:10223000B91229C0A5B8EAE0E4B980E085DC2091B4
:102240003C0130913D013695279538872F83821BBD
:10225000930B9A838983F2E2F4B980E075DC2F81D5
:102260003885821B930B9C838B8395B828E224B915
:1022700081E06ADC2F813885821B930B9E838D83DE
:1022800084ED90E08BC084E0B81207C085E892E04E
:10229000B2D885DE811165C287C095E0B91213C03E
:1022A00015B8A4B880E050DC9A83898394B881E0A3
:1022B0004BDC9C838B8374B882E046DC9E838D83E9
:1022C00084EF90E06BC0E6E0BE1227C0A4B8A5B8CA
:1022D00080E03ADC20913C0130913D01821B930B60
:1022E0009A83898394B895B881E02EDC20913C01D3
:1022F00030913D01821B930B9C838B8374B875B81E
:1023000082E022DC20913C0130913D01821B930B45
:102310009E838D8380EF90E041C0F7E0BF1240C004
:1023200020913C0130913D01A8E5BBE10E94EB3DCD
:10233000A20191010E94523EA5B883E084B980E0D9
:10234000288B398B4A8B5B8BFFDB288939894A893B
:102350005B89821B930B9A83898395B864B881E06B
:10236000288B398B4A8B5B8BEFDB288939894A892B
:102370005B89821B930B9C838B8375B890E394B924
:1023800082E0288B398B4A8B5B8BDEDB288939898D
:10239000821B930B9E838D838EEC90E02CD804C01F
:1023A000E1E0BE1609F4E4CE0E94CF0789819A814C
:1023B00054D80E949F098B819C814FD80E949F090D
:1023C0008D819E814AD8D4CE0E94DD0985E892E0B5
:1023D00012D884E68DDB115019F0E1DD8111F4CFC4
:1023E0000E94F40783EC90E006D823E044E06FEF0E
:1023F00080913E0190913F01E9D90E94CF078CEB7B
:1024000090E00E94FB0923E044E06FEF80914501DA
:1024100090914601DBD982E080934B01ADDC1092B4
:1024200025010E94F40788EB90E00E94FB0960E020
:1024300082E00E941A1D80908B0190908C01A090E8
:102440008D01B0908E019C868B8661E082E00E94B7
:102450001A1DC0908B01D0908C01E0908D01F090FE
:102460008E01DE86CD8660E081E00E941A1D00911B
:102470008B0110918C011E830D8362E080E00E942D
:102480001A1D80918B0190918C019C838B8362E05B
:1024900081E00E941A1D80918B0190918C019A8796
:1024A000898761E080E00E941A1D80918B019091E4
:1024B0008C019A838983EF85E13021F020914401DA
:1024C000223021F4029698878F8304C098878F83E7
:1024D00010924401C4010E94410AC6010E94410AAF
:1024E000B801882777FD8095982F03E026E444EF14
:1024F0007ED86E01FFE0CF0ED11CFE013196819196
:1025000091910A97853B9105F0F4EC15FD05B9F71B
:10251000AEE8EA2EA3E0FA2E8E010F5F1F4FF801FE
:1025200060810E5F1F4F6E5EC7010E948B3FFFEF01
:10253000EF1AFF0A0C151D0591F70E94CF0789EDD0
:1025400091E00E94FB0982E080934B0115DC0E9420
:1025500056342F85213029F080914401823009F0D2
:10256000E8C0E0E4BE2E10E0FAE0CF2ED12CE12C42
:10257000F12CA4DC0E94F40780E00E949D098FE703
:1025800091E00E94FB0982E00E949D098DE290E0AB
:102590000E94FB091092250160E082E00E941A1D52
:1025A0000091950160918301709184018091850172
:1025B00090918601073F44F4A70196010E94523E84
:1025C0000F5FB901CA01F6CF0093950160938301B3
:1025D000709384018093850190938601073F09F0F1
:1025E00092C0DC01CB0180569109A109B109803963
:1025F0009545A105B10508F086C0609197017091DD
:102600009801CB018B569F4F8B32914008F07BC0D5
:102610001F5F153008F478C085E993E00E94993F68
:102620000E94F40786E290E00E94FB0980919701E6
:10263000909198010E942D0AC8DB18B881E087B9F3
:1026400080E284B982E08CDA853D9340DCF714B8EF
:1026500010923B0110923A0182E082DA8C01809163
:102660007C0190917D0190933B0180933A0182E03F
:1026700077DA7C01EE0CFF1C10923B0110923A01BC
:1026800082E06EDAC0907C01D0907D01D0923B0157
:10269000C0923A01080F191F0E191F090E94CF0797
:1026A0008FE190E00E94FB0987E993E00E947E3F62
:1026B00073E0B72EB80E9601D8010E94FA3D97013B
:1026C000442737FD4095542F0E94743EB20E6B2D67
:1026D00087E993E00E948B3F8B2D992787FD90958A
:1026E0000E942D0A72DB82E080934B0145DB109241
:1026F00044018EE893E00E947E3F682F81E993E0D9
:102700000E948B3F16C010E00E94CF0760918301AA
:1027100070918401809185019091860104E026E406
:10272000409195010E94F70A88E2E2D9BA9409F033
:1027300020CF87E3809338010E945E370E94F40720
:1027400083E291E00E94FB090E94CF0787E792E0B5
:102750000E94FB091092250182E080934B010CDB63
:1027600003C052E0852E20CE6396E2E10C940A3F2E
:102770008091440181110DC08EE893E00E947E3F5C
:1027800061E0680F81E993E00E948B3F81E08093D4
:1027900044010895CF92DF92FF920F931F93CF933E
:1027A000DF931F92CDB7DEB7E82FF0E0E85CFE4F75
:1027B000E491E8B9E7B915B8E62FF0E0EB5CFE4F1D
:1027C000E491E4B908E813E1FE2EFF0C862F69833B
:1027D000BBD96C01F4B869818017910710F48C01A2
:1027E000F5CF0097E9F00E94D5078FE591E00E94B0
:1027F000FB09D60120EA36E841E050E00E94003EA5
:1028000028E937EB40E050E00E94523EDA01C9016E
:1028100022E041E467EF0E94E60B17B818B814B83D
:102820000F90DF91CF911F910F91FF90DF90CF908C
:1028300008950F931F93CF93DF9385E091D985E09F
:102840008BD9EC018C01000F111F000F111F0A56CC
:102850001F4F10924201043883E0180750F48DECAA
:1028600091E00E94FB090E94B20981E0809342013D
:1028700024C08CED91E00E94FB0962E0C8010E9437
:10288000F10B0E949F09CA3F86E0D80780F4C3334A
:10289000D64050F481EF92E00E94FB090E94B209F9
:1028A0008DEC26D936DB09C088EF92E002C089EDB5
:1028B00091E00E94FB090E94B209DF91CF911F9124
:1028C0000F910895A7E1B0E0E8E6F4E10C94EE3E44
:1028D000982E862E542EA895E62FF0E0EB5CFE4F46
:1028E00024912D873396E490E42FF0E0EB5CFE4FCB
:1028F0006490162D110FE82FF0E0EB5CFE4FF49082
:102900003396749065B8422E462844B877B878B8A4
:10291000862F22D95C01812F862985B90D85012B4F
:1029200004B9882D19D998878F833D8534B9882DAE
:1029300013D91C0114B8C6D815B844B8882D0CD9C1
:102940008A159B0528F5805E9E4FA816B90608F4E7
:10295000D4C4E7B818B8F5B88F2D862984B9A090EB
:102960003C01B0903D01892DF7D8A81AB90AF4B8F6
:1029700040913C0150913D0158874F83892DECD8FF
:102980006F817885681B790B78876F831B0107C07F
:102990009501205E3E4F8217930708F4AEC4209144
:1029A0005B018091770190E0820F911D02974CF0BE
:1029B000213009F0A2C490915801809174019813BC
:1029C0009CC474E7A716B10408F49AC0C501880F27
:1029D000991F44962816390608F092C077B878B83F
:1029E00004B9882DB5D86C01852DBAD85C0115B90C
:1029F000882DAED89601295A3D4F1F2918B8E7B83F
:102A000014B915B928173907A8F5852DA1D8883428
:102A10009F4028F085E08093250182E204C085E094
:102A20008093250184E280932401D0925101C092C9
:102A30005001AC14BD0440F4C6018A199B0990935F
:102A400057018093560104C010925701109256010D
:102A50009601A0E1B7E20E94EB3D20911F01309169
:102A6000200140E050E00E94523E309353012093F9
:102A700052013BC4892D6CD88C01852D71D86C0115
:102A8000F5B8892D65D8895A9D4F8017910708F0B0
:102A900034C478B877B8852D5BD8813D934028F44D
:102AA00085E08093250182E304C085E080932501C1
:102AB00084E3809324010C151D0538F4C01AD10A53
:102AC000D0927301C092720104C0109273011092EF
:102AD000720120913C0130913D01201B310BA0E19E
:102AE000B7E20E94EB3D209128013091290140E09E
:102AF00050E00E94523E30936F0120936E01C4C19A
:102B000018B8E7B8F5B8EF2DE629EB83E4B9892DBD
:102B100023D89E838D83C0903C01D0903D01852DAC
:102B20001FD89A8389830A9748F514B881E00E94D8
:102B3000780D812F8F2984B9892D0ED89E838D839E
:102B4000C0903C01D0903D01C81AD90A852D08D803
:102B50009A83898380912801909129019C0140E00A
:102B600050E060E871EA83E09CE10E94523ED601A9
:102B70000E94003EA981BA819D010EC0ED81FE81B7
:102B8000CE1ADF0A960149815A81241B350BA4E62F
:102B9000B0E00E94EB3D9A0140E050E00E94523EBE
:102BA0002E873F87488B598B14B815B878B877B8FB
:102BB00081E00E94780D6F817885693B774008F04D
:102BC0009CC344B8882D0E94AC0D8F359D4008F4FD
:102BD00061C114B881E00E94780D44B881E00E9480
:102BE000780D04B9882D0E94AC0D9F8B8E8B852D9E
:102BF0000E94B00D9A878987892D0E94B00D988711
:102C00008F83E985FA85E13DF74008F4C8C015B91E
:102C1000882D0E94A80D8115944078F08AE0809359
:102C200025018F81988549855A85841B950B909342
:102C30006D0180936C0121E016C484E0809325012E
:102C40008DE0809324016E897F892616370620F453
:102C50003B016218730802C06E887F88E0901F01F4
:102C6000F090200100E010E060E871EA83E09CE170
:102C7000A80197010E94523ED3010E94003EA985FF
:102C8000BA859D0140E050E00E94523E809177015C
:102C9000882369F08091680190916901A0916A018F
:102CA000B0916B0182179307A407B50710F5209325
:102CB00068013093690140936A0150936B012E893A
:102CC0003F89A0E1B7E20E94EB3DA80197010E9475
:102CD000523E30936F0120936E018F819885E98574
:102CE000FA858E1B9F0B90936D0180936C0121E000
:102CF00001C020E08091680190916901A0916A0172
:102D0000B0916B014E855F85688979898417950735
:102D1000A607B70730F540936801509369016093A7
:102D20006A0170936B018D819E8169817A81861B16
:102D3000970B90936D0180936C019601A0E1B7E22F
:102D40000E94EB3D209128013091290140E050E0A4
:102D50000E94523E205F384D30936F0120936E01E8
:102D600003C0222309F47FC39101A0E1B7E20E94CE
:102D7000EB3DA80197010E94523E309371012093D0
:102D800070019501A0E1B7E20E94EB3DA801970117
:102D90000E94523E30937301209372014CCF71E632
:102DA0002716310408F076C08E899F89813D9740AF
:102DB00008F470C085E08093250182E180932401AE
:102DC0008E899F8986509F4FEF81F8858E179F07C8
:102DD00020F483E1809324011DC02F8138854E8922
:102DE0005F894217530790F4A0911F01B091200111
:102DF000241B350B0E94EB3D9A0140E050E00E94FD
:102E0000523E30936D0120936C0104C010926D010D
:102E100010926C015E2D5770E52E852D8064809395
:102E20007C001BE0AA24A394B12CCC24CA94E3E038
:102E3000DE2EA89561E0862D1CD504B986B18E21C1
:102E4000E9F36D8564B980917A00806480937A009B
:102E500080917A0086FDFCCF809178009091790076
:102E6000D601A81BB90BAA0EBB1E115011F7C50144
:102E7000880F991F880F991F69E070E00E942B3E10
:102E80007093730160937201809177018F5F8093DB
:102E90007701D1CE44B865B8882D0E94AC0D9A83D5
:102EA0008983852D0E94B00D98878F8340913C01C6
:102EB00050913D01481B590B4A30510550F514B84B
:102EC00081E00E94780D04B915B9882D0E94AC0DDF
:102ED0009A838983852D0E94B00D98878F83809176
:102EE0001F01909120019C0140E050E060E871EAF0
:102EF00083E09CE10E94523EA981BA810E94003E7B
:102F000020913C0130913D01EF81F8852E1B3F0B54
:102F100009C029813A81241B350BA4E6B0E00E9448
:102F2000EB3D9A0140E050E00E94523E29873A87EB
:102F30004B875C87E7B818B8FB81F4B9F5B9892DE0
:102F40000E94AC0D9F878E87852D0E94B00D9E83B9
:102F50008D83882D0E94B00DAC012E853F852033D6
:102F6000314108F0C8C1F5B8892D4C8B5D8B0E94AA
:102F7000AC0DBC01F4B8892D6A8B7B8B0E94AC0D23
:102F80006C0115B881E00E94780DF5B8892D0E947A
:102F9000AC0D4C895D896A897B89A0E4CA16A6E0DC
:102FA000DA0608F05AC08133914108F456C08E8584
:102FB0009F858A569F4F6817790708F04EC086E0B4
:102FC0008093250180915B018F5F80935B018D81F0
:102FD0009E81841B950B90935101809350012E8507
:102FE0003F85241B350B309357012093560114B8AD
:102FF00015B8E8B881E00E94780DF4B8892D0E94D8
:10300000AC0D853F910508F03CC2EB81E4B9852DFC
:103010000E94AC0D813D934008F433C2892D0E947B
:10302000B00D8D3D924008F42CC2F4B8892D0E9459
:10303000AC0D8D3D924008F424C2F5B881E00E94A9
:10304000780D15B8892D0E94AC0D853F910508F0CB
:1030500018C287E08093250114C24B8144B945B959
:1030600081E00E94780D412E4F2844B845B8892D43
:103070000E94AC0D6C0100913C0110913D01081BB8
:10308000190B852D0E94B00D9F878E8760913C01A2
:1030900070913D01681B790B7C836B83882D0E94A6
:1030A000B00D9E838D838B819C818E3F994008F467
:1030B000B1C084E0809325018CE080932401380125
:1030C0002016310610F4621873088091280190913F
:1030D00029016C01E12CF12C60E871EA83E09CE1AC
:1030E000A70196010E94523ED3010E94003EEB814F
:1030F000FC819F0140E050E00E94523E80915B01C4
:10310000882369F080914C0190914D01A0914E016E
:10311000B0914F0182179307A407B50708F52093D4
:103120004C0130934D0140934E0150934F018E85D9
:103130009F852D813E81821B930B9093510180933B
:1031400050019801A0E1B7E20E94EB3DA701960172
:103150000E94523E309353012093520121E001C05E
:1031600020E080914C0190914D01A0914E01B091D1
:103170004F0149855A856B857C8584179507A6077D
:10318000B70730F540934C0150934D0160934E01C9
:1031900070934F018F81988569817A81861B970B87
:1031A00090935101809350019B01A0E1B7E20E94EE
:1031B000EB3D20911F013091200140E050E00E9442
:1031C000523E205F384D309353012093520103C08B
:1031D000222309F457C19101A0E1B7E20E94EB3D1F
:1031E00020911F013091200140E050E00E94523EAA
:1031F00030935501209354019501A0E1B7E20E945C
:10320000EB3DA70196010E94523E30935701209357
:10321000560137C171E62716310408F06CC0093435
:103220008DE0180708F467C085E08093250182E0EF
:10323000809324018D819E8186509F4F8C159D0522
:1032400020F483E0809324011EC0AD81BE81AC15C3
:10325000BD05A8F4A0912801B09129019601ED8146
:10326000FE812E1B3F0B0E94EB3D980140E050E099
:103270000E94523E309351012093500104C010929D
:10328000510110925001072D0770852D80648093A5
:103290007C001BE0CC24C394D12CA89560E0862D43
:1032A000E8D244B845B886B18023E9F7F4B88091F4
:1032B0007A00806480937A0080917A0086FDFCCF4A
:1032C0008091780090917900C80ED91E115029F78D
:1032D000C601880F991F880F991F69E070E00E944E
:1032E0002B3E709357016093560180915B018F5F75
:1032F00080935B01C6C017B818B814B815B817B8D2
:10330000F7EC2F16F1E03F0608F4A2C018B818EC4D
:10331000072D0E2907B981E00E94780DE7B8892DA5
:103320000E94B00D429710F01150A1F75D84550C2A
:103330004F2C440C44B845B861E0862D9AD2892DB3
:103340000E94AC0D8C0154B815B877B878B860E01D
:10335000862D8FD2A0903C01B0903D01882D0E9417
:10336000AC0D6C012D8524B9892D0E94AC0D1C017A
:10337000882D0E94B00D281A390A18B8E7B8F4B899
:10338000F5B861E0862D75D2892D0E94AC0D7C01C7
:10339000882D0E94B00DE81AF90A2E143F0438F463
:1033A00044B845B8892D0E94AC0D170115C08501A0
:1033B0000C191D0954B815B877B878B860E0862D97
:1033C00058D2E0903C01F0903D01882D0E94AC0D58
:1033D000A701481B590BCA01910127593109293806
:1033E0003141B0F58215930598F5C80133E0969503
:1033F00087953A95E1F7893C910510F088EC90E0CB
:10340000800F911F8215930518F5C10124E0969550
:1034100087952A95E1F780179107D0F480912501CF
:10342000833018F483E08093250180912301E82FF5
:10343000F0E0DF01A756BE4F9C9216968C92EE0FDD
:10344000FF1FEB55FE4F318220828F5F8093230157
:10345000682D892D25D017B818B814B815B86796F7
:10346000E2E10C940A3F809177018F5F80937701AE
:10347000222389F350927401809275019092760113
:10348000EACF21E080915B018F5F80935B01222373
:1034900011F3509258019092590180925A01DBCF5A
:1034A000A0E0B0E0E6E5FAE10C94F03E982E862E1E
:1034B000A895E62FF0E0EB5CFE4F549033962491F4
:1034C000E82FF0E0EB5CFE4FE4903396F4903091FF
:1034D000770180915B0190E0830F911D892B09F0AA
:1034E000C3C1A89580912B0190912C01880F991F41
:1034F000880F991F90933D0180933C0180917C013E
:1035000090917D01880F991F880F991F90933B011F
:1035100080933A018EEB8093380118B827B9E4B84C
:10352000E5B858E1D52EC0E0D0E0882D0E94AC0D62
:10353000782E692E892D0E94B00D8C018C1B9D0B5D
:1035400097FF03C091958195910903972CF0A89559
:10355000DA94D1F1E801E9CFEE0C15B8E4B8892D81
:103560000E94AC0D8135910578F5E5B8892D0E9452
:10357000AC0DEC01F7B8F8B815B854B888E1482E8E
:10358000C12CD12C892D0E94AC0DB82EA92E882DCE
:103590000E94B00D7C019C012C193D0937FF03C02E
:1035A0003195219531092330310514F5550C54B866
:1035B000882D0E94AC0D6C01003C94E41907E8F4DE
:1035C000C53881E0D807E8F080912B0190912C015B
:1035D00090933D0180933C0180917C0190917D010D
:1035E00090933B0180933A0187E3809338013CC17B
:1035F000A8954A9449F36701C5CFC03B9DE4D9071C
:1036000018F784EAE81682E0F80608F063C098E943
:10361000C916D104C8F200913C0110913D019E01F0
:10362000A8E9B7EB0E94EB3D98012C1B3D0B40E055
:1036300050E00E94523E29013A0198012C193D099F
:10364000A8E9B7EB0E94EB3D860120E030E0A9013C
:1036500098010E94523EC837DF4070F4C301B201A6
:10366000B2E0660F771F881F991FBA95D1F7620FD6
:10367000731F841F951F12C098E7C9169FE0D906D3
:10368000A0F4CA01B901A2E0660F771F881F991F35
:10369000AA95D1F7640D751D861D971D25E030E0B4
:1036A00040E050E00E94523E08C0240D351D461DEA
:1036B000571D5695479537952795A4E6B0E00E948B
:1036C000003E6B017C018CEAC80E8DE0D81EE11C27
:1036D000F11C73C0272D362D0217130708F498012B
:1036E000CB2DDA2DCE15DF0508F4E701590120179F
:1036F000310708F45801A0912801B0912901C501B2
:10370000821B930B9C010E94EB3D20913C01309168
:103710003D012A193B0940E050E00E94523E290138
:103720003A018E01EC16FD0608F48701A0911F01F5
:10373000B09120019E01201B310B0E94EB3D6801DE
:10374000E12CF12CA70196010E94523E98E7A916A0
:103750009FE0B90670F4C301B201E2E0660F771F83
:10376000881F991FEA95D1F7620F731F841F951F59
:1037700011C008378FE01807B0F4CA01B90152E050
:10378000660F771F881F991F5A95D1F7640D751D15
:10379000861D971D25E030E040E050E00E94523E3B
:1037A00069017A010AC069017A01C40CD51CE61CC2
:1037B000F71CF694E794D794C79410912501143020
:1037C00008F002CF9A94980C892D90E0EC01CE5924
:1037D000DE4F2881880F991F880F991FFC01EE5436
:1037E000FE4F2223D1F14080518062807380A70177
:1037F0009601241935094609570957FF07C0509506
:103800004095309521953F4F4F4F5F4FAAE0B0E074
:103810000E94003EA30192012C593F4F4F4F5F4F32
:103820002C0D3D1D4E1D5F1D0E94523E232B242B4F
:10383000252B09F0C9CE133019F081E080932501C2
:1038400082E0888380917E01E82FF0E0EB59FE4F03
:1038500090828F5F80937E01B7CEC082D182E28258
:10386000F38281E08883B0CECDB7DEB7E0E10C947F
:103870000C3FCF93C82FC09595B160FF02C0982B25
:1038800001C09C2395B994B1982B94B982E00E9411
:10389000780D84B18C2384B985B18C2385B9CF91FF
:1038A0000895A0E0B0E0E7E5FCE10C94F73E8AE083
:1038B000D82E9FE3B92E29E0C22E17B818B815B834
:1038C000B4B880E00E94AC0D8C0181E00E94B00D84
:1038D000EC0182E00E94B00D20912501293079F49D
:1038E00017B814B81093060100930501D09308018E
:1038F000C093070190930A018093090156C00430D8
:10390000110540F4C430D10558F48430910540F3DA
:1039100021E00AC021E0083E134018F020E001C079
:1039200021E0C83ED34008F42260883E934008F46A
:10393000246027B9C0E0D0E0A89580E00E94A40DE3
:103940007C0181E00E94B00D8C0182E00E94B00DEC
:1039500024E1E21625E0F20608F4389A043135E055
:10396000130708F4399A843125E0920708F43A9A4B
:1039700036E0E316F10428F40630110510F406973A
:1039800038F02196C43F81E0D807B1F6C0922501F6
:1039900000E010E00C171D0729F00E94670D0F5F73
:1039A0001F4FF8CFDA9409F088CFCDB7DEB7E9E042
:1039B0000C94133FCF92DF92EF92FF92CF9320911E
:1039C0008301309184014091850150918601C0911D
:1039D00095018AE0C82ED12CE12CF12C8C2FCF5FE1
:1039E000213A96E8390791E04907510538F0CA01B4
:1039F000B901A70196010E94523EF0CF8093950134
:103A0000A0913C01B0913D010E94003E28E833E1C5
:103A100040E050E00E94523E2093830130938401A5
:103A20004093850150938601CF91FF90EF90DF90F6
:103A3000CF900895A4E0B0E0E0E2FDE10C94F43E04
:103A4000982E862E8FEF860F992D990F990D890F3D
:103A500080935D01E92DF0E0EB5CFE4F1491862F21
:103A600090E0FC01EB5CFE4FF490FC01E85CFE4F43
:103A7000049180912501813009F4A7C2409123016E
:103A80008FE991E065EA71E0DC012A2F281B2417F9
:103A9000A0F42D9128110EC09D0127503109F90184
:103AA0002081291107C0FB01208131812C3D354047
:103AB00008F48BC26E5F7F4FE8CF10929001109296
:103AC0008F0181EF80939501109283011092840100
:103AD0001092850110928601E4DE18B807B9F4B897
:103AE000F5B8892D0E94B00D7C01882D0E94B00D83
:103AF000E81AF90A14B810925F0110925E01C12C05
:103B0000D12C20915E0130915F01243F314050F56E
:103B100015B914B90E94610D14B815B80E94680D4A
:103B2000A895892D0E94B00D6C01CE18DF088091F8
:103B30005E0190915F018E37910528F02BE4C2164B
:103B4000D1040CF43EC25DE2C51651E0D50684F402
:103B500080915E0190915F01019690935F01809347
:103B60005E01CFCFEDE2CE16E1E0DE060CF429C215
:103B700020915E0130915F01232B21F0C60100E00E
:103B800010E006C0F5E1CF16F5E0DF06BCF385C016
:103B900020915E0130915F012017310758F00E949B
:103BA000620D892D0E94B00D8E199F09A8950F5F97
:103BB0001F4FEECF8601081B190B1016110694F447
:103BC000093C11050CF0FDC128EE33E0D8010E943C
:103BD000FA3D9601442737FD4095542F0E94523EEE
:103BE000790102C0E12CF12CA0905E01B0905F0140
:103BF0002FEFA21AB20AC501A0E0B0E080938B01BA
:103C000090938C01A0938D01B0938E01C601800F1B
:103C1000911F27D29C01D5010E94EB3D60938B013F
:103C200070938C0180938D0190938E01609383013A
:103C300070938401809385019093860187EF809330
:103C40009501B8DE20918301309184014091850176
:103C50005091860181E793E029833A834B835C830B
:103C60000E947E3FA8EEB3E0A81BB10987FDB39583
:103C700029813A814B815C810E940A3E24E630E032
:103C800040E050E00E94523E209383013093840133
:103C9000409385015093860152C103DE15B887E039
:103CA00087B918B8F12EFF0CF4B880E480937B003C
:103CB00084E580BF892D806480937C0086E18093B9
:103CC0007A000E946B0D10925F0110925E011092BB
:103CD0008000109285001092840087E286BB81E20A
:103CE00080936F0081E080938001F5B89091250169
:103CF00080938100953059F481E090E0092C01C057
:103D0000880F0A94EAF78095877087B901C007B9D0
:103D1000F89483B7817F83BF80918001882389F0E5
:103D200083B7816083BF7894889583B78E7F83BF84
:103D3000F894A89580915E0190915F01803496403F
:103D400059F7789410928100E0908600F0908700F7
:103D500010926F0086E980937A0014B815B8892D07
:103D60000E94B00D2091400130914101821B930BC4
:103D70000B96909398018093970180915E019091AA
:103D80005F018032934008F01CC180915E019091E8
:103D90005F0190938E0180938D01F0928C01E092EF
:103DA0008B0184EF8093950180915E0190915F017A
:103DB00082349105C8F060918B0170918C018091E3
:103DC0008D0190918E0124E630E040E050E00E94A9
:103DD000523E20938B0130938C0140938D01509380
:103DE0008E0186EF80939501A0918101B0918201AF
:103DF00020918B0130918C0140918D0150918E0169
:103E00000E94003E20E233E040E050E00E94523E3B
:103E100020938B0130938C0140938D0150938E0140
:103E20002093830130938401409385015093860150
:103E3000C1DD80919501843F09F071C0C09083017C
:103E4000D0908401E0908501F0908601F0EACF16D1
:103E5000FFE0DF06E104F104C0F4A70196012C5451
:103E60003F4F4F4F5F4F60EA7FE080E090E00E945D
:103E7000523E2C0D3D1D4E1D5F1D2093830130933E
:103E800084014093850150938601C0908301D090B6
:103E90008401E0908501F0908601C114D10421E0F5
:103EA000E206F10428F4D092C301C092C20106C018
:103EB00081E090E09093C3018093C20180915D0105
:103EC00090E082579C4F0E947E3F482F50E060E078
:103ED00070E04C155D056E057F0568F4C41AD50ABF
:103EE000E60AF70AC0928301D0928401E09285012C
:103EF000F092860114C084E1C80ED11CE11CF11CB3
:103F0000C416D506E606F70610F40E94B813109200
:103F1000830110928401109285011092860114B9D8
:103F20008091830190918401A0918501B0918601D7
:103F30004997A105B10508F444C0E12CF12C80910A
:103F40002301882321F0809125018530D1F588E077
:103F50008093250120919501809196018217BCF0F4
:103F600028132FC0409183015091840160918501F5
:103F7000709186018091870190918801A0918901BB
:103F8000B0918A0184179507A607B707D0F48091EE
:103F9000830190918401A0918501B0918601809365
:103FA000870190938801A0938901B0938A0120939F
:103FB0009601F0929201E092910180929301909289
:103FC000940117B818B814B815B82496ECE00C94FE
:103FD000103F1F920F920FB60F9211248F939F9351
:103FE000B59904C080918001811109C0B59B10C0B2
:103FF00080918600909187008A3F910548F48091D6
:104000005E0190915F01019690935F0180935E0144
:104010009F918F910F900FBE0F901F9018951F9238
:104020000F920FB60F9211248F939F9310928001DD
:10403000B09B10C080918600909187008A3F9105C7
:1040400048F480915E0190915F01019690935F0129
:1040500080935E019F918F910F900FBE0F901F90E4
:1040600018950F9221E08C32920710F48CE291E0C7
:104070008C52914069E170E00E942B3E99E16B32D5
:1040800010F0982F6BE2981BEFE0F3E0E60FF11DC4
:10409000E60FF11D9F93CF010E947E3F482F31967E
:1040A000CF010E947E3F582F3196CF010E947E3F64
:1040B000282F3196CF010E947E3F382F6F91421BEF
:1040C000530B649FC001659F900D11240C9669E10C
:1040D00070E00E942B3E620F731FCB010F9008957A
:1040E000A0E0B0E0E6E7F0E20C94F43E88E893E16B
:1040F00090932C0180932B0190933D0180933C0180
:104100008EEB8093380118B880E187B90E94700D5A
:1041100017B884E00E94AC0DAC018B5C9840833FE3
:104120009140A0F481E08093470120913C013091BF
:104130003D01AFEBB9E00E94EB3D9A0140E050E059
:104140000E94523E30932C0120932B0180912B0131
:1041500090912C0190933D0180933C018EE00E9450
:10416000B00D8EE00E94AC0D909341018093400110
:104170000E94E50E96DB18B8C1E0C7B985E185B9A4
:10418000C4B980E00E94AC0D7C0112E017B984E054
:10419000982E94B881E00E94AC0DE80EF91E97B8F5
:1041A00090E1892E84B882E00E94AC0DE80EF91EE1
:1041B00015B8C8B9C7B9C4B9C0913C01D0913D0187
:1041C00080E00E94AC0D5C0118B917B994B8009159
:1041D0003C0110913D0181E00E94AC0D6C0198B84A
:1041E00097B884B880903C0190903D0182E00E9495
:1041F000AC0DC00FD11FC80DD91DCA19DB09CC19D0
:10420000DD09C81BD90B17B818B814B880913C0148
:1042100090913D014C01880C991C880E991E8E18B6
:104220009F088C1A9D0AA12CB12C9701A0E9BAE134
:104230000E94EB3DA50194010E94523E69017A0162
:1042400030934601209345019E01A0E9BAE10E9406
:10425000EB3DA50194010E94523E30933F01209313
:104260003E012057354E309329012093280180E7E5
:10427000C81A85EED80AD0922001C0921F0187E3A8
:1042800080933801CDB7DEB7ECE00C94103FFF927D
:104290000F931F93CF93DF93C82FD62FF42E0E9436
:1042A0009D0986E391E00E94FB09E9D16D2F8C2FD7
:1042B0000E94D035C1E00091C6011091C701209144
:1042C000C8013091C901011511052105310509F019
:1042D000C0E08091020187FD02C0C11104C082E3E9
:1042E00091E00E94FB098D2F0E949D09C11106C01B
:1042F0000E949F09809165010E948A0AFF2049F06F
:1043000080914801813128F490E08E569C4F0E94A4
:10431000FB0980E00E94D809C1111BC06091C60151
:104320007091C7018091C8019091C90103E028E410
:1043300047EF0E94F70A85E491E00E94FB0987EAB3
:1043400093E00E94863F23E046E464EF0E94E60B80
:104350001AC0809165010E948A0A809102018E3FF5
:1043600094F483E691E00E94FB0960910B01709147
:104370000C0180910D0190910E0103E028E4409121
:1043800002010E94F70A8091BE019091BF01A091A5
:10439000C001B091C101892B8A2B8B2BF1F080E0F9
:1043A0000E94D8096091BE017091BF018091C00147
:1043B0009091C10104E028E440E00E94F70A80E403
:1043C00091E00E94FB0923E040E26FEF8091C4017D
:1043D0009091C5010E94E60B07C080E00E94B709DA
:1043E00080914B01811102C00E94B209CDB7DEB7A6
:1043F000E5E00C94173F0F931F93CF93DF93082FA3
:104400000E94CA07809193010E949D098FE791E065
:104410000E94FB090AD560919301809194015DD3BC
:104420009093900180938F0111E08A3F9F4F08F095
:1044300010E0C0919101D0919201112321F087E306
:1044400091E00E94FB09809194010E949D09002344
:1044500059F09091480181E1891B0E94A10982E8ED
:1044600090E00E94FB0902C00E94B2090E94CF079F
:1044700060918701709188018091890190918A01F2
:1044800004E026E4409196010E94F70A112369F0A6
:104490008EE691E00E94FB0922E044E06EEF8091FD
:1044A0008F01909190010E94E60B0E94B2090E9438
:1044B000D207CD2B69F087E691E00E94FB0922E04C
:1044C00045E26FEF80919101909192010E94E60B7D
:1044D0000E94B209DF91CF911F910F9108958F70C3
:1044E00021F40E94D5070C94191408958F3021F4FB
:1044F00090914201913011F08F5F089580E008950E
:10450000CF938DE890E00E94402FC0E00E945E0FA4
:1045100060E082E00E94501A62E080E00E94501A3F
:104520000E94CA0780917E01882329F041E062E061
:1045300080E0ADDE12C08DE890E00E94FB098CE9BE
:1045400093E00E94FB090E94CF078FE30E947C0941
:1045500080E00E94B7090E94B2098C2FC0DF88EE6C
:1045600093E00E94560E811109C080911E01843093
:1045700028F48C2FBBDFC82F8A3F40F20E94F4073B
:10458000CF9108950F931F93CF93DF93C0E0D8E0AE
:1045900012EF01E10E945E0F60E082E04BDAD093FF
:1045A000250180919501843FE1F440918301509170
:1045B0008401609185017091860144365105610541
:1045C000710578F440E060E082E00E94653360931A
:1045D00083017093840180938501909386011093E9
:1045E000950180919501823FACF0809396014091B6
:1045F00083015091840160918501709186014093FF
:104600008701509388016093890170938A0181E04A
:10461000F2DE1CC00E94CA0786E890E00E94FB09F7
:1046200080914801902F981B892F0E94A10982E850
:1046300090E00E94FB090E94CF078FE30E947C0953
:104640000E94B2090E94D2070E94B2098C2F47DF54
:1046500088EE93E00E94560E81110AC080911E01DF
:10466000843030F48C2F42DFC82F8A3F08F492CF79
:104670000E94F407DF91CF911F910F910895A3E15C
:10468000B0E0E5E4F3E20C94EE3E82E080930201B8
:1046900080912501813009F01CC280917E0181301A
:1046A00009F017C22090650124E0229EF001112438
:1046B000EE54FE4F80819181A281B381893032E531
:1046C0009307A105B10508F004C29B8B8A8B312C9E
:1046D00061E0822D631528F00E94800AB82EA92E71
:1046E00003C00E94800A5C01EA2DF0E0E85CFE4F06
:1046F00074908B2D90E0FC01EB5CFE4FE49115B8BB
:1047000018B82A893B89203F3105A0F430FC12C03B
:1047100000911F011091200100591A4121E030E061
:104720000B2C02C0220F331F0A94E2F7C90187291C
:1047300087B906C0E4B977B800911F011091200134
:1047400044E1642E8B2D0E94A80D4C018A2D0E94FD
:10475000B00D34E08316910410F4049710F06A94BD
:1047600089F760E460937B0084E580BF8B2D8064D3
:1047700080937C0096E190937A00E12CF12C1092CA
:104780008000109285001092840087E286BB0E9410
:104790006B0D232D2170298B30FC05C081E880939F
:1047A000810078B808C078B80E94740D80E286BB9A
:1047B00081E88093810046B345FF12C018B810927B
:1047C000810080E286BB80918600909187006C0119
:1047D00020918400309185008217930768F013C000
:1047E00040FFE9CF31E036BBA895C70101967C01B7
:1047F0008035910501F7E2CF40FF05C061E066BB5F
:104800008FEFE81AF80A86E980937A0034E1732E74
:104810008B2D0E94A80D4C018A2D0E94B00D24E022
:104820008216910410F4049710F07A9489F780901E
:104830004501909046018A899B89880E991E800EB9
:10484000911E209121013091220100399AE119072E
:10485000B0F461EEC616D104E104F10438F4C601E7
:1048600065E070E00E942B3E645101C069E128526E
:104870003109261B310967FD339586E009C0C40163
:1048800060EB76E30E942B3E87E0860F285D3F4F6A
:1048900090E0A0E0B0E08C159D05AE05BF0528F4C2
:1048A000C81AD90AEA0AFB0A03C0C12CD12C760126
:1048B0008989882329F092E2C90ED11CE11CF11CE0
:1048C00060E5E616F10418F0C12CD12C76018BE0DE
:1048D000C816D104E104F10428F091E0C91AD10806
:1048E000E108F10840913C0150913D01A12CB12C0F
:1048F000A8EEB3E00E94EB3D2B013C019801DA01E8
:104900000E94EB3DA50194010E94523E4427552789
:10491000C301B2010E94523EC9010E943D0FFC0139
:10492000A5019401C701B6010E94103E4B015C0134
:10493000BF0180E090E023E0660F771F881F991F7A
:104940002A95D1F76B5F7F4F8F4F9F4F2AE030E062
:1049500040E050E00E94523EC501B4010E94523E28
:10496000832D90E0E1E0F0E0EC0FFD1F64E0369E67
:10497000E00DF11D11242083318342835383698923
:10498000611117C06CE0C616D104E104F10488F08F
:10499000FC013196EE0FFF1FEE0FFF1F81E090E04C
:1049A0008C0F9D1FE80FF91F2083318342835383AF
:1049B0003394A895339493E0931508F089CE18B8F2
:1049C00084E00E94780D21E04D815E816F817885C1
:1049D00089819A81AB81BC8184179507A607B707A7
:1049E00008F020E04D855E856F85788989859A85F8
:1049F000AB85BC8584179507A607B70710F032E092
:104A000001C033E0E22FF0E0EE0FFF1FEE0FFF1FBB
:104A100081E090E08C0F9D1FE80FF91FDC0194E00E
:104A2000399FA00DB11D11244D915D916D917C9127
:104A300080819181A281B381481759076A077B075A
:104A400008F0322FE1E0F0E0EC0FFD1F24E0329F90
:104A5000E00DF11D112480819181A281B3818093A9
:104A60000B0190930C01A0930D01B0930E0130FD4A
:104A700009C02A893B89203F310520F48BEF8093C0
:104A8000020117C02CEF20930201BC01CD016B5F26
:104A90007F4F8F4F9F4F2AE030E040E050E00E9470
:104AA000523E20930B0130930C0140930D01509323
:104AB0000E0180910B0190910C01A0910D01B0911C
:104AC0000E01892B8A2B8B2B11F41092020117B83F
:104AD00014B86396E2E10C940A3FAEE1B0E0E3E77C
:104AE000F5E20C94EE3E662EB82E860F8983209157
:104AF0002501283059F52091870130918801409196
:104B0000890150918A0157FD15C01091960109C085
:104B1000CA01B9012AE0312D412D512D0E94523E8A
:104B20001F5F173FACF391F4243160E03607410575
:104B3000510518F48FEF9FEF45C1173F39F480E01E
:104B400028178DE738074105410510F020E03DE7C3
:104B50002C8B3D8B26EDA22EE8E3F1E0E60DF11D56
:104B6000859180608E87E8E3F1E0EB0DF11D859182
:104B700080608F87E5E3F1E0E60DF11D7590E5E3D8
:104B8000F1E0EB0DF11DC59090EC692AB92A81E0A6
:104B9000E82EF12C012D112D8E831F821886198687
:104BA0001A861B861C861D86188E198E1B8E1A8EE1
:104BB0000E94511C80E088B960927C000E946C0DBC
:104BC0003F8537B975B874B852E05A95F1F70000CF
:104BD000000014B815B8DD243E8537B975B874B82F
:104BE00060927C00A895A0927A0080917A0086FD60
:104BF000FCCF2090780030907900B0927C004C2D52
:104C0000E5D02091780030917900288B398B3F8551
:104C100037B9C5B8C4B8A895B0927C00A0927A0004
:104C200080917A0086FDFCCF6091780070917900C8
:104C300060927C00472DCAD0409178005091790055
:104C400014B8CB01820D931DE80EF91E011D111D34
:104C5000EA82FB820C831D8388899989840F951FC2
:104C60002E813F8168857985280F391F611D711D4F
:104C70002E833F836887798722E32417150650F037
:104C800075B874B80E94760D14B815B8888D8395E0
:104C9000888F07C0483E73E0570718F08A8D8395C8
:104CA0008A8F888999892817190660F03E8537B957
:104CB000C5B8C4B80E94760D14B815B8898D83950F
:104CC000898F07C0883E73E0970718F08B8D839516
:104CD0008B8FD3945D2D5F3F49F05F3731F45C2DAE
:104CE000550FC50E572D550F750E76CF40904501C7
:104CF00050904601440C551C9201E4E0240D351DF2
:104D0000EA95E1F72901570168016E807F80888468
:104D10009984209125012830C1F46C897D89812DE9
:104D2000912D65507040804090409B01AC010E94E5
:104D3000103E9B01AC0160E779E786E190E00E94BC
:104D4000523E621A730A840A950AA614B704C8046C
:104D5000D90428F46A187B088C089D0803C06624CF
:104D600077244301B20180E090E09301A4010E9406
:104D7000103E9501A6010E94523E8DE693E0798196
:104D8000870F911D0E947E3F682EC90160E170E08F
:104D90000E942B3E260F371FC9016816190618F40A
:104DA000861991090FC08C5E9F4F8615910540F4BE
:104DB0008C899D89843981E1980710F00E94B8138D
:104DC000812D912D6E96E2E10C940A3F10928100A4
:104DD0001092800010926F0010928B0010928A0047
:104DE00057E056BB5FEF509385005093840055E029
:104DF00050937B0056EB50937A0051E05093810022
:104E000058E25A95F1F7000045B944B955E05A9572
:104E1000F1F7000014B815B81092810080917A0063
:104E200084FFFCCF80937A000895A4E0B0E0EBE12A
:104E3000F7E20C94F63E8091910190919201892BBA
:104E400009F0B2C0E0919301F0E0E85CFE4F0491FC
:104E5000E0919401F0E0EB5CFE4F14910E94511C34
:104E600018B815B807B914B9809194010E94B00D13
:104E70005C01009196018CE0800F843008F094C0B2
:104E8000015F8091870190918801A0918901B09183
:104E90008A012AE0C22ED12CE12CF12CBC01CD01DB
:104EA0006B5F7F4F8F4F9F4FA70196010E94523E2D
:104EB0000F5F073019F0DA01C901F0CF293883E11B
:104EC00038074105510508F06FC02530310508F459
:104ED0006BC015B914B900E010E00217130768F4AD
:104EE00029833A834B835C830E94720D0E5F1F4FB0
:104EF0005C814B813A812981F0CF14B815B8A8950F
:104F000085E0809338018091940129833A834B8313
:104F10005C830E94B00D29813A814B815C81A81687
:104F2000B90620F47C01EA18FB0802C0E12CF12C40
:104F300000E010E00217130768F429833A834B83DB
:104F40005C830E94720D0F5F1F4F5C814B813A8121
:104F50002981F0CF809194010E94B00D27E3209326
:104F60003801A895A816B90618F48A199B0902C039
:104F700080E090E08E159F0588F49701281B390B7F
:104F800069F0A4EFB1E00E94EB3D970140E050E0F2
:104F90000E94523E30939201209391010E94511C35
:104FA00017B818B814B815B82496EAE00C94123F54
:104FB000A5E0B0E0EEEDF7E20C94EE3E82E592E083
:104FC0005FD720EF2A8354980E94670D14BC16BC4B
:104FD00010921201109213011092140110921501F7
:104FE00031E035BB30936E001092800083E19AE788
:104FF00090938B0080938A00E1E0F0E0F0938900C9
:10500000E0938800109285001092840083B581603F
:1050100083BDF6E0F6BBF0936F00789424E0209314
:10502000810012E319820E94600DA8954F9902C079
:1050300031E0398385B5811127C015BC86B58093D1
:1050400012010E94D2070E94B2090E94D5070E9455
:10505000B2090E94DD0986E60E947C090E94E009EF
:1050600060911201709113018091140190911501CA
:1050700047E00E94FB0B549880918100882339F00F
:105080008FE30E947C0903C0115069F6D6CF1092BD
:10509000810010926F002091120130911301409114
:1050A000140150911501DA01C9010197A109B10953
:1050B000893D9146A105B10508F029C1AAE0B0E0FB
:1050C0000E94003E685F7F4F8F4F9F4F23E0969571
:1050D0008795779567952A95D1F7660F771F709317
:1050E00079016093780154980E94670D16BC109264
:1050F000120110921301109214011092150181E017
:1051000085BB80936E0010927B0110927A0194E02F
:105110009BBB809168008460809368007894809144
:105120006D00806180936D001D820E94600DA895C6
:105130004F9902C0E1E0E98380916D0084FF05C0D2
:10514000FD81FF5FFD83FA3F81F715BC80916D0003
:105150008F7E80936D00809168008B7F80936800C4
:1051600086B5809312010E94D20784E50E947C09D3
:105170000E94E0098091120190911301A091140105
:10518000B091150120917801309179013C832B83F6
:105190001C012D019C01A20160E070E080E090E024
:1051A00003E00E94253F51016201E12CF12C00E057
:1051B00010E00E943E3F59016A017B01E82F192F40
:1051C00003E00E94253F0E2F0E943E3F03E00E9415
:1051D000253F51016201E12CF12C00E010E00E941A
:1051E0003E3F02E00E94253F00E00E943E3F01E07A
:1051F0000E94253F00E00E943E3F03E00E94253FC1
:10520000EB81FC815F01C12CD12C00E00E948A3E21
:1052100039014A011B012C012B813C8120383105C9
:1052200030F007E023E745EFB301C40116C084E680
:10523000A82EB12CC12CD12CE12CF12C00E010E0D7
:105240009301C2010E948A3EE22FF42F07E023E778
:1052500047EF6E2F732F8F2F952F0E94F70A3D81F6
:105260003A3F21F48FE30E947C0951C09301A401CD
:10527000B101C2012C393E4C434051056105710515
:105280008105910509F008F442C00E94D50786E621
:105290000E947C090E94E0099301A401B101C201AE
:1052A000530164017101820121153A4C4A495B4363
:1052B000610571058105910589F080F020E030E0FD
:1052C0004AE85DE568E775E483E691E00E948A3E7E
:1052D000E22FF42F07E028E44AEF0FC020E030E887
:1052E00046EC54EA6EE77DE883E090E00E948A3E57
:1052F000E22FF42F07E028E44CEF6E2F732F8F2F4F
:10530000952F0E94F70A8AE70E947C095498109210
:105310006E0080ED97E00E94560E2981820F49F4BD
:1053200080911E01833028F43A8131503A83311143
:105330004ACE2596E2E10C940A3F1F920F920FB6D7
:105340000F9211248F939F93AF93BF937894809182
:10535000120190911301A0911401B09115019F5F6A
:10536000AF4FBF4F8093120190931301A09314018C
:10537000B0931501BF91AF919F918F910F900FBE88
:105380000F901F9018951F920F920FB60F92112435
:105390008F9386E085BD8F910F900FBE0F901F9069
:1053A00018951F920F920FB60F921124A895109284
:1053B000810015BC0F900FBE0F901F9018951F9283
:1053C0000F920FB60F9211242F933F938F939F93B9
:1053D00080917A0190917B01892B11F481E085BD48
:1053E00020917A0130917B0180917801909179012F
:1053F0002817390730F015BC80916D008F7E80939F
:105400006D0080917A0190917B01019690937B01D0
:1054100080937A019F918F913F912F910F900FBEB2
:105420000F901F9018958E3008F08E50811103C098
:105430008DE592E040C0813019F482E592E03BC0F6
:10544000823019F482E292E036C0833019F487E1A9
:1054500092E031C0843019F488E990E02CC08530A6
:1054600019F48DE890E027C0863019F486E890E0C2
:1054700022C0873019F487E092E01DC0883019F40B
:105480008EEE91E018C0893019F488E492E013C0E0
:105490008A3019F48CE091E00EC08B3019F482E070
:1054A00091E009C08C3019F488E392E004C08D309B
:1054B00021F48EE292E00E94FB090C94B2090F9352
:1054C000CF9388E990E0DCD4C0E01092250160E041
:1054D00082E0F2D4809125018830C1F50E94CF0787
:1054E00083E40E947C090E94E00960918701709129
:1054F00088018091890190918A0103E026E440911E
:1055000096010E94F70A0E94B2096091930180916E
:105510009401E3DA9093900180938F010E94D20767
:105520008FE691E00E94FB0980918F01909190019C
:105530008A3F2FEF920730F422E044E06EEF0E94A2
:10554000E60B08C08FE30E947C0904C00E94DD09BD
:105550000E94D2070E94B2098C2F0E946F2288EE0F
:1055600093E00E94560E81110BC080911E01843081
:1055700038F48C2F0E947622C82F8A3F08F4A5CFDA
:10558000CF910F9108951F93CF93DF9388E492E01A
:1055900077D4C0E0D0E01AE00E94DD0989E591E00F
:1055A0000E94FB0983E00E94AC0D63E09C01129F06
:1055B000C001139F900D11240E94F10B8C2F0E94AB
:1055C0006F2288EE93E00E94560E90911E01811189
:1055D00002C0992361F0C0E0963080F48F3510F05E
:1055E000DF5F02C0882319F0D53010F007C0D0E08B
:1055F0008C2F0E947622C82F803F70F2DF91CF91CE
:105600001F910895A5E0B0E0E8E0FBE20C94EE3EC7
:1056100082E292E035D480E18093800010926F00A6
:1056200081E090E0909389008093880010928B0035
:1056300010928A0083E086BB1092820088E08093FB
:10564000810015B881E184B918B881E087B9229A40
:1056500089E080938100212C1B822AE02983332456
:105660003394812C912C5401839411E1822D90E08C
:105670000A966EE170E00E943F3E662E562E3B81F8
:10568000631789F00E94CA0782E292E00E94FB0938
:10569000712C751428F48EE20E947C097394F9CF62
:1056A0000E94B2096B821231C8F0C701B601A50190
:1056B00094010E94523E2B013C01832D69810E947E
:1056C0001F3EA92FB0E0A50194010E94003E6B018E
:1056D0007C01C40CD51CE61CF71C0CC0832D698111
:1056E0000E941F3EA92FB0E0A50194010E94003E38
:1056F0006B017C010E94CF078981381208C081E0CC
:10570000123108F480E08A83811106C001C01A8238
:10571000163120F48EE303C08CE301C082E50E94C1
:105720007C090E949F09412FC701B6010E94FB0B13
:10573000C701B6017E5E85489F4FA7019601220FE3
:10574000331F441F551F0E94523ECA014F3F51054F
:1057500039F030F08DE08093810080E094E01FC04C
:105760004034510530F08CE08093810080E091E07E
:1057700016C04830510530F09BE09093810080E4E2
:1057800090E00DC0892B31F0EAE0E093810088E0E1
:1057900090E005C0F9E0F093810081E090E02C01F9
:1057A000612C712CCA01B901A30192010E94523EE1
:1057B000C9010197909389008093880080918800A7
:1057C00090918900892B31F421E030E030938900F9
:1057D000209388000E94B2090E94D20786E60E94A8
:1057E0007C090E949F0980918800909189009D8387
:1057F0008C8360E079E08DE390E0A30192010E9448
:10580000523EA4E6B0E00E94003EEC81FD8131965C
:105810009F0140E050E00E94523E29013A01A4E677
:10582000B0E0A70196010E94003E461A570A680A96
:10583000790A05E228E44EEFC301B2010E94F70A9B
:105840008AE70E947C090E94B2098CED95E00E94D3
:10585000560E811105C080911E01811142C042C0C7
:10586000863958F0109281001092800017B814B851
:1058700022982596E2E10C940A3F813578F1FA816D
:10588000FF23D9F01150C501B4012AE030E040E017
:1058900050E00E94523E49015A01C701B6010E94E0
:1058A000523ECA01B9012AE030E040E050E00E94D7
:1058B000523E362E2AE029833DC0163190F51F5FF7
:1058C000163111F435E13983AAE0B0E0A501940165
:1058D0000E94003E4B015C01312C2CC08B3008F043
:1058E0003394212C80911E018B3008F0BBCF809126
:1058F0001D0187FF03C08F5F9981890F830D90E0A1
:10590000E9816E2F70E06F5F7F4F0E943F3E382E1F
:10591000822D0E947622282EFFEEF81708F0A6CEE0
:10592000A1CF2AE0298333243394812C912C540174
:10593000839411E1212C9ACEA4E0B0E0E2EAFCE2EB
:105940000C94F23E87E192E09BD283E28093800048
:1059500010926F008FEF90E090938B0080938A00FD
:1059600083E086BB1092820015B881E184B918B833
:1059700081E087B9229A81E090E09093890080933A
:10598000880089E08093810010E000E0A2E37A2E95
:10599000612CB4E6CB2ED12CE12CF12C88248A94F6
:1059A00083E0982EA12CB12C7016E9F183E68715BF
:1059B00010F4ECE97E0E272D30E0AFEFB3E00E944B
:1059C000EB3D6E5C7F4F8F4F9F4FA70196010E946A
:1059D000523E30938B0020938A0029833A834B8375
:1059E0005C830E94CF07A8EEB3E029813A814B8106
:1059F0005C810E94003E61507E4F8F4F9F4FA501FA
:105A000094010E94523EDA01C90125E045E26FEFA0
:105A10000E94E60B0E94B209F8E2F61518F48CE336
:105A20000E94780D072D80E496E00E94560E682EA5
:105A300082E8861558F417B8109281001092800001
:105A400014B822982496EEE00C940E3F90911E011B
:105A50009B3088F780911D0187FD8C59780EE2E319
:105A6000E61518F4FAE07F0E03C0662051F0739437
:105A700010E0812F0E947622182F803F08F494CFE7
:105A8000DACF9111F5CFF5CFA3E0B0E0EAE4FDE283
:105A90000C94F73ED82E81110BC08CE091E0F0D130
:105AA0008AE693E00E947E3F182F89E693E00AC0C1
:105AB00082E091E0E5D18CE693E00E947E3F182FD2
:105AC0008BE693E00E947E3F982F9695969596954B
:105AD0009983912F9F719B83877048E0849F9001E9
