:10000000B7C30000C7C30000C5C30000C3C30000DE
:10001000C1C300000C943625BDC300000C94810AB6
:10002000B9C30000B7C300000C94561B0C941A25EA
:100030000C9428250C94301BADC30000ABC300000A
:100040000C94F424A7C30000A5C30000A3C30000C0
:10005000A1C300000C94820A9DC300009BC3000052
:1000600099C3000097C3000098059A059E05A8054E
:10007000A605A205A205A405AE05AE05C600BD00F5
:10008000B4001008407E01013E01013E01013E0125
:10009000017E404018000720080808F800000020F2
:1000A00060A03FA06020020202FF020202101010B6
:1000B0001F0000000708FFDBBDB5B5CBFF0708FF39
:1000C000BB9DADADB3FF0708FFFFF7FB81FFFF103E
:1000D000100508F878385888091003081C3E7F0D71
:1000E000080710FF818181F1E1C1FF404040474393
:1000F000410D080110FFFF11080310F1E1C1474352
:10010000410E0008202121122060E0E0E0FEFE0404
:1001100002010001037F7F21C2C4C4C04094840057
:1001200007030102040E080210FEFE7F7F0000009C
:1001300000110005202060E0E0E00201000103C2A0
:10014000C4C4C0400703010204010410090A0C4E94
:100150006F742063616C696272617465642100B9B7
:1001600003870358032E030703E402C302A4028893
:10017000020000140029003E00530069008000972F
:1001800000AE00C600DF00F80012012D0149016534
:10019000018201A001BE01DE01FF012102440268CB
:1001A000028E02B502DE020903350364039403C81C
:1001B00003FE0337047304B404F90443059305EA0A
:1001C000054906B3062907AE074808FF08DE0900FF
:1001D0000000000000000000000000000000001E01
:1001E0002121211200807F0000007E4A4A4A34000B
:1001F0000000000000FC4020100804020100000084
:10020000010101010101010101010101017F0488D6
:10021000D0E0F0F800000000000000000000000046
:10022000000000000000FC94948400000102FC0027
:1002300000000000000000000000001E212121122B
:10024000E0C0804020100F000000C02020204000AF
:100250000000FC00009E9E04030303030200000054
:10026000202023242525232020203F00007B7B21E4
:1002700042840480C0000000000000000000000074
:10028000000000FC94948400040607070708F000AF
:10029000000000000000000000000000803F21215D
:1002A000120C00000000FF000000F0084848C800E1
:1002B00000FE0000E7818181C1E1F18181810100BF
:1002C0002020202121212020203F0000F340404019
:1002D00041434740407FC000000000000000000094
:1002E0000000000000489494946400000000FF00A7
:1002F0000000000000000000000000000000003FBF
:100300002121120C0000FF000000F0084848D00036
:100310000000000000FEFE040404040404040700BE
:1003200008080809090908087F3E1C08087F7F2083
:10033000202020202020E00000000000000000001D
:100340000000000000000048949494640000FF0046
:1003500000000000000000000000FF003C0A090A45
:100360003C002231292926000082868E9EBEFEFE98
:10037000BEDEEFF6FAFEFEFAF2E2C28200000008EC
:10038000080804027984A4A46800FF0000000000AB
:10039000000000000000000000000000000000005D
:1003A0000000FF0000F0282428F0001008FC0000E6
:1003B000000000000000000000003C0A090A3C00A8
:1003C000FF0000000000000000000000000000002E
:1003D000000000040C1C3C7CFF7C3C1C0C04000056
:1003E000000000009EA1A9A99A804323130B0703D4
:1003F000FF030303030303000000000000000000EC
:100400000000788484844800FF00000000000000A1
:100410000000F00804E2110909090909090909099C
:100420001121C2040810E0000000010204040700CA
:1004300000000000804020108844231008040300BE
:1004400000000000000000000000FE0100FC0201AE
:10045000000000000000000000000000000000009C
:100460000000794949790000000000000000000800
:100470003E22223E08087F2214087F7F0814227F34
:10048000087F7F00007F7F00586404645800807CF0
:1004900020201C22222222223E3E22222222220828
:1004A000080808080838404030404030404030409C
:1004B00038007E1515150A00062979290600000066
:1004C00000000000607E0A353F002A1C361C2A000E
:1004D000E0514F41FF007F404040FF007F407F40A0
:1004E000FF00E0544C44FC0018247E2418007C409B
:1004F0004040FC007C407C40FC0014B6FFB6140079
:1005000004067F06040010307F30100008083E1CEF
:100510000800081C3E080800784040404000083EA3
:10052000083E0800303C3F3C3000030F3F0F030003
:1005300000000000000000005F0000000003000356
:100540000000147F147F1400242A7F2A1200231332
:10055000086462003649552250000005030000007F
:10056000001C224100000041221C000014083E082B
:10057000140008083E08080000A0600000080808F1
:10058000080800000060600000002010080402005D
:100590003E5149453E0000427F40000042615149C2
:1005A00046002141454B31001814127F10002745A9
:1005B000454539003C4A49493000017109050300AD
:1005C000364949493600064949291E000036360099
:1005D00000000056360000000814224100001414E8
:1005E00014141400004122140800020151090600ED
:1005F000324979413E007E1111117E007F494949FF
:1006000036003E41414122007F4141221C007F498A
:10061000494941007F09090901003E4149497A00E1
:100620007F0808087F0000417F4100002040413FD3
:1006300001007F08142241007F40404040007F02BB
:100640000C027F007F0408107F003E4141413E00C4
:100650007F09090906003E4151215E007F091929E1
:10066000460046494949310001017F0101003F40F0
:1006700040403F001F2040201F003F4038403F00C7
:1006800063140814630007087008070061514945A6
:100690004300007F4141000018247E2410000041E7
:1006A000417F0000040201020400808080808000FD
:1006B0000001020000002054545438007F48444494
:1006C0003800384444442000384444487F003854BB
:1006D00054541800087E09010200085454543C0088
:1006E0007F080404780000447D4000002040443D21
:1006F00000007F102844000000417F4000007C047F
:10070000180478007C080404780038444444380015
:100710007C1414140800081414147C007C080404CD
:100720000800485454542000043F444020003C40FA
:1007300040207C001C2040201C003C4030403C00FD
:100740004428102844000C5050503C004464544C41
:10075000440000083641000000003F000000004156
:100760003608000008082A1C08003C2623263C0006
:1007700011241FBECFEFD8E0DEBFCDBF11E0A0E057
:10078000B1E001C01D92A63CB107E1F70E944732DB
:100790000C945D3A35CC5D98559A80FD5B9A80FF4C
:1007A0005B98539A519A5A9867FD599A67FF5998DE
:1007B0005A9A5A9866FD599A66FF59985A9A5A98C1
:1007C00065FD599A65FF59985A9A5A9864FD599A45
:1007D00064FF59985A9A5A9863FD599A63FF599839
:1007E0005A9A5A9862FD599A62FF59985A9A5A9899
:1007F00061FD599A61FF59985A9A5A9860FD599A21
:1008000060FF59985A9A5D9A5A985998089560933A
:100810004601809304018093AD01862F880F860FD7
:10082000880F80930F010895809146018093010104
:100830008091AD0180930301089560910101809141
:100840000301E5CFCF93C82F692F81E0A4DF6C2F80
:1008500081E0A1DFCF910895682F80E09CCF8EEAE0
:10086000FBDF85EAF9CF8DE030D48AE02EC4FBDFD0
:100870001092AD0160E080E0CACFCF93DF93C0E07B
:1008800080E1EADF80E0E8DF8C2F806BE5DFD4E8F1
:1008900060E081E080DFD150D9F7CF5FC83081F7C9
:1008A000E6DFDF91CF9108955C985A9859985D984A
:1008B000549A529A519A559A39D45D9A559A5B989E
:1008C000539A84E13AD45C9A84E137D48EEAC4DF47
:1008D00082EEC2DF82EAC0DF80EABEDF80ECBCDFEE
:1008E0008FE2BADF84E2B8DF81E8B6DF8DE393E020
:1008F0000E941F3A8F73B0DF80E4AEDF84EAACDF82
:1009000086EAAADFBADF8FEAA7DF60E080E07FCF68
:10091000AADF60E081E07BCFA6DF60E082E077CFF6
:10092000A2DF60E083E073CF0895582F28E030E025
:1009300090E841E080E0642F652309F0892B440FA3
:1009400096952150310921153105A9F70895A0E0A8
:10095000B0E0EDEAF4E00C948A39EC01C02ED12C21
:10096000C601860F911D813891050CF06BC0F12CEA
:10097000E40EF11C81E4E816F1040CF063C0142FBE
:1009800016951695169581E0E81AF10833E0F5946E
:10099000E7943A95E1F7822F8270582E21FF0DC01F
:1009A000F701FF27E11BF109EC9DC001ED9D900DC2
:1009B000FC9D900D1124C80FD91F87E08E1510F4EF
:1009C00097E0E92EF62EF2948FE0F8228F2D8061C9
:1009D000F82E6F70462E2170322E460181E0881A63
:1009E0009108E11650F1812F806B36DF8F2D34DFB7
:1009F000842D32DFA12CB12C3E01680C791CA0168D
:100A000098F4332021F0F301EA19FB0903C0FE0139
:100A1000EA0DFB1D8491511088DF682F81E0BBDE59
:100A20008FEFA81AB80AEBCF552019F0CC19DD09C1
:100A300002C0CC0DDD1D1F5FD4CF809104018F70EB
:100A4000806B0ADFCDB7DEB7E1E10C94A639EF92F7
:100A50000F93282F8F7030E6839FC001112481539C
:100A60009E4F322F307324FF02C028E001C028E4DB
:100A700020931001303218F01092000108C020E2DB
:100A800020930001209110012D5E2093100140E27F
:100A9000E42E08E120E0409100016091100157DF51
:100AA0000F91EF900895EF920F93262FFC01649120
:100AB00031964491FC0132960491FC013396E49006
:100AC00050910001450F50911001650F04963FDFD2
:100AD0000F91EF90089560E0E6CFEF920F93CF93E0
:100AE000C82F809146018F5F809346014091040199
:100AF000440F440F440F26E0C29FC001112458E068
:100B0000E52E06E020E060910F0181599B4F1FDF29
:100B100080910F018A5F80930F014C2F50E0FA0102
:100B20003197EA30F105E0F4EC5CFF4F0C94C039EA
:100B30008EE305C08CE7C9D28CE313C08CE7C5D225
:100B40008CE70FC082E50DC08DE20BC085E709C0C0
:100B50008FE4BBD288E6B9D28DE603C08CE401C035
:100B60008C2FB3D2CF910F91EF9008958F5CB5CFBA
:100B700080E2B3CFA1E0B0E0E0ECF5E00C9499396D
:100B800018162CF48983F4DF89818150F9CF2196DE
:100B9000E2E00C94B5399091460185E1891BEACFDA
:100BA000A1E0B0E0E6EDF5E00C9499398983F3DF3C
:100BB0005ADE9091AD019F5F9093AD01898198308D
:100BC00038F097E09093AD0191E09093490102C015
:100BD00010924901682F8091AD0119DE2196E2E063
:100BE0000C94B539DDDFEDC342DED5DF40CE90DEBB
:100BF000D2DF8ECE8DE371CFCF93DF93EC0189915D
:100C0000882311F06ADFFBCFDF91CF910895CF9356
:100C1000DF93EC01FE018491982F9F7719F05DDF3F
:100C20002196F8CFDF91CF910895CF93DF93EC0118
:100C3000CE010E941F3A982F9F7719F04EDF219620
:100C4000F7CFDF91CF910895EF920F93FC010491BC
:100C50003196E49002967BDE0F91EF9008950F930A
:100C60008FE991E0E2DF409191014D3F64F46091A2
:100C70007F0170918001809181019091820103E058
:100C800026E4E6D002C08FE328DF0F91089597FF96
:100C900009C08F939F938DE220DF9F918F91909554
:100CA00081959F4F6CE271E04AE050E00E940B3A60
:100CB000A3CFEDDF01C0EBDF5BCFEF92FF920F938D
:100CC0001F93182F062FF42E81E891E0AEDFEE245B
:100CD000E0914701F09148018685E81611F4812FD3
:100CE00009C08485E81611F4802F04C08585E816B4
:100CF00011F48F2DF2DEE3948E2D833049F71F918E
:100D00000F91FF90EF900895EF92FF920F931F9332
:100D1000182F062FF42E80E065DF87E891E085DF4D
:100D2000EE248E2D23DF66DFE0914701F09148012C
:100D30008685E81611F4812F09C08485E81611F420
:100D4000802F04C08585E81611F48F2DC6DE10DFD4
:100D5000E3948E2D833029F71F910F91FF90EF9030
:100D60000895682F80E092E0662309F491E06230F4
:100D700009F481E008950F93082FEEEAF1E0880F5F
:100D8000880FE80FF11D6081718182819381643643
:100D900071058105910570F42091020127FD0AC0BB
:100DA000802FDFDF692F0E94C1206EEF23E044E037
:100DB0003ED104C04FEF04E024E04AD0D9DE0F91C9
:100DC0000895863058F4E1EAF1E0E80FF11DE80FEC
:100DD000F11D8081918163E035D1CACE08951F93C2
:100DE000182F80917A01882319F0C2DE80E075DE29
:100DF0008FDD88E791E019DF812F82958F70E1DF29
:100E0000812F8F70DEDF1F910895CF93DF93809144
:100E1000110182958F70C5E9D1E0C80FD11D88817D
:100E2000A5DE80E491E001DF8E81A0DE80E491E028
:100E3000FCDEC5E9D1E0809111018370C80FD11D9E
:100E40008E8194DE80911101CADFDF91CF910895E8
:100E5000AEE0B0E0EEE2F7E00C948939342E222EB9
:100E60006B017C01102F1F7080E389838A838B8341
:100E70008C838D838E83F7FE0BC08DE22EDEF09483
:100E8000E094D094C094C11CD11CE11CF11C04C09E
:100E900005FF02C08BE221DE133009F4B6C0143026
:100EA00009F4BAC0153051F0163081F01730B1F0A6
:100EB00074E6872E912CA12CB12C17C060EA862EE7
:100EC00066E8962EAA24A394B12C0FC050E4852E78
:100ED00052E4952E5FE0A52EB12C07C040E8842E89
:100EE00046E9942E48E9A42EB12C3AE0432E512C29
:100EF000612C712CC814D904EA04FB0470F0C701FA
:100F0000B6016B5F7F4F8F4F9F4FA30192010E94ED
:100F1000ED3869017A013394EDCF81E1830D9BEACD
:100F2000899F812C1124869486E08319899F912CB6
:100F300011249694992D990F990D982E991A5E0166
:100F400087E0A80EB11C2AE030E0A501C701B60178
:100F50000E94E839F50101900020E9F7CF010197DF
:100F60007C01EA18FB08AE2C6701DD24892D90E096
:100F700004968C159D051CF4839493E0990E882D9E
:100F800090E08B5C9F4F0E941F3AB82E04FF04C074
:100F9000A11610F41E1901C010E0AE2CA918A10E64
:100FA0001A1424F08EE299DD192D1E19911002C039
:100FB00028EFA22E912C012F10E0C00ED11EEA2C9A
:100FC000FF24E7FCF094E92DF0E0EC15FD05A4F416
:100FD0003696E01BF10B81E090E08C0F9D1FE80F2F
:100FE000F91F80817ADD9394892D90E08E159F05FD
:100FF00051F78EE272DDE7CFBB2011F08B2D6DDD56
:10100000222089F0822D69DD0EC098EE892E93E0B2
:10101000992EA12CB12C69CF80E1882E87E2982EE1
:10102000A12CB12C62CF2E96E2E10C94A5390F933E
:10103000362FBC0180E090E0022F242F432F08DFE1
:101040000F9108950F93062FBC0180E090E026E5F4
:101050004DEFFEDE0F9108950F93042F28E440E03A
:10106000F7DE8AE73ADD84DD0F910895E82FF0E09E
:10107000EE0FFF1FE458FF4F8591949120910001DE
:10108000420F20911001620F20E0DECDCF93DF935D
:10109000C82FD62FE0914701F091480148E16EE159
:1010A0008685E4DFE0914701F09148014D2F6C2FD8
:1010B0008485DCDFE0914701F091480140E06EE17A
:1010C0008585D4DFDF91CF9108958F932F932AE008
:1010D00080953B9A089410F4439802C0439A00000C
:1010E00020D027D086952A95B1F72F918F9108951A
:1010F00003D002D001D000D000D003D002D001D064
:1011000000D000D003D002D001D000D000D0A895EC
:1011100003D002D001D000D000D003D002D001D043
:1011200000D000D003D002D001D000D000D003D036
:1011300002D001D000D00000089590E0893C28F052
:10114000885C48EC849FC0011124009709F408953D
:1011500020918100277019F0DADF0197F6CF8130F6
:10116000910519F002973EE303C037E180E090E07B
:101170002091B200230F2093B30042E0409370000F
:1011800027E023BF889526E023BF10927000A89522
:10119000DCCF8F9384E0D1DF07C08F9382E0CDDF77
:1011A00003C08F9381E0C9DF8F911F93182F1064C4
:1011B00010937C00E12FE07880913701E81759F017
:1011C000E0933701AEDF8EE980937A0083E083BF3E
:1011D000889582E083BF20E030E0A901E0E01FC0F5
:1011E0008EE980937A0083E083BF889582E083BF95
:1011F0006091780070917900260F371F411D511DB5
:10120000E43061F480913901803041F084E0203095
:10121000380720F417FD02C01068CACFEF5F809135
:101220003601E817E8F260913A0170913B0117FF2F
:1012300004C0609138017091390180E090E00E9413
:10124000AB382FEF33E040E050E00E94ED38B901B9
:10125000CA012091360130E040E050E00E94ED38B4
:10126000C9011F91089589B183FB882780F94999A5
:10127000826090911C01943050F09EE09093180190
:101280008093190110921D0191E090931C01E0914F
:101290001C01AE2FB0E0A85EBE4F9C91981721F1C3
:1012A00081111AC0A3E0AE0FA37020911D019230EE
:1012B00041F4B0E0A85EBE4F9C91933069F42F5F7B
:1012C00009C0913049F4B0E0A85EBE4F9C919330C4
:1012D00019F4215020931D01EF5FE370E0931C018E
:1012E000F0E0E85EFE4F808380911D0187FD8195CF
:1012F00080931E010895A0E0B0E0E1E8F9E00C94CD
:101300009239D82EC92E5398519806DF10921D019C
:10131000E0911C01F0E03196E370FF27E85EFE4F9C
:1013200080EF8083C5E6D9E19EDF4F9905C0F8DEE6
:10133000D150D1F7C150B9F7CD2DDC2DF12C05E5F9
:1013400010E0BB24B394D7FD36C082E3E82E8BDFD8
:10135000E7DEEA94E1F7000F4F9B0F5F0F730F3347
:1013600049F4111103C0CD2DDC2D14E01F5F163997
:1013700028F021C0011102C011111DC0A8951C1632
:101380001D062CF42A97209711F4CFEFDFEF809100
:101390001E01882339F0F39480917B01811102C0F2
:1013A000B0927B0184E18F1570F680911D0181114F
:1013B00002C0F12CC8CF812FCDB7DEB7E9E00C9485
:1013C000AE39CF9331DAC82F80914901882301F1DA
:1013D000813051F4C73041F464E187E018DA8BE2E0
:1013E0007CDB64E187E013DA80E49FE184DF811134
:1013F00004C080911E018111F7CFC73041F4809164
:101400004901813021F460E087E001DAC4DB15DABC
:10141000CF91089586E693E00E941F3A382F87E621
:1014200093E00E941F3A20913E01230F30913F012B
:10143000381F209321013093220183E0283E380792
:1014400020F0C901885E934002C080E090E062E332
:1014500070E00E94C638683008F067E0EFE5F1E020
:10146000E60FF11DE60FF11D45915591259135913E
:1014700062E3681B421B530B649FC001659F900D84
:101480001124499662E370E00E94C638620F731F10
:1014900070937E0160937D0188E693E00E941F3A7D
:1014A000992787FD909560913E0170913F01860FCD
:1014B000971F90933901809338019093790180931D
:1014C00078010895CF93DF9324E130E0B9010E94C1
:1014D000C638DC01E1E7F1E0E60FF71FE60FF71F82
:1014E000C591D591459155914C1B4A9FC00111243E
:1014F000B9010E94C6386C0F7D1FCB01DF91CF91DF
:1015000008951895189510922501109223011092B4
:10151000730110925901109224011092450110920A
:101520007A0110925E0110925F0110926001109298
:101530008F0182E0809390011092020110928E013F
:1015400010928D01109283011092840110928501F6
:101550001092860181EF80939201089580D95E9860
:1015600080E090E0C8CEA1E0B0E0E9EBFAE00C94B6
:10157000973998E097B998B9E82FF0E0E75BFE4F0C
:10158000949195B9262F281BE20FF11D27FDFA959E
:10159000E491E92BE4B9698308DE8C016981862F27
:1015A00004DE20913A0130913B0136952795A9013F
:1015B00043505109B801625E7F4F4617570778F4D0
:1015C000255E3F4F0217130750F4BC01625E7F4F48
:1015D0004617570720F441E08217930708F040E0D0
:1015E00014B8842F2196E4E00C94B339CF9361E0D2
:1015F00080E0B9DFC82F62E080E0B5DFC80F62E0AD
:1016000081E0B1DF8C0FCF910895A3E1B0E0EBE072
:10161000FBE00C948939B82E10922501807FA9F443
:10162000E5DF833009F0B7C328D981E792E0FDDA1E
:101630006FD98FE352DA80ED97E05DDE8B30C0F436
:101640001CD98EE091E0F1DAA6C306E910E015D9C5
:1016500086ED91E0EADACADF833021F41F5F1430AF
:1016600010F006C010E088E268DD015081F763C029
:101670004FD90E94B71B8AEC90E0D7DA60E080E493
:1016800093E00E942C3A60E081E493E00E942C3ABF
:1016900060E08FE393E00E942C3A60E082E00E94D9
:1016A000C1206C019A83898361E082E00E94C1209D
:1016B0007C019C838B8360E081E00E94C1208C01CF
:1016C0009E838D8323E040E26EEFC601B0DC23E011
:1016D00040E26EEFC701ABDC23E044E06EEFC801EF
:1016E000A6DC2AE5C216D10424F024E130E03A83D6
:1016F0002983698180E493E00E942C3A8AE5E81608
:10170000F10424F024E130E03C832B836B8181E4FD
:1017100093E00E942C3A0A35110524F024E130E0D0
:101720003E832D836D818FE393E00E942C3A82E00B
:101730008093490146DE9B2D9F709F87913009F071
:101740004DC001E010E058EB252E52ED352E57E448
:10175000452E512C62E0962E78E0A72EECE06E2EFE
:10176000F4ECCF2EF6E3DF2EE12CF12C39C083947C
:1017700023E0281558F13BDA37DA84E5AED9C80101
:1017800091DAF6D9E1E0BE1230C08DEF90E04DDA8B
:1017900064E080913E0190913F0154DCB9D888EF1C
:1017A00090E043DA80917D0190917E017BDA8EEBAF
:1017B00080933601A7B8A8B814B815B888EE93E09E
:1017C0009ADDF4E0BF1699F28B3088F288EE93E050
:1017D00092DD0F5F1F4F0830110511F418E71CC18F
:1017E000812CB02EB0E27B2EC6CFF2E0BF1241C0FA
:1017F00020913A0130913B01A8E5BBE10E94863877
:10180000A70196010E940F3981E085B985E084B96E
:1018100080E0288B398B4A8B5B8BBBDC288939892C
:101820004A895B89821B930B9A83898381E184B9FE
:1018300080E0288B398B4A8B5B8BABDC288939891C
:101840004A895B89821B930B9C838B8384E085B9D7
:1018500084E184B981E0288B398B4A8B5B8B99DCDE
:1018600028893989821B930B9E838D8382EE90E0B9
:10187000B7C093E0B91229C095B8EAE0E4B980E0B6
:1018800088DC20913A0130913B01369527953887C5
:101890002F83821B930B9A838983F2E2F4B980E051
:1018A00078DC2F813885821B930B9C838B83A5B8B2
:1018B00028E224B981E06DDC2F813885821B930BEF
:1018C0009E838D8384ED90E08BC084E0B81207C0C6
:1018D00081E692E0AAD98ADE81115AC287C095E0DA
:1018E000B91213C015B894B880E053DC9A83898389
:1018F000A4B881E04EDC9C838B8374B882E049DC21
:101900009E838D8384EF90E06BC0E6E0BE1227C01B
:1019100094B895B880E03DDC20913A0130913B01CC
:10192000821B930B9A838983A4B8A5B881E031DC2C
:1019300020913A0130913B01821B930B9C838B8356
:1019400074B875B882E025DC20913A0130913B01F2
:10195000821B930B9E838D8380EF90E041C0F7E064
:10196000BF1240C020913A0130913B01A8E5BBE194
:101970000E948638A20191010E94ED3895B883E05B
:1019800084B980E0288B398B4A8B5B8B02DC2889F9
:1019900039894A895B89821B930B9A838983A5B80D
:1019A00064B881E0288B398B4A8B5B8BF2DB28890A
:1019B00039894A895B89821B930B9C838B8375B819
:1019C00090E394B982E0288B398B4A8B5B8BE1DB07
:1019D00028893989821B930B9E838D838EEC90E03E
:1019E00024D904C0E1E0BE1609F4E4CE0E948804C4
:1019F00089819A814CD9BCD88B819C8148D9B8D82F
:101A00008D819E8144D9D6CEF2D881E692E00DD95F
:101A100084E693DB115019F0E9DD8111F5CF0E94C6
:101A20003D0483EC90E001D923E044E06FEF809126
:101A30003C0190913D01FBDA0E9488048CEB90E020
:101A4000F4D823E044E06FEF80914301909144018A
:101A5000EEDA82E080934901B4DC109225010E9405
:101A60003D0488EB90E0E1D860E082E00E945D18E0
:101A70008090870190908801A0908901B0908A01A0
:101A80009C868B8661E082E00E945D18C090870191
:101A9000D0908801E0908901F0908A01DE86CD86A1
:101AA00060E081E00E945D1800918701109188013B
:101AB0001E830D8362E080E00E945D1880918701A3
:101AC000909188019C838B8362E081E00E945D1885
:101AD00080918701909188019A87898761E080E0F1
:101AE0000E945D1880918701909188019A83898373
:101AF000EF85E13021F020914201223021F402965D
:101B000098878F8304C098878F8310924201C40105
:101B1000D2D8C601D0D8B801882777FD8095982FF4
:101B200003E026E444EF94D96E01FFE0CF0ED11C10
:101B3000FE013196819191910A97853B9105E8F4D8
:101B4000EC15FD05B9F7AFE5EA2EA3E0FA2E8E01FC
:101B50000F5F1F4FF80160810E5F1F4F6E5EC70160
:101B60000E942C3AFFEFEF1AFF0A0C151D0591F7A2
:101B70000E94880484EC91E058D882E08093490167
:101B800020DC0E94082F2F85213029F0809142010E
:101B9000823009F0E5C0E0E4BE2E10E0FAE0CF2E7E
:101BA000D12CE12CF12CAFDC0E943D0480E00E949E
:101BB000B6058AE691E039D882E00E94B6058DE24A
:101BC00090E033D81092250160E082E00E945D1819
:101BD0000091910160917F0170918001809181015C
:101BE00090918201073F44F4A70196010E94ED38CD
:101BF0000F5FB901CA01F6CF0093910160937F0195
:101C0000709380018093810190938201073F09F0D6
:101C100092C0DC01CB0180569109A109B10980393C
:101C20009545A105B10508F086C0609193017091BA
:101C30009401CB018B569F4F8B32914008F07BC0B3
:101C40001F5F153008F478C086E693E00E943A3AA8
:101C50000E943D0486E290E00E9415068091930167
:101C60009091940114D8D6DB88E088B989E087B9CF
:101C700080E284B982E099DA853D9340DCF714B8BC
:101C8000109239011092380182E08FDA8C01809134
:101C9000780190917901909339018093380182E025
:101CA00084DA7C01EE0CFF1C10923901109238018D
:101CB00082E07BDAC0907801D0907901D09239012E
:101CC000C0923801080F191F0E191F090E948804BD
:101CD0008FE190E00E94150688E693E00E941F3A8B
:101CE00073E0B72EB80E9601D8010E94953897017F
:101CF000442737FD4095542F0E940F39B20E6B2DAB
:101D000088E693E00E942C3A8B2D992787FD9095C9
:101D10000E9447067FDB82E08093490152DB1092EC
:101D200042018FE593E00E941F3A682F82E693E01C
:101D30000E942C3A15C010E00E94880460917F0137
:101D400070918001809181019091820104E026E4EC
:101D5000409191017DD888E2F0D9BA9409F023CF5F
:101D600087E3809336010E9404320E943D048EE096
:101D700091E00E9415060E94880488E592E00E9486
:101D800015061092250182E0809349011ADB03C0F9
:101D900052E0852E2BCE6396E2E10C94A53980911A
:101DA000420181110DC08FE593E00E941F3A61E06E
:101DB000680F82E693E00E942C3A81E08093420112
:101DC0000895CF92DF92FF920F931F93CF93DF93EB
:101DD0001F92CDB7DEB7E82FF0E0E45BFE4FE49151
:101DE000E8B9E860E7B915B8E62FF0E0E75BFE4F29
:101DF000E491E4B908E813E1FE2EFF0C862F698315
:101E0000C8D96C01F4B869818017910710F48C016E
:101E1000F5CF0097E9F00E9490048AE491E00E94D7
:101E20001506D60120EA36E841E050E00E949B38D2
:101E300028E937EB40E050E00E94ED38DA01C901B3
:101E400022E041E467EFF3D888E087B988B914B895
:101E50000F90DF91CF911F910F91FF90DF90CF9066
:101E600008950F931F93CF93DF9385E09ED985E06C
:101E700098D9EC018C01000F111F000F111F109257
:101E80004001C8018255934081319E4050F088EB5B
:101E900091E00E9415060E94CB0581E080934001ED
:101EA00024C087EC91E00E94150662E0C801C2964A
:101EB000C9D80E94B805C23A83E0D80780F4C9386F
:101EC000D34050F48CEC92E00E9415060E94CB05A2
:101ED0008DEC33D943DB09C083ED92E002C084EC82
:101EE00091E00E9415060E94CB05DF91CF911F91D2
:101EF0000F910895A7E1B0E0E0E8FFE00C94893984
:101F0000982E862E4983A895E62FF0E0E75BFE4FDA
:101F100024912E8733963491398BE42FF0E0E75BE0
:101F2000FE4F6490162D110FE82FF0E0E75BFE4F97
:101F30007490339644914A8748604B873860432EAB
:101F400065B8522E562854B847B95A8558B9862FC5
:101F500028D999878887812F862985B96E85612B35
:101F60006C8364B9882D1DD95C017E8574B9882D78
:101F700018D91C0114B8CBD815B854B8882D11D96C
:101F8000A885B9858A179B0730F5805E9E4FA817F4
:101F9000B90708F4E0C447B888E088B975B8872D58
:101FA000862984B9E0913A01F0913B01F987E887ED
:101FB000892DF7D828853985281B390B398728873B
:101FC00074B8A0903A01B0903B01892DEAD8A81AC4
:101FD000B90A150108C028853985205E3E4F821751
:101FE000930708F4B8C4209159018091730190E0DF
:101FF000820F911D02974CF0213009F0ACC49091F2
:102000005601809170019813A6C4488559854437BC
:10201000510508F4A5C0CA01880F991F44962816D7
:10202000390608F09DC05B8557B96A8568B97C811F
:1020300074B9882DB2D87C018981B7D86C0115B9E3
:10204000882DABD89701295A3D4F172928173907F2
:10205000D0F588E088B947B814B915B989819DD8F9
:1020600088349F4028F085E08093250182E204C0F7
:1020700085E08093250184E280932401F0924F0152
:10208000E0924E01CE14DF0440F4C7018C199D0983
:10209000909355018093540104C010925501109201
:1020A00054019701A0E1B7E20E94863820911F01F8
:1020B0003091200140E050E00E94ED383093510112
:1020C000209350013FC488E088B947B814B915B9C6
:1020D000892D63D88C01898168D87C0175B8892DD8
:1020E0005CD8895A9D4F8017910708F034C4BA858F
:1020F000B8B9EB85E7B9898150D8813D934028F480
:1021000085E08093250182E304C085E0809325016A
:1021100084E3809324010E151F0538F4E01AF10AB8
:10212000F0926F01E0926E0104C010926F01109264
:102130006E0120913A0130913B01201B310BA0E14F
:10214000B7E20E948638209126013091270140E0B5
:1021500050E00E94ED3830936B0120936A01C7C1B3
:1021600088E088B947B875B8072D062904B9892DC4
:1021700018D89D878C87E0903A01F0903B018981C7
:1021800014D89F838E830A9778F514B881E00E9453
:102190009D08812F872984B9892D03D89D878C8735
:1021A00020913A0130913B01281B390B3B832A8354
:1021B00089810E94D5089F838E838091260190910A
:1021C00027019C0140E050E060E871EA83E09CE177
:1021D0000E94ED38AA81BB810E949B38AE81BF81ED
:1021E0009D0140E050E015C0F7012C853D85E21BC4
:1021F000F30BFB83EA839F014E815F81241B350B28
:10220000A4E6B0E00E9486386A01E12CF12CA70117
:1022100096010E94ED3869017A0114B815B85A8503
:1022200058B96B8567B981E00E949D0879EBA716C4
:1022300077E0B70608F08FC354B8882D0E94D10804
:102240008F359D4008F459C114B881E00E949D0863
:1022500054B881E00E949D08BC81B4B9882D0E94C9
:10226000D1085C0189810E94D508988B8F87892DC0
:102270000E94D5089F8B8E8BEF85F889E13DF74052
:1022800008F4C2C015B9882D0E94CD08811594406C
:1022900078F08AE0809325018E899F894F8558893F
:1022A000841B950B909369018093680121E016C40B
:1022B00084E0809325018DE08093240185012A1418
:1022C0003B0410F40219130940901F0150902001A3
:1022D000612C712C60E871EA83E09CE1A30192011A
:1022E0000E94ED38D8010E949B38AF85B8898D01D6
:1022F00020E030E0A90198010E94ED38809173013F
:10230000882369F08091640190916501A091660134
:10231000B091670182179307A407B50708F52093CA
:102320006401309365014093660150936701950104
:10233000A0E1B7E20E948638A30192010E94ED3825
:1023400030936B0120936A018E899F89EF85F8890C
:102350008E1B9F0B909369018093680121E001C05F
:1023600020E08091640190916501A0916601B09197
:1023700067018C159D05AE05BF0538F5C092640157
:10238000D0926501E0926601F09267018C859D858F
:102390002E813F81821B930B90936901809368018A
:1023A0002A813B81A0E1B7E20E9486382091260174
:1023B0003091270140E050E00E94ED38205F384D19
:1023C00030936B0120936A0103C0222309F486C372
:1023D0009101A0E1B7E20E948638A30192010E9418
:1023E000ED3830936D0120936C0128853985A0E18B
:1023F000B7E20E948638A30192010E94ED38309323
:102400006F0120936E0152CF31E62316310408F09C
:1024100074C041EDA41647E0B40608F46EC085E030
:102420008093250182E180932401C50186509F4F4E
:102430006E897F898617970720F483E180932401B2
:102440001CC08E899F89A816B90698F4A0911F0117
:10245000B09120019C012A193B090E948638950100
:1024600040E050E00E94ED3830936901209368010C
:1024700004C010926901109268010989077089816E
:10248000806480937C001BE0CC24C394D12CEE2488
:10249000EA94A3E0FA2EA89561E0862D2BD59C81C5
:1024A00094B986B18023E9F3AE85A4B980917A000E
:1024B000806480937A0080917A0086FDFCCF8091C1
:1024C000780090917900F701E81BF90BCE0EDF1E22
:1024D000115009F7C601880F991F880F991F69E0ED
:1024E00070E00E94C63870936F0160936E01809116
:1024F00073018F5F80937301D9CE54B865B8882D6E
:102500000E94D1089B838A8389810E94D5089F837A
:102510008E8340913A0150913B01481B590B4A3040
:10252000510558F514B881E00E949D08FC81F4B96A
:1025300015B9882D0E94D1089B838A8389810E94C6
:10254000D5089F838E8380911F01909120019C016B
:1025500040E050E060E871EA83E09CE10E94ED38E1
:10256000AA81BB810E949B3820913A0130913B01A6
:102570004E815F81241B350B09C02A813B81241BBE
:10258000350BA4E6B0E00E9486389A0140E050E0A6
:102590000E94ED3869017A0147B888E088B904B92A
:1025A00005B9892D0E94D1085C0189810E94D50856
:1025B0009D838C83882D0E94D5089C0150E3A5162D
:1025C00051E1B50608F0C4C175B8892D2C8B3D8B3F
:1025D0000E94D108AC0174B8892D4A8B5B8B0E9494
:1025E000D1089D878C8715B881E00E949D0875B839
:1025F000892D0E94D1082C893D894A895B896C8587
:102600007D856034764008F057C08133914108F4ED
:1026100053C0C5018A569F4F4817590708F04CC050
:1026200086E080932501809159018F5F8093590145
:102630008C819D81821B930B90934F0180934E015F
:10264000A21AB30AB0925501A092540114B815B859
:10265000E989E8B981E00E949D0874B8892D0E943B
:10266000D108853F910508F048C204B989810E94CC
:10267000D108813D934008F440C2892D0E94D508BD
:102680008D3D924008F439C274B8892D0E94D1085A
:102690008D3D924008F431C275B881E00E949D08DA
:1026A00015B8892D0E94D108853F910508F025C2F3
:1026B00087E08093250121C204B905B981E00E9419
:1026C0009D08512E572854B855B8892D0E94D1081D
:1026D0005C0140913A0150913B01481B590B588BCA
:1026E0004F8789810E94D5089D878C8760913A0128
:1026F00070913B01681B790B7D836C83882D0E9450
:10270000D5088C018C819D818E3F994008F4B1C021
:1027100084E0809325018CE080932401EF85F88983
:102720002E163F0620F45F01A218B30802C0AF8442
:10273000B8884090260150902701612C712C60E8E8
:1027400071EA83E09CE1A30192010E94ED38D5017A
:102750000E949B38AC81BD819D0140E050E00E9409
:10276000ED3880915901882369F080914A01909158
:102770004B01A0914C01B0914D0182179307A40722
:10278000B50700F520934A0130934B0140934C016B
:1027900050934D018C859D85801B910B90934F012B
:1027A00080934E012F853889A0E1B7E20E948638D8
:1027B000A30192010E94ED38309351012093500102
:1027C00021E001C020E080914A0190914B01A0914D
:1027D0004C01B0914D018C159D05AE05BF0530F53E
:1027E000C0924A01D0924B01E0924C01F0924D010F
:1027F0008E819F81EA81FB818E1B9F0B90934F01FD
:1028000080934E019F01A0E1B7E20E94863820919B
:102810001F013091200140E050E00E94ED38205F20
:10282000384D309351012093500103C0222309F405
:1028300065C19101A0E1B7E20E94863820911F0195
:102840003091200140E050E00E94ED383093530178
:102850002093520128853985A0E1B7E20E9486388D
:10286000A30192010E94ED38309355012093540149
:1028700044C1F1E62F16310408F06AC02F8538896B
:1028800029343D4008F464C085E08093250182E04E
:1028900080932401C80186509F4F8A159B0520F420
:1028A00083E0809324011CC00A151B05A8F4A091A5
:1028B0002601B09127019501201B310B0E9486381B
:1028C000AF85B8899D0140E050E00E94ED3830931B
:1028D0004F0120934E0104C010924F0110924E01FF
:1028E0000A8507708981806480937C001BE0EE2458
:1028F000E394F12CA89560E0862DFCD254B855B82D
:1029000086B18023E9F774B880917A00806480935F
:102910007A0080917A0086FDFCCF809178009091BA
:102920007900E80EF91E115029F7C701880F991F89
:10293000880F991F69E070E00E94C63870935501B6
:1029400060935401809159018F5F80935901D5C0E4
:1029500088E087B988B914B815B888E087B9B7ECAA
:102960002B16B1E03B0608F4ADC088B918EC0B8516
:10297000042907B981E00E949D0847B8892D0E946B
:10298000D508429710F01150A1F75E84550C372CF2
:10299000330C34B835B861E0862DACD2892D0E9455
:1029A000D1089B838A8354B815B8EB85E7B9FA85BB
:1029B000F8B960E0862D9ED2E0903A01F0903B019C
:1029C000882D0E94D1088C012E8524B9892D0E9462
:1029D000D1086C01882D0E94D508C81AD90A88E050
:1029E00088B947B874B875B861E0862D83D2892D4F
:1029F0000E94D1085C01882D0E94D508A81AB90A46
:102A0000CA14DB0438F434B835B8892D0E94D108D3
:102A1000650119C0A701401B510B5B834A8354B861
:102A200015B85B8557B96A8568B960E0862D62D2B2
:102A300000913A0110913B01882D0E94D108D801E4
:102A4000A81BB90BCD01960127593109293831410D
:102A5000C8F58C159D05B0F58A819B8153E096954C
:102A600087955A95E1F7893C910510F088EC90E044
:102A70002A813B81820F931F8C159D0518F5C60195
:102A800044E0969587954A95E1F782179307D0F42D
:102A900080912501833018F483E080932501809193
:102AA0002301E82FF0E0DF01AB56BE4F9C92169653
:102AB0008C92EE0FFF1FEF55FE4FD182C0828F5FC9
:102AC00080932301682D892D28D088E087B988B9A3
:102AD00014B815B86796E2E10C94A539809173019A
:102AE0008F5F80937301222381F3398130937001CA
:102AF0008092710190927201E8CF21E0809159019A
:102B00008F5F80935901222301F34981409356013D
:102B10009092570180925801D8CFA0E0B0E0E3E94D
:102B2000F5E10C948B39982E862EA895E62FF0E0CF
:102B3000E75BFE4F549033962491E82FF0E0E75B7B
:102B4000FE4FE4903396F4903091730180915901D7
:102B500090E0830F911D892B09F0C7C1A895809142
:102B6000290190912A01880F991F880F991F90932E
:102B70003B0180933A018091780190917901880F0F
:102B8000991F880F991F90933901809338018EEB1C
:102B90008093360188E088B9286027B9E4B8E5B8A1
:102BA00058E1D52EC0E0D0E0882D0E94D108782EC3
:102BB000692E892D0E94D5088C018C1B9D0B97FFD7
:102BC00003C091958195910903972CF0A895DA940B
:102BD000E1F1E801E9CFEE0C15B8E4B8892D0E94C7
:102BE000D1088135910588F5E5B8892D0E94D10875
:102BF000EC018F2D886087B9F8B815B854B888E112
:102C0000482EC12CD12C892D0E94D108B82EA92E76
:102C1000882D0E94D5087C019C012C193D0937FFA5
:102C200003C03195219531092330310514F5550C38
:102C300054B8882D0E94D1086C01003C94E4190717
:102C4000E8F4C53881E0D807E8F080912901909137
:102C50002A0190933B0180933A01809178019091F1
:102C60007901909339018093380187E3809336018D
:102C70003CC1A8954A9449F36701C5CFC03B9DE488
:102C8000D90718F784EAE81682E0F80608F063C06E
:102C900098E9C916D104C8F200913A0110913B019C
:102CA0009E01A8E9B7EB0E94863898012C1B3D0BCA
:102CB00040E050E00E94ED3829013A0198012C19BA
:102CC0003D09A8E9B7EB0E948638860120E030E094
:102CD000A90198010E94ED38C837DF4070F4C301A4
:102CE000B201B2E0660F771F881F991FBA95D1F71E
:102CF000620F731F841F951F12C098E7C9169FE0CB
:102D0000D906A0F4CA01B901A2E0660F771F881F97
:102D1000991FAA95D1F7640D751D861D971D25E095
:102D200030E040E050E00E94ED3808C0240D351D31
:102D3000461D571D5695479537952795A4E6B0E053
:102D40000E949B386B017C018CEAC80E8DE0D81E76
:102D5000E11CF11C73C0272D362D0217130708F450
:102D60009801CB2DDA2DCE15DF0508F4E7015901C6
:102D70002017310708F45801A0912601B0912701CE
:102D8000C501821B930B9C010E94863820913A0159
:102D900030913B012A193B0940E050E00E94ED3898
:102DA00029013A018E01EC16FD0608F48701A09175
:102DB0001F01B09120019E01201B310B0E9486381B
:102DC0006801E12CF12CA70196010E94ED3898E7EB
:102DD000A9169FE0B90670F4C301B201E2E0660FE4
:102DE000771F881F991FEA95D1F7620F731F841F01
:102DF000951F11C008378FE01807B0F4CA01B90158
:102E000052E0660F771F881F991F5A95D1F7640DFE
:102E1000751D861D971D25E030E040E050E00E94C2
:102E2000ED3869017A010AC069017A01C40CD51C28
:102E3000E61CF71CF694E794D794C79410912501EB
:102E4000143008F002CF9A94980C892D90E0EC0190
:102E5000C25ADE4F2881880F991F880F991FFC01E5
:102E6000E255FE4F2223D1F1408051806280738071
:102E7000A7019601241935094609570957FF07C0CC
:102E800050954095309521953F4F4F4F5F4FAAE0A9
:102E9000B0E00E949B38A30192012C593F4F4F4F45
:102EA0005F4F2C0D3D1D4E1D5F1D0E94ED38232BE5
:102EB000242B252B09F0C9CE133019F081E0809323
:102EC000250182E0888380917A01E82FF0E0EF59B4
:102ED000FE4F90828F5F80937A01B7CEC082D182FD
:102EE000E282F38281E08883B0CECDB7DEB7E0E145
:102EF0000C94A739CF93C82FC09595B160FF02C03D
:102F0000982B01C09C2395B994B1982B94B982E079
:102F10000E949D0884B18C2384B985B18C2385B926
:102F2000CF910895A0E0B0E0E8E9F7E10C94913981
:102F30008AE0D82E98E0C92E2FE3A22E39E0B32ED6
:102F4000C7B8C8B815B8A4B880E00E94D1088C01F1
:102F500081E00E94D508EC0182E00E94D508209112
:102F60002501293081F428E027B914B8109306010F
:102F700000930501D0930801C093070190930A01C3
:102F80008093090155C00430110540F4C430D105C7
:102F900050F48430910538F329E009C0083E13400D
:102FA00010F028E001C029E0C83ED34008F42260B8
:102FB000883E934008F4246027B9C0E0D0E0A8958B
:102FC00080E00E94C9087C0181E00E94D5088C0144
:102FD00082E00E94D50824E1E21625E0F20608F41A
:102FE000389A043135E0130708F4399A843125E022
:102FF000920708F43A9A36E0E316F10428F4063012
:10300000110510F4069738F02196C43F81E0D807E7
:10301000B1F6B092250100E010E00C171D0729F071
:103020000E948C080F5F1F4FF8CFDA9409F088CF09
:10303000CDB7DEB7EAE00C94AD39CF92DF92EF92D4
:10304000FF92CF9320917F013091800140918101C7
:1030500050918201C09191018AE0C82ED12CE12CBF
:10306000F12C8C2FCF5F213A96E8390791E0490780
:10307000510538F0CA01B901A70196010E94ED3847
:10308000F0CF80939101A0913A01B0913B010E9451
:103090009B3828E833E140E050E00E94ED3820936F
:1030A0007F01309380014093810150938201CF9141
:1030B000FF90EF90DF90CF900895A4E0B0E0E3E6BA
:1030C000F8E10C948F39982E862E8FEF860F992D6C
:1030D000990F990D890F80935B01E92DF0E0E75B73
:1030E000FE4F1491862F90E0FC01E75BFE4FF490B9
:1030F000FC01E45BFE4F049180912501813009F4CD
:10310000ABC2809123012BE931E061EA71E0D90182
:103110009A2F921B9817A0F49D9198110EC0AD01A3
:1031200047505109FA019081991107C0FB01408174
:1031300051814C3D554008F48FC26E5F7F4FE8CF00
:10314000086010928C0110928B0181EF80939101A5
:1031500010927F01109280011092810110928201E1
:10316000E1DE88E088B907B9F4B8F5B8892D0E9486
:10317000D5087C01882D0E94D508E81AF90A14B8F0
:1031800010925D0110925C01C12CD12C20915C0148
:1031900030915D01243F314050F515B914B90E94BA
:1031A000860814B815B80E948D08A895892D0E942C
:1031B000D5086C01CE18DF0820915C0130915D01CB
:1031C0002E37310528F02BE4C216D1040CF43FC28F
:1031D0008DE2C81681E0D80684F480915C0190915C
:1031E0005D01019690935D0180935C01CFCFEDE28C
:1031F000CE16E1E0DE060CF42AC220915C0130918B
:103200005D01232B21F0C60100E010E006C0F5E1CE
:10321000CF16F5E0DF06BCF385C020915C0130914C
:103220005D012017310758F00E948708892D0E9400
:10323000D5088E199F09A8950F5F1F4FEECF860105
:10324000081B190B1016110694F4093C11050CF01B
:10325000FEC128EE33E0D8010E949538960144273C
:1032600037FD4095542F0E94ED38790102C0E12CC2
:10327000F12CA0905C01B0905D012FEFA21AB20A70
:10328000C501A0E0B0E08093870190938801A093EE
:103290008901B0938A01C601800F911F29D29C0138
:1032A000D5010E94863860938701709388018093CE
:1032B000890190938A0160937F01709380018093CC
:1032C00081019093820187EF80939101B6DE209176
:1032D0007F0130918001409181015091820182E40F
:1032E00093E029833A834B835C830E941F3AA8EEC4
:1032F000B3E0A81BB10987FDB39529813A814B81C1
:103300005C810E94A53824E630E040E050E00E9455
:10331000ED3820937F0130938001409381015093D9
:10332000820153C1FFDD15B88FE087B988E088B905
:10333000F12EFF0CF4B880E480937B0084E580BF1D
:10334000892D806480937C0086E180937A000E94BE
:10335000900810925D0110925C0110928000109212
:1033600085001092840087E286BB81E280936F0023
:1033700091E090937C01F5B88091250190938100B4
:10338000853059F481E090E0092C01C0880F0A943F
:10339000EAF780958F7087B901C007B9F89483B7B1
:1033A000817F83BF80917C01882389F083B781600E
:1033B00083BF7894889583B78E7F83BFF894A89550
:1033C00080915C0190915D018034964059F778942A
:1033D00010928100E0908600F090870010926F00BC
:1033E00086E980937A0014B815B8892D0E94D50813
:1033F00020913E0130913F01821B930B0C969093DC
:1034000094018093930180915C0190915D018032E1
:10341000934008F01CC180915C0190915D019093F4
:103420008A0180938901F0928801E092870184EFFC
:103430008093910180915C0190915D0182349105AE
:10344000C8F0609187017091880180918901909105
:103450008A0124E630E040E050E00E94ED382093FD
:103460008701309388014093890150938A0186EF48
:1034700080939101A0917D01B0917E0120918701FF
:10348000309188014091890150918A010E949B38B6
:1034900020E233E040E050E00E94ED3820938701C5
:1034A000309388014093890150938A0120937F01D2
:1034B000309380014093810150938201BEDD809161
:1034C0009101843F09F071C0C0907F01D0908001CC
:1034D000E0908101F090820120EAC2162FE0D2062E
:1034E000E104F104C0F4A70196012C543F4F4F4F63
:1034F0005F4F60EA7FE080E090E00E94ED382C0DA5
:103500003D1D4E1D5F1D20937F0130938001409330
:10351000810150938201C0907F01D0908001E090A2
:103520008101F0908201C114D10481E0E806F10428
:1035300028F4D092BF01C092BE0106C081E090E0A5
:103540009093BF018093BE0180915B0190E0815A0E
:103550009C4F0E941F3A482F50E060E070E04C15ED
:103560005D056E057F0568F4C41AD50AE60AF70AF8
:10357000C0927F01D0928001E0928101F09282019D
:1035800014C094E1C90ED11CE11CF11CC416D5066F
:10359000E606F70610F40E94CF0E10927F011092FB
:1035A0008001109281011092820114B980917F01F3
:1035B00090918001A0918101B09182014997A1056C
:1035C000B10508F444C0E12CF12C8091230188233B
:1035D00021F0809125018530D1F588E08093250187
:1035E00020919101809192018217BCF028132FC085
:1035F00040917F0150918001609181017091820121
:103600008091830190918401A0918501B091860100
:1036100084179507A607B707D0F480917F01909192
:103620008001A0918101B0918201809383019093E8
:103630008401A0938501B093860120939201F092BA
:103640008E01E0928D0180928F019092900188E02E
:1036500087B988B914B815B82496ECE00C94AB3946
:103660001F920F920FB60F9211248F939F93B599CB
:1036700004C080917C01811109C0B59B10C080916C
:103680008600909187008A3F910548F480915C0103
:1036900090915D01019690935D0180935C019F91F3
:1036A0008F910F900FBE0F901F9018951F920F9241
:1036B0000FB60F9211248F939F9310927C01B09BB1
:1036C00010C080918600909187008A3F910548F450
:1036D00080915C0190915D01019690935D018093D2
:1036E0005C019F918F910F900FBE0F901F901895C6
:1036F0000F9221E08C32920710F48CE291E08C5210
:10370000914069E170E00E94C63899E16B3210F097
:10371000982F6BE2981BE3EEF2E0E60FF11DE60F47
:10372000F11D9F93CF010E941F3A482F3196CF0180
:103730000E941F3A582F3196CF010E941F3A282F1E
:103740003196CF010E941F3A382F6F91421B530BC5
:10375000649FC001659F900D11240C9669E170E093
:103760000E94C638620F731FCB010F900895A0E02E
:10377000B0E0EDEBFBE10C948E3988E893E1909397
:103780002A018093290190933B0180933A018EEBAB
:1037900080933601C8E0C8B988E187B90E949508CE
:1037A000C7B984E00E94D108AC018B5C9840833F8C
:1037B0009140A0F481E08093450120913A0130913D
:1037C0003B01AFEBB9E00E9486389A0140E050E03F
:1037D0000E94ED3830932A0120932901809129011C
:1037E00090912A0190933B0180933A018EE00E94D0
:1037F000D5088EE00E94D10890933F0180933E014E
:103800000E940A0A8FDB88E0782E78B8D9E0D7B911
:10381000C1E0C5B9C4B980E00E94D1087C010AE0CA
:1038200007B914E015B914B981E00E94D108E80E77
:10383000F91E9CE0892E87B820E1922E95B894B8A5
:1038400082E00E94D108E80EF91E15B8D8B9D7B9A0
:10385000C4B9C0913A01D0913B0180E00E94D108E7
:103860005C0108B907B914B900913A0110913B0104
:1038700081E00E94D1086C0188B887B894B8809024
:103880003A0190903B0182E00E94D108C00FD11F05
:10389000C80DD91DCA19DB09CC19DD09C81BD90B04
:1038A00077B878B814B880913A0190913B014C01F7
:1038B000880C991C880E991E8E189F088C1A9D0AD8
:1038C000A12CB12C9701A0E9BAE10E948638A5018C
:1038D00094010E94ED3869017A01309344012093EC
:1038E00043019E01A0E9BAE10E948638A501940136
:1038F0000E94ED3830933D0120933C012057354E16
:10390000309327012093260180E7C81A85EED80A54
:10391000D0922001C0921F0187E380933601CDB77A
:10392000DEB7EDE00C94AA39FF920F931F93CF936B
:10393000DF93C82FD62FF42E0E94B60581E291E0C6
:103940000E941506E9D16D2F8C2F0E947430C1E0C2
:103950000091C2011091C3012091C4013091C501B1
:10396000011511052105310509F0C0E08091020122
:1039700087FD02C0C11104C08DE191E00E941506CF
:103980008D2F0E94B605C11106C00E94B805809116
:1039900061010E94BB06FF2049F0809146018231FF
:1039A00028F490E08D599C4F0E94150680E00E94FB
:1039B000F205C1111BC06091C2017091C3018091D9
:1039C000C4019091C50103E028E447EF0E94280755
:1039D00080E391E00E94150689E793E00E94273A70
:1039E00023E046E464EF0E9417081AC08091610149
:1039F0000E94BB06809102018E3F94F48EE491E018
:103A00000E94150660910B0170910C0180910D01CF
:103A100090910E0103E028E4409102010E942807E2
:103A20008091BA019091BB01A091BC01B091BD0100
:103A3000892B8A2B8B2BF1F080E00E94F20560919C
:103A4000BA017091BB018091BC019091BD0104E06D
:103A500028E440E00E9428078BE291E00E941506CE
:103A600023E040E26FEF8091C0019091C1010E947C
:103A7000170807C080E00E94D0058091490181119C
:103A800002C00E94CB05CDB7DEB7E5E00C94B23999
:103A90000F931F93CF93DF93082F0E9437048091D9
:103AA0008F010E94B6058AE691E00E94150611D5A5
:103AB00060918F018091900164D390938C018093E9
:103AC0008B0111E08A3F9F4F08F010E0C0918D01FB
:103AD000D0918E01112321F082E291E00E9415061F
:103AE000809190010E94B605002359F09091460103
:103AF00082E1891B0E94BA0582E890E00E941506C7
:103B000002C00E94CB050E948804609183017091DD
:103B10008401809185019091860104E026E4409122
:103B200092010E942807112369F089E591E00E9423
:103B3000150622E044E06EEF80918B0190918C019C
:103B40000E9417080E94CB050E948C04CD2B69F0BF
:103B500082E591E00E94150622E045E26FEF809138
:103B60008D0190918E010E9417080E94CB05DF9174
:103B7000CF911F910F9108958F7021F40E949004AE
:103B80000C94310F08958F3021F4909140019130C1
:103B900011F08F5F089580E00895CF938DE890E055
:103BA0000E94ED29C0E00E94830A60E082E00E944A
:103BB0008D1562E080E00E948D150E94370480918F
:103BC0007A01882329F041E062E080E0ADDE12C096
:103BD0008DE890E00E9415068DE693E00E941506A0
:103BE0000E9488048FE30E946D0580E00E94D0054A
:103BF0000E94CB058C2FC0DF88EE93E00E947B09EA
:103C0000811109C080911E01843028F48C2FBBDF04
:103C1000C82F8A3F40F20E943D04CF9108950F9330
:103C20001F93CF93DF93C0E0D8E012EF02E10E9430
:103C3000830A60E082E041DAD0932501809191010E
:103C4000843FE1F440917F015091800160918101B6
:103C500070918201443651056105710578F440E0A8
:103C600060E082E00E94162E60937F0170938001D5
:103C70008093810190938201109391018091910131
:103C8000823FACF08093920140917F01509180017E
:103C9000609181017091820140938301509384016E
:103CA000609385017093860181E0F2DE1CC00E9462
:103CB000370486E890E00E94150680914601902F17
:103CC000981B892F0E94BA0582E890E00E94150691
:103CD0000E9488048FE30E946D050E94CB050E941C
:103CE0008C040E94CB058C2F47DF88EE93E00E9466
:103CF0007B0981110AC080911E01843030F48C2F21
:103D000042DFC82F8A3F08F492CF0E943D04DF9122
:103D1000CF911F910F910895A3E1B0E0E2E9FEE198
:103D20000C94893982E080930201809125018130D1
:103D300009F023C280917A01813009F01EC22090DF
:103D4000610124E0229EF0011124E255FE4F8081A2
:103D50009181A281B381893032E59307A105B10534
:103D600008F00BC29B8B8A8B312C61E0822D63158E
:103D700028F00E94B106B82EA92E03C00E94B106F9
:103D80005C01EA2DF0E0E45BFE4F74908B2D90E037
:103D9000FC01E75BFE4FE49115B828E028B92A89B9
:103DA0003B89203F3105A8F430FC13C000911F016E
:103DB0001091200100591A4121E030E00B2C02C083
:103DC000220F331F0A94E2F7C9018860872987B957
:103DD00008C0E4B9872D886087B900911F01109150
:103DE000200144E1642E8B2D0E94CD084C018A2DC8
:103DF0000E94D50834E08316910410F4049710F063
:103E00006A9489F760E460937B0084E580BF8B2D22
:103E1000806480937C0086E180937A00E12CF12C11
:103E200010928000109285001092840087E286BB79
:103E30000E949008932D9170998B30FC05C081E809
:103E40008093810078B808C078B80E94990880E211
:103E500086BB81E88093810046B345FF13C028E00C
:103E600028B91092810080E286BB809186009091F3
:103E700087006C01209184003091850082179307A0
:103E800068F013C040FFE8CF31E036BBA895C7010A
:103E900001967C0180359105F9F6E1CF40FF05C020
:103EA00061E066BB8FEFE81AF80A86E980937A0032
:103EB00034E1732E8B2D0E94CD084C018A2D0E9477
:103EC000D50824E08216910410F4049710F07A9437
:103ED00089F780904301909044018A899B89880EDC
:103EE000991E800E911E20912101309122010039EE
:103EF0009AE11907B0F461EEC616D104E104F104A9
:103F000038F4C60165E070E00E94C638645101C013
:103F100069E128523109261B310967FD339586E096
:103F200009C0C40160EB76E30E94C63887E0860FC3
:103F3000285D3F4F90E0A0E0B0E08C159D05AE05F8
:103F4000BF0528F4C81AD90AEA0AFB0A03C0C12C23
:103F5000D12C76018989882329F092E2C90ED11CDF
:103F6000E11CF11C60E5E616F10418F0C12CD12C1F
:103F700076018BE0C816D104E104F10428F091E049
:103F8000C91AD108E108F10840913A0150913B016A
:103F9000A12CB12CA8EEB3E00E9486382B013C0185
:103FA0009801DA010E948638A50194010E94ED383B
:103FB00044275527C301B2010E94ED38C9010E9470
:103FC000620AFC01A5019401C701B6010E94AB3849
:103FD0004B015C01BF0180E090E023E0660F771F9A
:103FE000881F991F2A95D1F76B5F7F4F8F4F9F4F87
:103FF0002AE030E040E050E00E94ED38C501B40115
:104000000E94ED38832D90E0E1E0F0E0EC0FFD1F21
:1040100064E0369EE00DF11D11242083318342833C
:1040200053836989611117C06CE0C616D104E1049D
:10403000F10488F0FC013196EE0FFF1FEE0FFF1F19
:1040400081E090E08C0F9D1FE80FF91F20833183E2
:10405000428353833394A895339493E0931508F0E7
:1040600084CE88E088B984E00E949D0821E04D81DB
:104070005E816F81788589819A81AB81BC8184174B
:104080009507A607B70708F020E04D855E856F8588
:10409000788989859A85AB85BC8584179507A6079D
:1040A000B70710F032E001C033E0E22FF0E0EE0F8E
:1040B000FF1FEE0FFF1F81E090E08C0F9D1FE80FA8
:1040C000F91FDC0194E0399FA00DB11D11244D9121
:1040D0005D916D917C9180819181A281B38148171E
:1040E00059076A077B0708F0322FE1E0F0E0EC0F98
:1040F000FD1F24E0329FE00DF11D1124808191818C
:10410000A281B38180930B0190930C01A0930D01C8
:10411000B0930E0130FD09C02A893B89203F31054B
:1041200020F48BEF8093020117C02CEF2093020143
:10413000BC01CD016B5F7F4F8F4F9F4F2AE030E076
:1041400040E050E00E94ED3820930B0130930C01C9
:1041500040930D0150930E0180910B0190910C0141
:10416000A0910D01B0910E01892B8A2B8B2B11F49C
:104170001092020188E087B914B86396E2E10C94CA
:10418000A539AEE1B0E0E7ECF0E20C948939662E97
:10419000B82E860F898320912501283059F520916A
:1041A000830130918401409185015091860157FD32
:1041B00015C01091920109C0CA01B9012AE0312D40
:1041C000412D512D0E94ED381F5F173FACF391F444
:1041D000243160E036074105510518F48FEF9FEF59
:1041E00045C1173F39F480E028178DE738074105AE
:1041F000410510F020E03DE72C8B3D8B26EDA22EF3
:10420000ECE4F1E0E60DF11D859188608E87ECE429
:10421000F1E0EB0DF11D859188608F87E9E4F1E015
:10422000E60DF11D7590E9E4F1E0EB0DF11DC5908F
:1042300090EC692AB92A81E0E82EF12C012D112D8C
:104240008E831F82188619861A861B861C861D86F9
:10425000188E198E1B8E1A8E0E94921788E088B9CC
:1042600060927C000E9491083F8537B975B874B898
:1042700052E05A95F1F70000000014B815B8DD249B
:104280003E8537B975B874B860927C00A895A09245
:104290007A0080917A0086FDFCCF209078003090E3
:1042A0007900B0927C004C2DE5D0209178003091BF
:1042B0007900288B398B3F8537B9C5B8C4B8A89524
:1042C000B0927C00A0927A0080917A0086FDFCCFAB
:1042D000609178007091790060927C00472DCAD07F
:1042E000409178005091790014B8CB01820D931D54
:1042F000E80EF91E011D111DEA82FB820C831D834D
:1043000088899989840F951F2E813F8168857985D9
:10431000280F391F611D711D2E833F8368877987A0
:1043200022E32417150650F075B874B80E949B0854
:1043300014B815B8888D8395888F07C0483E73E000
:10434000570718F08A8D83958A8F8889998928174D
:10435000190660F03E8537B9C5B8C4B80E949B08FD
:1043600014B815B8898D8395898F07C0883E73E08E
:10437000970718F08B8D83958B8FD3945D2D5F3FBE
:1043800049F05F3731F45C2D550FC50E572D550F91
:10439000750E76CF4090430150904401440C551C5B
:1043A0009201E4E0240D351DEA95E1F7290157015A
:1043B00068016E807F80888499842091250128304F
:1043C000C1F46C897D89812D912D655070408040AC
:1043D00090409B01AC010E94AB389B01AC0160E7AF
:1043E00079E786E190E00E94ED38621A730A840A48
:1043F000950AA614B704C804D90428F46A187B08DF
:104400008C089D0803C0662477244301B20180E034
:1044100090E09301A4010E94AB389501A6010E948F
:10442000ED388EE393E07981870F911D0E941F3A4A
:10443000682EC90160E170E00E94C638260F371F60
:10444000C9016816190618F4861991090FC08C5E07
:104450009F4F8615910540F48C899D89843981E1AF
:10446000980710F00E94CF0E812D912D6E96E2E1FB
:104470000C94A539109281001092800010926F0068
:1044800010928B0010928A0057E056BB5FEF50935A
:1044900085005093840055E050937B0056EB509379
:1044A0007A0051E05093810058E25A95F1F70000EC
:1044B00045B944B955E05A95F1F7000014B815B85C
:1044C0001092810080917A0084FFFCCF80937A0063
:1044D0000895A4E0B0E0EFE6F2E20C949139809107
:1044E0008D0190918E01892B09F0B5C0E0918F016B
:1044F000F0E0E45BFE4F04910860E0919001F0E091
:10450000E75BFE4F14910E94921788E088B915B8B6
:1045100007B914B9809190010E94D5085C010091FF
:1045200092018CE0800F843008F095C0015F80918B
:10453000830190918401A0918501B09186012AE0C8
:10454000C22ED12CE12CF12CBC01CD016B5F7F4F31
:104550008F4F9F4FA70196010E94ED380F5F0730E4
:1045600019F0DA01C901F0CF293883E13807410594
:10457000510508F070C02530310508F46CC015B93C
:1045800014B900E010E00217130768F429833A8396
:104590004B835C830E9497080E5F1F4F5C814B81A9
:1045A0003A812981F0CF14B815B8A89585E0809399
:1045B00036018091900129833A834B835C830E946A
:1045C000D50829813A814B815C81A816B90620F46F
:1045D0007C01EA18FB0802C0E12CF12C00E010E09D
:1045E0000217130768F429833A834B835C830E9484
:1045F00097080F5F1F4F5C814B813A812981F0CF73
:10460000809190010E94D50827E320933601A89558
:10461000A816B90618F48A199B0902C080E090E038
:104620008E159F0588F49701281B390B69F0A4EFBC
:10463000B1E00E948638970140E050E00E94ED38DA
:1046400030938E0120938D010E94921788E087B9E4
:1046500088B914B815B82496EAE00C94AD39A5E0F1
:10466000B0E0E5E3F3E20C94893988E392E0B5D653
:1046700020EF2A8354980E948C0814BC16BC109218
:10468000120110921301109214011092150131E0E1
:1046900035BB30936E001092800083E19AE79093CF
:1046A0008B0080938A00E1E0F0E0F0938900E093D2
:1046B0008800109285001092840083B5816083BDCC
:1046C000F6E0F6BBF0936F00789424E0209381002D
:1046D00012E319820E948508A8954F9902C031E023
:1046E000398385B5811127C015BC86B58093120129
:1046F0000E948C040E94CB050E9490040E94CB056E
:104700000E94F70586E60E946D050E94FA056091F9
:10471000120170911301809114019091150147E0ED
:104720000E942C08549880918100882339F08FE3EF
:104730000E946D0503C0115069F6D6CF109281001A
:1047400010926F00209112013091130140911401D9
:1047500050911501DA01C9010197A109B109893DFB
:104760009146A105B10508F029C1AAE0B0E00E9478
:104770009B38685F7F4F8F4F9F4F23E096958795BB
:10478000779567952A95D1F7660F771F7093750116
:104790006093740154980E948C0816BC1092120108
:1047A00010921301109214011092150181E085BB43
:1047B00080936E00109277011092760194E09BBB7B
:1047C00080916800846080936800789480916D0087
:1047D000806180936D001D820E948508A8954F9985
:1047E00002C0E1E0E98380916D0084FF05C0FD8196
:1047F000FF5FFD83FA3F81F715BC80916D008F7ECE
:1048000080936D00809168008B7F8093680086B5EF
:10481000809312010E948C0484E50E946D050E9421
:10482000FA058091120190911301A0911401B091A9
:10483000150120917401309175013C832B831C017B
:104840002D019C01A20160E070E080E090E003E0B7
:104850000E94C63951016201E12CF12C00E010E008
:104860000E94DF3959016A017B01E82F192F03E00B
:104870000E94C6390E2F0E94DF3903E00E94C6391C
:1048800051016201E12CF12C00E010E00E94DF39BF
:1048900002E00E94C63900E00E94DF3901E00E9478
:1048A000C63900E00E94DF3903E00E94C639EB817F
:1048B000FC815F01C12CD12C00E00E942539390117
:1048C0004A011B012C012B813C812038310530F03D
:1048D00007E023E745EFB301C40116C084E6A82E24
:1048E000B12CC12CD12CE12CF12C00E010E0930173
:1048F000C2010E942539E22FF42F07E023E747EF9A
:104900006E2F732F8F2F952F0E9428073D813A3FDE
:1049100021F48FE30E946D0551C09301A401B10100
:10492000C2012C393E4C434051056105710581059A
:10493000910509F008F442C00E94900486E60E94A6
:104940006D050E94FA059301A401B101C201530152
:1049500064017101820121153A4C4A495B436105AA
:1049600071058105910589F080F020E030E04AE88A
:104970005DE568E775E483E691E00E942539E22F62
:10498000F42F07E028E44AEF0FC020E030E846ECBF
:1049900054EA6EE77DE883E090E00E942539E22F3B
:1049A000F42F07E028E44CEF6E2F732F8F2F952FF5
:1049B0000E9428078AE70E946D05549810926E00A5
:1049C00080ED97E00E947B092981820F49F4809154
:1049D0001E01833028F43A8131503A8331114ACE96
:1049E0002596E2E10C94A5391F920F920FB60F9213
:1049F00011248F939F93AF93BF937894809112016A
:104A000090911301A0911401B09115019F5FAF4FD8
:104A1000BF4F8093120190931301A0931401B093A0
:104A20001501BF91AF919F918F910F900FBE0F9085
:104A30001F9018951F920F920FB60F9211248F930B
:104A400086E085BD8F910F900FBE0F901F90189537
:104A50001F920F920FB60F921124A8951092810009
:104A600015BC0F900FBE0F901F9018951F920F92BC
:104A70000FB60F9211242F933F938F939F938091A2
:104A8000760190917701892B11F481E085BD209109
:104A9000760130917701809174019091750128170A
:104AA000390730F015BC80916D008F7E80936D00CA
:104AB0008091760190917701019690937701809390
:104AC00076019F918F913F912F910F900FBE0F9084
:104AD0001F9018958D3008F08D50811103C082E42D
:104AE00092E03BC0813019F488E392E036C0823016
:104AF00019F48FE092E031C0833019F484E092E041
:104B00002CC0843019F488E990E027C0853019F46E
:104B10008DE890E022C0863019F486E890E01DC050
:104B2000873019F483EF91E018C0883019F484EECF
:104B300091E013C0893019F480E392E00EC08A300E
:104B400019F48DEC91E009C08B3019F486E292E003
:104B500004C08C3021F48BE192E00E9415060C9485
:104B6000CB050F93CF9388E990E037D4C0E0109243
:104B7000250160E082E04DD4809125018830C1F5A7
:104B80000E94880483E40E946D050E94FA056091EA
:104B9000830170918401809185019091860103E0E9
:104BA00026E4409192010E9428070E94CB05609163
:104BB0008F0180919001E5DA90938C0180938B01B5
:104BC0000E948C048AE591E00E94150680918B0179
:104BD00090918C018A3F2FEF920730F422E044E05D
:104BE0006EEF0E94170808C08FE30E946D0504C095
:104BF0000E94F7050E948C040E94CB058C2F0E9416
:104C0000BC1D88EE93E00E947B0981110BC080914E
:104C10001E01843038F48C2F0E94C31DC82F8A3F98
:104C200008F4A5CFCF910F9108951F93CF93DF93F1
:104C300080E392E0D2D3C0E0D0E01AE00E94F40515
:104C40000E9433040E94330484E491E00E9415061C
:104C500086E00E94D10863E09C01129FC001139F6F
:104C6000900D11240E9422080E94F7050E9433042F
:104C700084E491E00E94150687E00E94D10863E079
:104C80009C01129FC001139F900D11240E942208C5
:104C90008C2F0E94BC1D88EE93E00E947B099091AE
:104CA0001E01811102C0992361F0C0E0963088F4A2
:104CB0008F3510F0DF5F02C0882319F0D53010F077
:104CC00008C0D0E08C2F0E94C31DC82F803F08F47D
:104CD000B5CFDF91CF911F910895A5E0B0E0E3E754
:104CE000F6E20C9489398FE092E077D380E18093EB
:104CF000800010926F0081E090E090938900809393
:104D0000880010928B0010928A0083E086BB10927C
:104D1000820088E08093810015B891E194B988B948
:104D200089E087B9229A80938100212C1B822AE096
:104D3000298333243394812C912C5401839411E1E1
:104D4000822D90E00A966EE170E00E94DA38662EBD
:104D5000562E3B81631789F00E9437048FE092E062
:104D60000E941506712C751428F48EE20E946D05C0
:104D70007394F9CF0E94CB056B821231C8F0C70142
:104D8000B601A50194010E94ED382B013C01832D51
:104D900069810E94BA38A92FB0E0A50194010E9450
:104DA0009B386B017C01C40CD51CE61CF71C0CC0A5
:104DB000832D69810E94BA38A92FB0E0A501940122
:104DC0000E949B386B017C010E9488048981381203
:104DD00008C081E0123108F480E08A83811106C0A6
:104DE00001C01A82163120F48EE303C08CE301C0A7
:104DF00082E50E946D050E94B805412FC701B601EA
:104E00000E942C08C701B6017E5E85489F4FA7010E
:104E10009601220F331F441F551F0E94ED38CA010F
:104E20004F3F510539F030F08DE08093810080E0F4
:104E300094E01FC04034510530F08CE08093810035
:104E400080E091E016C04830510530F09BE090932F
:104E5000810080E490E00DC0892B31F0EAE0E0931E
:104E6000810088E090E005C0F9E0F093810081E0E6
:104E700090E02C01612C712CCA01B901A3019201AF
:104E80000E94ED38C90101979093890080938800B2
:104E90008091880090918900892B31F421E030E0E5
:104EA00030938900209388000E94CB050E948C04D7
:104EB00086E60E946D050E94B80580918800909159
:104EC00089009D838C8360E079E08DE390E0A3010D
:104ED00092010E94ED38A4E6B0E00E949B38EC817C
:104EE000FD8131969F0140E050E00E94ED3829019C
:104EF0003A01A4E6B0E0A70196010E949B38461A49
:104F0000570A680A790A05E228E44EEFC301B201A4
:104F10000E9428078AE70E946D050E94CB058CED50
:104F200095E00E947B09811105C080911E018111CD
:104F300043C043C0863960F0109281001092800017
:104F400088E087B914B822982596E2E10C94A53937
:104F5000813578F1FA81FF23D9F01150C501B401F0
:104F60002AE030E040E050E00E94ED3849015A016B
:104F7000C701B6010E94ED38CA01B9012AE030E04C
:104F800040E050E00E94ED38362E2AE029833DC0F3
:104F9000163190F51F5F163111F435E13983AAE01F
:104FA000B0E0A50194010E949B384B015C01312CBB
:104FB0002CC08B3008F03394212C80911E018B3053
:104FC00008F0BACF80911D0187FF03C08F5F9981E0
:104FD000890F830D90E0E9816E2F70E06F5F7F4F46
:104FE0000E94DA38382E822D0E94C31D282EFFEE33
:104FF000F81708F0A5CEA0CF2AE0298333243394F4
:10500000812C912C5401839411E1212C99CEA4E0A0
:10501000B0E0EDE0F8E20C948D3984E092E0DDD16F
:1050200083E28093800010926F008FEF90E0909366
:105030008B0080938A0083E086BB1092820015B8B3
:1050400081E184B988E088B929E027B9229A81E012
:1050500090E090938900809388002093810010E075
:1050600000E0A2E37A2E612CB4E6CB2ED12CE12C09
:10507000F12C88248A9483E0982EA12CB12C7016F0
:10508000E9F183E6871510F4ECE97E0E272D30E078
:10509000AFEFB3E00E9486386E5C7F4F8F4F9F4F1B
:1050A000A70196010E94ED3830938B0020938A006F
:1050B00029833A834B835C830E948804A8EEB3E083
:1050C00029813A814B815C810E949B3861507E4FDF
:1050D0008F4F9F4FA50194010E94ED38DA01C9015D
:1050E00025E045E26FEF0E9417080E94CB05F8E229
:1050F000F61518F48CE30E949D08072D80E496E0D5
:105100000E947B09682E82E8861560F488E087B9E2
:10511000109281001092800014B822982496EEE03C
:105120000C94A93990911E019B3080F780911D014C
:1051300087FD8C59780EE2E3E61518F4FAE07F0E4D
:1051400003C0662051F0739410E0812F0E94C31DAC
:10515000182F803F08F493CFD9CF9111F5CFF5CF19
:10516000CF93DF938DEC91E038D18DE393E00E94F3
:105170001F3AC82FD0E081E80E942C048C2F0E9497
:105180002C040E94880424E040E260E08C2F90E030
:105190000E9417080E94CB0580E496E00E947B09DC
:1051A000811105C090911E01911103C003C0823886
:1051B000C8F4D0E090911E019B30A0F490911D01A5
:1051C00097FD90589C0F882329F0893210F09F5F3B
:1051D00001C09158C92FCF778D2F0E94C31DD82FA2
:1051E000803F48F26C2F8DE393E00E942C3ADF91D0
:1051F000CF9108950F931F93CF93DF9383EF91E0A7
:10520000ECD082E493E00E941F3A182F00E00E9445
:105210008804C12FDD27C7FDD09517FF0BC08DE295
:105220000E946D0523E045E26FEF882799278C1BCC
:105230009D0B04C023E045E26FEFCE010E941708EA
:105240000E94CB0580E496E00E947B09811105C095
:1052500090911E01911103C003C0823800F500E057
:1052600090911E019B30D8F490911D01910F8111F6
:1052700002C0192F06C0893210F011E001C01FEFE3
:10528000190F113514F0155603C01C3E0CF41B59B0
:10529000802F0E94C31D082F803F08F4B8CF612FD4
:1052A00082E493E00E942C3ADF91CF911F910F91FD
:1052B0000895813011F480E0D2C9823009F40DCD17
:1052C000833009F4A4CE843009F44BCC853011F43A
:1052D0000C94CD1D863021F40E943D040C940F1EC9
:1052E000873009F487CF883019F481E10C94050BDD
:1052F000893009F49ACC8A3009F432CF8B3009F422
:10530000CAC18C3011F40C94AE0A0895FF920F9329
:105310001F93CF93DF938DE492E05FD0D0E0C0E0A5
:105320001BE01C0FF12C01E00F0D60E0802F0E94AC
:10533000070482E0F81204C08EE30E946D0502C0EB
:105340000E94B8051D3018F083EF810F01C0812F36
:10535000C1DB1F5F063011F0F02EE5CF80E49FE146
:105360000E947B098111D0E090914001913009F4B5
:10537000D0E0823330F490917B01992371F088233F
:1053800061F0CC2321F18C2F94DF10921E0110923A
:105390001D018DE492E021D080E090911E019A30B1
:1053A000B0F490911D01992319F097FD03C0D0E04E
:1053B000C90F03C0935FC90FD0E08111CF5FDF5FDA
:1053C000D23828F4CD3008F4ABCFCD50A9CF80E04F
:1053D000CDB7DEB7E5E00C94B239A2E0B0E0E3EF80
:1053E000F9E20C94983989839A830E943D0489815B
:1053F0009A810E94150614E682E00E949D084F994A
:1054000002C01150C9F70E9488042296E3E00C9470
:10541000B439A4E0B0E0EFE0FAE20C948E39882EC3
:10542000762E862F90E0FC01E45BFE4F149118600D
:10543000E82DF0E0E75BFE4FB490FC01E75BFE4F28
:10544000049110928C0110928B0110927F011092A6
:105450008001109281011092820187EF8093910167
:105460000E94921788E088B917B904B905B9882D48
:105470000E94D5088C01872D0E94D508081B190BA6
:1054800014B810925D0110925C0120E030E09CE2C3
:10549000E92EFF24F3944AE0A42E54E6952E809141
:1054A0005C0190915D01843D904308F069C0B5B8FE
:1054B00080915C0190915D01892B89F06701C21A8E
:1054C000D30A60915C0170915D01A29EC001A39E10
:1054D000900D11240E94C638C616D70650F4B4B8F1
:1054E0000E94900814B880915C0190915D01019632
:1054F00028C080915C0190915D010B97C8F060918C
:105500005C0170915D01929EC001939E900D1124EB
:105510000E94C6386C157D0558F4B4B80E94850801
:1055200014B880915C0190915D018C599F4F09C026
:10553000B4B80E948B0814B880915C0190915D0111
:105540000A9690935D0180935C0115B80E949208C1
:10555000A895882D0E94D5089C01201B310B8091B5
:105560005C0190915D018B31964020F02532310530
:105570000CF488C02D3281E038070CF490CF05C0C0
:105580002D32F1E03F070CF47DC080915C019091D9
:105590005D01019729F4253145E034070CF072C014
:1055A00000915C0110915D01000F111FA80160E0E6
:1055B00070E0409387015093880160938901709354
:1055C0008A01C90168E270E00E94DA38C901860FD9
:1055D000971F0E94781B9C01D8010E948638609317
:1055E0008701709388018093890190938A01609369
:1055F0007F017093800180938101909382010E94CA
:105600001D1820917F0130918001409181015091BE
:10561000820182E493E029833A834B835C830E9476
:105620001F3AA8EEB3E0A81BB10987FDB395298105
:105630003A814B815C810E94A53820E137E240E04D
:1056400050E00E94ED3820937F0130938001409319
:1056500081015093820188E080932501209383018A
:10566000309384014093850150938601809191018C
:105670008093920110928E0110928D0170928F0191
:105680008092900188E087B988B914B815B824963B
:10569000EDE00C94AA39A0E0B0E0E1E5FBE20C9467
:1056A00094390E943D048EE091E00E9415060E940C
:1056B00088048AEC90E00E94150680E493E00E9442
:1056C0001F3A23E040E26EEF90E00E94170881E469
:1056D00093E00E941F3A23E040E26EEF90E00E94C8
:1056E00017088FE393E00E941F3A23E044E06EEF37
:1056F00090E00E9417080E948C0483EC90E00E94C6
:10570000150623E044E06FEF80913C0190913D014C
:105710000E9417080E9490048CEB90E00E941506EE
:1057200023E044E06FEF80914301909144010E9497
:10573000170888E99AE30E947B0980911E018B304B
:1057400008F0C1C080911D0187FDABCF0E943D04D0
:1057500088EB90E00E94150684E693E00E941F3AD1
:1057600090E042970E945B0685E693E00E941F3A14
:1057700090E042970E945B0681E693E00E941F3A08
:1057800090E023E046E464EF42970E9417080E94ED
:10579000880483E00E94BA0580E693E00E941F3AE5
:1057A00090E042970E945B0683E693E00E941F3AD6
:1057B00090E042970E945B068FE593E00E941F3ABB
:1057C00090E023E046E464EF42970E9417080E94AD
:1057D0008C0486E290E00E94150686E693E00E9423
:1057E000273A0E9447060E9490048FE190E00E94B1
:1057F000150688E693E00E941F3A992787FD909549
:105800000E94470660E087E00E940704F12CDF2C2D
:10581000DD0CDF0CE12CDA94FE1409F449C0CD2D27
:10582000CE0DD0E0CC0FDD1FCE018F5A9C4F0E94D1
:10583000273A8C01CE018D5B9C4F0E94273AEC01E8
:105840008091AD018730A8F088E99AE30E947B0936
:1058500080911E018B30B8F580911D018E3F0CF4B4
:1058600020CF8E3F09F472CF8F3F61F20E943D043A
:1058700003C080E00E94D00580EB90E00E941506F6
:105880008F2D0E94B6058AE30E946D058E2D0E9421
:10589000B60580E00E94D00523E040E26EEFC8012B
:1058A0000E94170823E046E462EFCE010E94170829
:1058B000E39483E0E812B0CFF394F812A8CF88E91C
:1058C0009AE30E947B09CDB7DEB7E7E00C94B039CC
:1058D000A1E8B0E0EEE6FCE20C9489395090950125
:1058E000D0909B01F0909C01E52DF0E0E75BFE4F2E
:1058F0004490A42CB12CAA0CBB1C852D8064382E9E
:1059000078E0272E8F2C912CF401E75BFE4F249139
:10591000C42CC22A2A2930927C006D2C712CF301F0
:10592000E45BFE4FE491E860E7B928B815B814B815
:10593000CF57DF4F2883C158D0400E949108CF57DE
:10594000DF4F2881C158D040E22E022F40E4BE0133
:105950006F5F7F4F80E090E17CD0FE01759630E074
:105960002AE0819191919695879596958795182F24
:10597000381728F42F5F203419F0382FF2CF132F67
:10598000812F869586958695312F381B203409F412
:1059900053C0DE011196A20FB11DA20FB11D8D9152
:1059A0009C919695879596958795831708F042C0A8
:1059B00082E080932501D092580150925601F092D6
:1059C0005701F301E80DF91DE35AFE4F10826D2DCA
:1059D0008F2D0E948D1580915801E0915701F0E0C4
:1059E000E80FF11DEE0FFF1FEE0FFF1FE655FE4FF4
:1059F000C080D180E280F3801352212F30E0A4E6F2
:105A0000B0E00E9486384B015C019E2D8D2D7C2DCF
:105A10006627A70196012057354E4F4F5F4F0E94D2
:105A2000ED38C501B4010E94ED3830935501209343
:105A3000540109C02F5FAACF80919B01D81203C0E7
:105A4000DF2CF82E5FCFCF57DF4FE2E10C94A53962
:105A50000895E62FF72F903009F49395E5B8C4B870
:105A6000B6EFB0937A00A5E0A0937B00A8E0A093E6
:105A7000810010928000AFEFA0938500A093840076
:105A8000A6E0A093360010928B0010928A00B3E03B
:105A9000AFE3A91B51E0392F33302AF0A05CBC4F93
:105AA00053953350F9CFB0938900A0938800A0910B
:105AB0007A00A4FFFCCFB6EBB0937A00A2E0A093EB
:105AC0006F00A9E0A093810062E0A0E0A0937B00BA
:105AD000A1E0A09353008895E5B8C4B884FF19C02D
