:10000000B7C30000C7C30000C5C30000C3C30000DE
:10001000C1C300000C942F25BDC300000C94840ABA
:10002000B9C30000B7C300000C944D1B0C941325FA
:100030000C9421250C94271BADC30000ABC300001A
:100040000C94ED24A7C30000A5C30000A3C30000C7
:10005000A1C300000C94850A9DC300009BC300004F
:1000600099C3000097C30000970599059D05A70552
:10007000A505A105A105A305AD05AD05C600BD00FB
:10008000B4001008407E01013E01013E01013E0125
:10009000017E404018000720080808F800000020F2
:1000A00060A03FA06020020202FF020202101010B6
:1000B0001F0000000708FFDBBDB5B5CBFF0708FF39
:1000C000BB9DADADB3FF0708FFFFF7FB81FFFF103E
:1000D000100508F878385888091003081C3E7F0D71
:1000E000080710FF818181F1E1C1FF404040474393
:1000F000410D080110FFFF11080310F1E1C1474352
:10010000410E0008202121122060E0E0E0FEFE0404
:1001100002010001037F7F21C2C4C4C04094840057
:1001200007030102040E080210FEFE7F7F0000009C
:1001300000110005202060E0E0E00201000103C2A0
:10014000C4C4C0400703010204010410090A0C4E94
:100150006F742063616C696272617465642100B9B7
:1001600003870358032E030703E402C302A4028893
:10017000020000140029003E00530069008000972F
:1001800000AE00C600DF00F80012012D0149016534
:10019000018201A001BE01DE01FF012102440268CB
:1001A000028E02B502DE020903350364039403C81C
:1001B00003FE0337047304B404F90443059305EA0A
:1001C000054906B3062907AE074808FF08DE0900FF
:1001D0000000000000000000000000000000001E01
:1001E0002121211200807F0000007E4A4A4A34000B
:1001F0000000000000FC4020100804020100000084
:10020000010101010101010101010101017F0488D6
:10021000D0E0F0F800000000000000000000000046
:10022000000000000000FC94948400000102FC0027
:1002300000000000000000000000001E212121122B
:10024000E0C0804020100F000000C02020204000AF
:100250000000FC00009E9E04030303030200000054
:10026000202023242525232020203F00007B7B21E4
:1002700042840480C0000000000000000000000074
:10028000000000FC94948400040607070708F000AF
:10029000000000000000000000000000803F21215D
:1002A000120C00000000FF000000F0084848C800E1
:1002B00000FE0000E7818181C1E1F18181810100BF
:1002C0002020202121212020203F0000F340404019
:1002D00041434740407FC000000000000000000094
:1002E0000000000000489494946400000000FF00A7
:1002F0000000000000000000000000000000003FBF
:100300002121120C0000FF000000F0084848D00036
:100310000000000000FEFE040404040404040700BE
:1003200008080809090908087F3E1C08087F7F2083
:10033000202020202020E00000000000000000001D
:100340000000000000000048949494640000FF0046
:1003500000000000000000000000FF003C0A090A45
:100360003C002231292926000082868E9EBEFEFE98
:10037000BEDEEFF6FAFEFEFAF2E2C28200000008EC
:10038000080804027984A4A46800FF0000000000AB
:10039000000000000000000000000000000000005D
:1003A0000000FF0000F0282428F0001008FC0000E6
:1003B000000000000000000000003C0A090A3C00A8
:1003C000FF0000000000000000000000000000002E
:1003D000000000040C1C3C7CFF7C3C1C0C04000056
:1003E000000000009EA1A9A99A804323130B0703D4
:1003F000FF030303030303000000000000000000EC
:100400000000788484844800FF00000000000000A1
:100410000000F00804E2110909090909090909099C
:100420001121C2040810E0000000010204040700CA
:1004300000000000804020108844231008040300BE
:1004400000000000000000000000FE0100FC0201AE
:10045000000000000000000000000000000000009C
:100460000000794949790000000000000000000800
:100470003E22223E08087F2214087F7F0814227F34
:10048000087F7F00007F7F00586404645800807CF0
:1004900020201C22222222223E3E22222222220828
:1004A000080808080838404030404030404030409C
:1004B00038007E1515150A00062979290600000066
:1004C00000000000607E0A353F002A1C361C2A000E
:1004D000E0514F41FF007F404040FF007F407F40A0
:1004E000FF00E0544C44FC0018247E2418007C409B
:1004F0004040FC007C407C40FC0014B6FFB6140079
:1005000004067F06040010307F30100008083E1CEF
:100510000800081C3E080800784040404000083EA3
:10052000083E0800303C3F3C3000030F3F0F030003
:1005300000000000000000005F0000000003000356
:100540000000147F147F1400242A7F2A1200231332
:10055000086462003649552250000005030000007F
:10056000001C224100000041221C000014083E082B
:10057000140008083E08080000A0600000080808F1
:10058000080800000060600000002010080402005D
:100590003E5149453E0000427F40000042615149C2
:1005A00046002141454B31001814127F10002745A9
:1005B000454539003C4A49493000017109050300AD
:1005C000364949493600064949291E000036360099
:1005D00000000056360000000814224100001414E8
:1005E00014141400004122140800020151090600ED
:1005F000324979413E007E1111117E007F494949FF
:1006000036003E41414122007F4141221C007F498A
:10061000494941007F09090901003E4149497A00E1
:100620007F0808087F0000417F4100002040413FD3
:1006300001007F08142241007F40404040007F02BB
:100640000C027F007F0408107F003E4141413E00C4
:100650007F09090906003E4151215E007F091929E1
:10066000460046494949310001017F0101003F40F0
:1006700040403F001F2040201F003F4038403F00C7
:1006800063140814630007087008070061514945A6
:100690004300007F4141000018247E2410000041E7
:1006A000417F0000040201020400808080808000FD
:1006B0000001020000002054545438007F48444494
:1006C0003800384444442000384444487F003854BB
:1006D00054541800087E09010200085454543C0088
:1006E0007F080404780000447D4000002040443D21
:1006F00000007F102844000000417F4000007C047F
:10070000180478007C080404780038444444380015
:100710007C1414140800081414147C007C080404CD
:100720000800485454542000043F444020003C40FA
:1007300040207C001C2040201C003C4030403C00FD
:100740004428102844000C5050503C004464544C41
:10075000440000083641000000003F000000004156
:100760003608000008082A1C08003C2623263C0006
:1007700011241FBECFEFD8E0DEBFCDBF21E0A0E047
:10078000B1E001C01D92A63CB207E1F70E947332AE
:100790000C94DE3A35CC5A98529A15BE5D98559A0B
:1007A00080FF03C053985B9A02C05B98539AC5D4EC
:1007B000661F1AD0661F18D0661F16D0661F14D089
:1007C000661F12D0661F10D0661F0ED0661F0CD099
:1007D000B4D45A98529A55985D9A90E195BF5A9818
:1007E000529A5998519A08955A98529A18F45198D1
:1007F000599A02C05998519A52985A9A9EC4609335
:100800004601809304018093AD01862F880F680F05
:10081000660F60930F010895809146018093010156
:100820008091AD0180930301089560910101809151
:100830000301E5CF0895CF93C82F692F81E0ABDF87
:100840006C2F81E0A8DFCF910895682F80E0A3CFBF
:1008500008958EEAFADF85EAF8CF08958DE037D45F
:100860008AE035C40895FADF1092AD0160E080E0BF
:10087000C6CF0895CF93DF93C0E080E1E6DF80E04C
:10088000E4DF8C2F806BE1DFD4E860E081E083DF80
:10089000D150D9F7CF5FC83081F7E5DFDF91CF9135
:1008A00008955C985A9859985D98549A529A519A1A
:1008B000559A3ED415BE55985D9A5B98539A84E13B
:1008C0003ED415BE54985C9A84E139D48EEABDDFDB
:1008D00082EEBBDF82EAB9DF80EAB7DF80ECB5DF0A
:1008E0008FE2B3DF84E2B1DF81E8AFDF8DE393E035
:1008F0000E94B03A8F73A9DF80E4A7DF84EAA5DF06
:1009000086EAA3DFB7DF8FEAA0DF60E080E077CF81
:100910000895A4DF60E081E072CF08959FDF60E07A
:1009200082E06DCF08959ADF60E083E068CF08959C
:100930000895582F28E030E090E841E080E0642FEF
:10094000652309F0892B440F969521503109B9F799
:100950000895A0E0B0E0EFEAF4E00C94213A6C01D5
:1009600010E0C801860F911D813891050CF068C018
:10097000F12CE40EF11C81E4E816F1040CF060C0E7
:10098000D42FD695D695D69581E0E81AF10883E064
:10099000F594E7948A95E1F7822F8270A82E21FFC3
:1009A0000DC0C70199278D1B9109809FA001819FD0
:1009B000500D909F500D1124C40ED51ECE2DC83061
:1009C00008F0C7E0862F82958F708061682E6F7067
:1009D000B62E2170722E780181E0E81AF108CD1749
:1009E00050F18D2F806B31DF862D2FDF8B2D2DDF8A
:1009F000812C912C80169106A9F0772031F0F70117
:100A0000E819F909EC0DFD1D03C0F601E80DF91D0B
:100A10008491A1108EDF682F81E0BDDE8FEF881AF0
:100A2000980AE8CFAA2019F0C01AD10A02C0C00E55
:100A3000D11EDF5FD4CF809104018F70806B05DF02
:100A4000CDB7DEB7EEE00C943D3AEF920F93482F0E
:100A5000282F2F7080E6289F90011124C90181530F
:100A60009E4F242F207344FF02C038E001C038E4B9
:100A700030931001203218F01092000108C020E2DB
:100A800020930001209110012D5E2093100120E29F
:100A9000E22E08E120E0409100016091100159DF51
:100AA0000F91EF900895EF920F93262FFC01649120
:100AB00031964491319604913196E4903091000141
:100AC000430F30911001630F049643DF0F91EF90B5
:100AD000089560E0E8CF0895EF920F93CF93C82F69
:100AE000809146018F5F8093460140910401440F3D
:100AF000440F440F26E0C29FC001112428E0E22EDB
:100B000006E020E060910F0181599B4F22DF809128
:100B10000F018A5F80930F014C2F50E0FA0131974B
:100B2000EA30F105E0F4EC5CFF4F0C946D398EE394
:100B300005C08CE7CCD28CE313C08CE7C8D28CE71D
:100B40000FC082E50DC08DE20BC085E709C08FE4C0
:100B5000BED288E6BCD28DE603C08CE401C08C2FE7
:100B6000B6D2CF910F91EF9008958F5CB5CF0895D5
:100B700080E2B2CF0895A1E0B0E0E1ECF5E00C94A2
:100B80002D3A18162CF48983F3DF89818150F9CF2F
:100B90002196E2E00C94493A9091460185E1891B47
:100BA000EACF0895A1E0B0E0E8EDF5E00C942D3A2D
:100BB0008983F2DF53DE9091AD019F5F9093AD0189
:100BC0008981983038F097E09093AD0191E090934F
:100BD000490102C010924901682F8091AD010FDEDA
:100BE0002196E2E00C94493ADDDFEEC308953BDE46
:100BF000D3DF39CE08958DDECFDF8BCE08958DE320
:100C00006BCF0895CF93DF93EC018991882311F086
:100C100063DFFBCFDF91CF910895CF93DF93EC019A
:100C2000FE018491982F9F7719F056DF2196F8CF17
:100C3000DF91CF910895CF93DF93EC01CE010E9415
:100C4000B03A982F9F7719F047DF2196F7CFDF91C1
:100C5000CF910895EF920F93FC0104913196E490A7
:100C6000029677DE0F91EF9008950F938FE991E050
:100C7000E2DF409191014D3F64F460917F017091FA
:100C80008001809181019091820103E026E4E6D009
:100C900002C08FE321DF0F91089597FF09C08F9362
:100CA0009F938DE219DF9F918F91909581959F4F32
:100CB0006CE271E04AE050E00E947D3AA3CFEDDFA4
:100CC00001C0EBDF55CFEF92FF920F931F93182FC8
:100CD000062FF42E81E891E0AEDFEE24E09147018B
:100CE000F09148018685E81611F4812F09C08485AA
:100CF000E81611F4802F04C08585E81611F48F2DB5
:100D0000EBDEE3948E2D833049F71F910F91FF9016
:100D1000EF900895EF92FF920F931F93182F062FD5
:100D2000F42E80E061DF87E891E085DFEE248E2DF0
:100D30001CDF65DFE0914701F09148018685E816E8
:100D400011F4812F09C08485E81611F4802F04C0A6
:100D50008585E81611F48F2DBFDE0ADFE3948E2D12
:100D6000833029F71F910F91FF90EF900895682F1E
:100D700080E092E0662309F491E0623009F481E0BA
:100D800008950F93082FEEEAF1E0880F880FE80F1F
:100D9000F11D6081718182819381643671058105C5
:100DA000910570F42091020127FD0AC0802FDFDF3A
:100DB000692F0E94D0206EEF23E044E038D104C0B8
:100DC0004FEF04E024E04AD0D3DE0F91089586303F
:100DD00058F4E1EAF1E0E80FF11DE80FF11D808120
:100DE000918163E02FD1C4CE08951F93182F809175
:100DF0007A01882319F0BCDE80E06EDE8ADD88E7A8
:100E000091E019DF812F82958F70E1DF812F8F7044
:100E1000DEDF1F910895CF93DF93809111018295BA
:100E20008F70C5E9D1E0C80FD11D88819EDE80E4B6
:100E300091E001DF8E8199DE80E491E0FCDEC5E97E
:100E4000D1E0809111018370C80FD11D8E818DDE9C
:100E500080911101CADFDF91CF910895AEE0B0E03B
:100E6000E4E3F7E00C941D3A142F622E702E6B0110
:100E70007C010F7080E389838A838B838C838D83CD
:100E80008E83F7FE0BC08DE227DEF094E094D094C1
:100E9000C094C11CD11CE11CF11C04C075FE02C031
:100EA0008BE21ADE033061F1043099F00530C1F0B5
:100EB0000630F1F074E6872E912CA12CB12C07306E
:100EC00029F530E8832E36E9932E38E9A32EB12C8C
:100ED0001DC060E1862E67E2962EA12CB12C16C0B3
:100EE00050EA852E56E8952EAA24A394B12C0EC064
:100EF00040E4842E42E4942E4FE0A42EB12C06C090
:100F000088EE882E83E0982EA12CB12C2AE0222E88
:100F1000312C412C512CC814D904EA04FB0470F084
:100F2000C701B6016B5F7F4F8F4F9F4FA2019101A9
:100F30000E942F3969017A011F5FEDCF81E1810F96
:100F40009BEA899F812D1124A82EA69486E0811BFF
:100F5000899F112D11241695912F990F190F811B1F
:100F6000182F4E0187E0880E911C2AE0A401C701CA
:100F7000B6010E945C3AF40101900020E9F7319734
:100F80007F01E818F9089E2C6701DD24812F90E08D
:100F900004968C159D0514F4A3941D5F8A2D90E092
:100FA0008B5C9F4F0E94B03AA82E74FE04C090162E
:100FB00010F40E1901C000E09E2C911A900E191425
:100FC00024F08EE289DD012F0E19111102C098EF75
:100FD000992E812C10E0C00ED11EE92C092C000C9A
:100FE000FF08482D50E04C155D05ACF4FA0136962B
:100FF000E01BF10B81E090E08C0F9D1FE80FF91FC3
:1010000080816ADD8394882D90E08E159F0549F7D5
:101010008EE262DDE6CFAA2011F08A2D5DDD66202A
:1010200011F0862D59DD2E96E2E10C94393A0F939A
:10103000362FBC0180E090E0022F242F432F0EDFDB
:101040000F9108950F93062FBC0180E090E026E5F4
:101050004DEF04DF0F9108950F93042F28E440E033
:10106000FDDE8AE739DD84DD0F910895E82FF0E099
:10107000EE0FFF1FE458FF4FA591B491909100012E
:10108000490F90911001690F20E0CD01E3CD089543
:10109000CF93DF93C82FD62FE0914701F0914801FD
:1010A00048E16EE18685E2DFE0914701F091480179
:1010B0004D2F6C2F8485DADFE0914701F0914801D4
:1010C00040E06EE18585D2DFDF91CF9108958F9367
:1010D0002F932AE080953B9A089410F4439802C01D
:1010E000439A000020D027D086952A95B1F72F91FA
:1010F0008F91089503D002D001D000D000D003D04A
:1011000002D001D000D000D003D002D001D000D056
:1011100000D0A89503D002D001D000D000D003D0D9
:1011200002D001D000D000D003D002D001D000D036
:1011300000D003D002D001D000D00000089590E08C
:10114000893C28F0885C48EC849FC00111240097FA
:1011500009F4089520918100277019F0DADF0197D2
:10116000F6CF8130910519F002973EE303C037E1D5
:1011700080E090E02091B200230F2093B30042E082
:101180004093700027E023BF889526E023BF10928C
:101190007000A895DCCF8F9384E0D1DF07C08F93D8
:1011A00082E0CDDF03C08F9381E0C9DF8F911F9371
:1011B000182F106410937C00E12FE07880913701A4
:1011C000E81759F0E0933701AEDF8EE980937A009B
:1011D00083E083BF889582E083BF20E030E0A901EF
:1011E000E0E01FC08EE980937A0083E083BF88959A
:1011F00082E083BF6091780070917900260F371FDD
:10120000411D511DE43061F480913901803041F07D
:1012100084E02030380720F417FD02C01068CACFE0
:10122000EF5F80913601E817E8F260913A01709122
:101230003B0117FF04C0609138017091390180E0D3
:1012400090E00E94ED382FEF33E040E050E00E9444
:101250002F39B901CA012091360130E040E050E059
:101260000E942F39C9011F91089599B193FB9927C5
:1012700090F94999926080911C01843050F08EE081
:10128000809318019093190110921D0181E08093C1
:101290001C0180911C01E82FF0E0E85EFE4F3081D8
:1012A000391729F191111AC0E3E0E80FE37020919A
:1012B0001D01323041F4F0E0E85EFE4F3081333002
:1012C00069F42F5F09C0313049F4F0E0E85EFE4F69
:1012D0003081333019F4215020931D01E1E0E80FF3
:1012E000E370E0931C01F0E0E85EFE4F9083809194
:1012F0001D0187FD819580931E010895A0E0B0E057
:10130000E4E8F9E00C94263AE82ED92E5398519847
:1013100005DF10921D01E0911C01F0E03196E370B1
:10132000FF27E85EFE4F80EF8083C5E6D9E19DDFB1
:101330004F9905C0F7DED150D1F7C150B9F7CE2D86
:10134000DD2DF12C15E500E0BB24B394D7FD36C0AC
:1013500082E3C82E8ADFE6DECA94C110FBCF110FEC
:101360004F9B1F5F1F731F3349F4011103C0CE2D24
:10137000DD2D04E00F5F063928F020C0111102C0F6
:1013800001111CC0A8951C161D0624F42A9711F4FF
:10139000CFEFDFEF80911E01882339F0F394809125
:1013A0007B01811102C0B0927B0184E18F1570F640
:1013B00080911D01811102C0F12CC8CF802FCDB7C3
:1013C000DEB7E9E00C94423ACF9326DAC82F809139
:1013D0004901882301F1813051F4C73041F464E1BF
:1013E00087E00DDA8BE278DB64E187E008DA80E4FD
:1013F0009FE184DF811104C080911E018111F7CF2C
:10140000C73041F480914901813021F460E087E0E8
:10141000F6D9C2DB0ADACF91089586E693E00E94FE
:10142000B03A382F87E693E00E94B03A20913E010F
:10143000230F30913F01381F209321013093220167
:1014400083E0283E380720F0C901885E934002C03F
:1014500080E090E062E370E00E940839683008F0B4
:1014600067E0EFE5F1E0E60FF11DE60FF11D4591B4
:1014700055912591359162E3681B421B530B649F84
:10148000C001659F900D1124499662E370E00E94AF
:101490000839620F731F70937E0160937D0188E6A7
:1014A00093E00E94B03A992787FD909560913E01A4
:1014B00070913F01860F971F9093390180933801F7
:1014C00090937901809378010895CF93DF9324E17D
:1014D00030E0B9010E940839DC01E1E7F1E0E60FF4
:1014E000F71FE60FF71FC591D591459155914C1BFC
:1014F0004A9FC0011124B9010E9408396C0F7D1F59
:10150000CB01DF91CF910895189518951092250180
:10151000109223011092730110925901109224012C
:101520001092450110927A01EEE5F1E010821182ED
:101530001282EFE7F1E0108A82E0818B10920201C3
:1015400017861686148215821682178281EF838B86
:1015500008957FD95E9880E090E0D0CE0895A1E014
:10156000B0E0E5EBFAE00C942B3A98E097B998B923
:10157000E82FF0E0E75BFE4F949195B9262F281BEA
:10158000E20FF11D27FDFA95E491E92BE4B9698397
:101590000EDE8C016981862F0ADEAC0120913A01B2
:1015A00030913B0136952795B90163507109C80107
:1015B0004E966817790770F4255E3F4F02171307A0
:1015C00048F4CA014E966817790720F481E0421763
:1015D000530708F080E014B82196E4E00C94473AF1
:1015E000CF9361E080E0BBDFC82F62E080E0B7DF2F
:1015F000C80F62E081E0B3DF8C0FCF910895A3E1C3
:10160000B0E0E5E0FBE00C941D3AB82E1092250105
:10161000807FA9F4E5DF833009F0BAC32BD981E7D5
:1016200092E009DB76D98FE357DA80ED97E066DE4A
:101630008B30C0F41FD98EE091E0FDDAA9C306E932
:1016400010E018D986ED91E0F6DACADF833021F494
:101650001F5F143010F006C010E088E270DD01500A
:1016600081F763C056D90E94AE1B8AEC90E0E3DAA2
:1016700060E080E493E00E94BD3A60E081E493E0A2
:101680000E94BD3A60E08FE393E00E94BD3A60E0C3
:1016900082E00E94D0206C019A83898361E082E01D
:1016A0000E94D0207C019C838B8360E081E00E94BB
:1016B000D0208C019E838D8323E040E26EEFC60133
:1016C000B6DC23E040E26EEFC701B1DC23E044E08A
:1016D0006EEFC801ACDC2AE5C216D10424F084E127
:1016E00090E09A838983698180E493E00E94BD3A07
:1016F0008AE5E816F10424F084E190E09C838B8372
:101700006B8181E493E00E94BD3A0A35110524F013
:1017100084E190E09E838D836D818FE393E00E944E
:10172000BD3A82E0809349014FDEEB2DEF70EF87E9
:10173000E13011F018E770C101E010E068EB862E8F
:1017400062ED962E67E4A62EB12C72E0E72EE8E05B
:10175000FE2EFCE02F2EA4EC4A2EA6E35A2E612C7E
:10176000712CC12C302E50E2D52E45DA40DA84E5BA
:10177000B3D9C8019DDAFCD901301105B1F48DEF60
:1017800090E059DA64E080913E0190913F015ADC8B
:10179000C0D888EF90E04FDA80917D0190917E0172
:1017A00087DA8EEB8093360172C0F2E03F1242C0BE
:1017B00020913A0130913B01A8E5BBE10E947339C9
:1017C000A30192010E94513981E085B985E084B975
:1017D00080E0288B398B4A8B5B8BDDDC288939894B
:1017E0004A895B89821B930B9A83898381E184B93F
:1017F00080E0288B398B4A8B5B8BCDDC288939893B
:101800004A895B89821B930B9C838B8384E085B917
:1018100084E184B981E0288B398B4A8B5B8BBBDCFC
:1018200028893989821B930B9E838D8382EE90E0F9
:1018300002DA3AC0E3E03E122AC0E5B8FAE0F4B9B1
:1018400080E0A9DC20913A0130913B013695279543
:1018500038872F83821B930B9A83898322E224B9D2
:1018600080E099DC2F813885821B930B9C838B83CE
:10187000F5B888E284B981E08EDC2F813885821B3F
:10188000930B9E838D8384ED90E0D5D924C00430E2
:10189000110551F481E692E0CED9A2DE882309F445
:1018A00044C0B2E0CB2E41C005301105A1F415B8FB
:1018B000E4B880E070DC9A838983F4B881E06BDC63
:1018C0009C838B83D4B882E066DC9E838D8384EF17
:1018D00090E0B1D96EC00630110539F5E4B8E5B82D
:1018E00080E059DC20913A0130913B01821B930B3F
:1018F0009A838983F4B8F5B881E04DDC20913A01F0
:1019000030913B01821B930B9C838B83D4B8D5B859
:1019100082E041DC20913A0130913B01821B930B24
:101920009E838D8380EF90E042C00730110509F05F
:1019300040C020913A0130913B01A8E5BBE10E94F3
:101940007339A50194010E942F39E5B8E3E0E4B9A9
:1019500080E0288B398B4A8B5B8B1DDC2889398989
:101960004A895B89821B930B9A838983F5B824B8D3
:1019700081E0288B398B4A8B5B8B0DDC2889398978
:101980004A895B89821B930B9C838B83D5B8F0E3D8
:10199000F4B982E0288B398B4A8B5B8BFCDB28897E
:1019A0003989821B930B9E838D838EEC90E043D903
:1019B00003C00130110569F00E94890489819A8170
:1019C0006CD9D6D88B819C8168D9D2D88D819E81E3
:1019D00064D9F7B8F8B814B815B888EE93E08EDC7F
:1019E0000430110511F08B3028F4C39423E02C153A
:1019F00008F0BBCE88EE93E081DC0F5F1F4F08300C
:101A0000110509F0AECE96CEF6D881E692E013D954
:101A100084E695DB115019F0E3DD8111F5CF0E94CA
:101A20003A0483EC90E007D923E044E06FEF809123
:101A30003C0190913D01FBDA0E9489048CEB90E01F
:101A4000FAD823E044E06FEF809143019091440184
:101A5000EEDA82E080934901B7DC109225010E9402
:101A60003A0488EB90E0E7D860E082E00E944D18ED
:101A70008090870190908801A0908901B0908A01A0
:101A80009C868B8661E082E00E944D18C0908701A1
:101A9000D0908801E0908901F0908A01DE86CD86A1
:101AA00060E081E00E944D1800918701109188014B
:101AB0001E830D8362E080E00E944D1880918701B3
:101AC000909188019C838B8362E081E00E944D1895
:101AD00080918701909188019A87898761E080E0F1
:101AE0000E944D1820918701309188013A83298303
:101AF0008F85813021F080914201823029F42E5F60
:101B00003F4F38872F8304C038872F8310924201BC
:101B1000C401D7D8C601D5D8B801110F880B990BCD
:101B200003E026E444EF9AD98E010F5F1F4F6E0148
:101B3000EFE0CE0ED11CF801819191910A97853B7F
:101B40009105D0F4EC15FD05B9F74FE5E42E43E01F
:101B5000F42EF80160810E5F1F4F6E5EC7010E9478
:101B6000BD3AFFEFEF1AFF0A0C151D0591F70E9411
:101B7000890484EC91E05FD882E08093490124DC01
:101B80000E94302F2F85213029F080914201823030
:101B900009F0E7C020E4F22E10E03AE0832E912C09
:101BA000A12CB12CB3DC0E943A0480E00E94B50560
:101BB0008AE691E040D882E00E94B5058DE290E08F
:101BC0003AD81092250160E082E00E944D18009101
:101BD000910160917F0170918001809181019091CC
:101BE0008201073F44F40F5FA50194010E942F3941
:101BF000CA01B901F6CF0093910160937F01709300
:101C000080018093810190938201073F09F094C085
:101C1000DC01CB0180569109A109B10980399545B4
:101C2000A105B10508F088C06091930170919401FD
:101C3000CB018B569F4F8B32914008F07DC01F5FC8
:101C4000153008F47AC086E693E00E94CB3A0E94F1
:101C50003A0486E290E00E941B06809193019091E5
:101C600094011BD8DADB88E088B989E087B980E283
:101C700084B982E09CDA853D9340DCF714B8109279
:101C800039011092380182E092DA8C01809178015A
:101C900090917901909339018093380182E087DA3D
:101CA0007C01EE0CFF1C109239011092380182E089
:101CB0007EDAC0907801D0907901D0923901C0923B
:101CC0003801800F911F8C010E191F090E94890491
:101CD0008FE190E00E941B0688E693E00E94B03AF4
:101CE00093E0B92EB80E9601D8010E94823997016F
:101CF0000F2C000C440B550B0E9451391B2D120F59
:101D0000612F88E693E00E94BD3A812F012E000CDE
:101D1000990B0E944D0681DB82E08093490154DBE0
:101D2000109242018FE593E00E94B03A682F82E65C
:101D300093E00E94BD3A15C010E00E9489046091B2
:101D40007F0170918001809181019091820104E076
:101D500026E44091910182D888E2F1D9FA94F110F9
:101D600021CF87E3809336010E9430320E943A04EB
:101D70008EE091E00E941B060E94890488E592E0B3
:101D80000E941B061092250182E0809349011CDB12
:101D90006396E2E10C94393A8091420181110DC0C1
:101DA0008FE593E00E94B03A61E0680F82E693E02D
:101DB0000E94BD3A81E0809342010895A1E0B0E025
:101DC000E4EEFEE00C94283AE82FF0E0E45BFE4FEE
:101DD000E491E8B9E860E7B915B8E62FF0E0E75B11
:101DE000FE4FE491E4B988E8E82E83E1F82EDE2E78
:101DF000DD0C862F6983CFD98C01D4B869818E150B
:101E00009F0510F47801F5CF892BE9F00E94930427
:101E10008AE491E00E941B06D80120EA36E841E0FE
:101E200050E00E94883928E937EB40E050E00E94FA
:101E30002F39DA01C90122E041E467EFF8D888E0E0
:101E400087B988B914B82196E7E00C94443A0F9307
:101E50001F93CF93DF9385E0AAD985E0A4D9EC0145
:101E60008C01000F111F000F111F10924001C801BB
:101E70008E54924089349D4050F088EB91E00E944E
:101E80001B060E94CC0581E08093400125C087ECB1
:101E900091E00E941B0662E0C8018A5C9E4FD2D886
:101EA0000E94B805C13683E0D80780F4C934D34016
:101EB00050F48CEC92E00E941B060E94CC058DEC45
:101EC0003ED947DB09C083ED92E002C084EC91E08B
:101ED0000E941B060E94CC05DF91CF911F910F91AC
:101EE0000895A8E1B0E0E7E7FFE00C941D3A8F8B7E
:101EF000688F4983A895E62FF0E0E75BFE4F2491B9
:101F00002E8733966490E42FF0E0E75BFE4F549009
:101F1000052D000FE82FF0E0E75BFE4F149133969C
:101F20003491388738603B87462D4860442E55B839
:101F300025292A8324B937B9588558B9888D33D9CA
:101F40009A878987802F852985B96E85602B6C8358
:101F500064B9888D28D97C018E8584B9888D23D970
:101F60001C0114B8D6D815B89A8194B9888D1BD99C
:101F7000E985FA858E179F0718F5805E9E4FE81752
:101F8000F90708F4CDC447B888E088B915B9812F9E
:101F9000852984B9E0903A01F0903B018F8903D9FB
:101FA0009701281B390B3A87298714B9E0903A0129
:101FB000F0903B018F89F7D8E81AF90A170108C099
:101FC00029853A85205E3E4F8217930708F4A8C4FE
:101FD000209159018091730190E0820F911D029729
:101FE0004CF0213009F09CC4909156018091700111
:101FF000981396C449855A854437510508F4A5C0FD
:10200000CA01880F991F44962816390608F09DC00A
:102010005B8557B9688568B98C8184B9888DBFD8CC
:102020006C018981C4D87C0105B9888DB8D8960126
:10203000295A3D4F012B28173907D0F588E088B978
:1020400047B804B905B98981AAD888349F4028F0D7
:1020500085E08093250182E204C085E0809325011C
:1020600084E280932401D0924F01C0924E01EC147F
:10207000FD0440F4C6018E199F0990935501809389
:10208000540104C010925501109254019601A0E130
:10209000B7E20E94733920911F013091200140E086
:1020A00050E00E942F3930935101209350012FC4EA
:1020B00088E088B947B804B905B98F8970D86C0130
:1020C000898175D87C0115B98F8969D8895A9D4F46
:1020D0008C159D0508F024C4F885F8B92B8527B91F
:1020E00089815DD8813D934028F485E08093250166
:1020F00082E304C085E08093250184E3809324017A
:10210000CE14DF0438F4EC18FD08F0926F01E09271
:102110006E0104C010926F0110926E0120913A017D
:1021200030913B012C193D09A0E1B7E20E947339BF
:10213000209126013091270140E050E00E942F3984
:1021400030936B0120936A01C1C188E088B947B818
:1021500015B9712E752874B88F8925D89D878C87FD
:10216000A0903A01B0903B01898121D86C018A305E
:10217000910558F514B881E00E949F08802F812BAB
:1021800084B98F8910D89D878C87A0903A01B09030
:102190003B01F501E81BF90BF88BEF87898107D824
:1021A0006C01209126013091270140E050E060E869
:1021B00071EA83E09CE10E942F39AF85B8890E94C3
:1021C0008839960140E050E012C095014C855D854C
:1021D000241B350B388B2F87281B390BA4E6B0E066
:1021E0000E9473394601A12CB12CA50194010E94D3
:1021F0002F3949015A0114B815B8588558B96B855B
:1022000067B981E00E949F0889EBE81687E0F8062D
:1022100008F086C39A8194B9888D0E94D3088F35BF
:102220009D4008F459C114B881E00E949F08FA81CA
:10223000F4B981E00E949F082C8124B9888D0E9406
:10224000D3087C0189810E94D7089A8B898B8F895A
:102250000E94D7089F838E8349895A89413D574000
:1022600008F4C0C005B9888D0E94CF08811594403C
:1022700078F08AE0809325012E813F8149895A892F
:10228000241B350B309369012093680181E007C45A
:1022900084E0809325018DE08093240187012E1432
:1022A0003F0410F40219130940901F0150902001BF
:1022B000612C712C60E871EA83E09CE1A30192013A
:1022C0000E942F39D8010E948839E989FA898F0143
:1022D00020E030E0A90198010E942F39809173011C
:1022E000882369F08091640190916501A091660155
:1022F000B091670182179307A407B50708F52093EB
:102300006401309365014093660150936701970122
:10231000A0E1B7E20E947339A30192010E942F3914
:1023200030936B0120936A012E813F8149895A893C
:10233000241B350B309369012093680181E001C0B3
:1023400080E0409164015091650160916601709157
:102350006701481559056A057B0528F580926401D7
:1023600090926501A0926601B09267018C859D856F
:102370008C199D0990936901809368012F85388994
:10238000A0E1B7E20E947339209126013091270124
:1023900040E050E00E942F39205F384D30936B01B0
:1023A00020936A0103C0882309F479C39101A0E155
:1023B000B7E20E947339A30192010E942F39309332
:1023C0006D0120936C0129853A85A0E1B7E20E9456
:1023D0007339A30192010E942F3930936F0120932A
:1023E0006E0154CF51E62516310408F075C061ED39
:1023F000E61667E0F60608F46FC085E080932501D5
:1024000082E180932401C70186509F4FEE81FF81B6
:102410008E179F0720F483E1809324011BC02E8137
:102420003F81E216F30690F4A0911F01B0912001C4
:102430002E193F090E947339970140E050E00E9435
:102440002F39309369012093680104C0109269010B
:1024500010926801362D3770632E898180648093D5
:102460007C00ABE0FA2E01E010E0AA24AA94B3E0CD
:10247000BB2EA89561E0852D28D54C8144B986B145
:102480008621E9F35E8554B980917A008064809357
:102490007A0080917A0086FDFCCF8091780090913F
:1024A0007900F501E81BF90B0E0F1F1FFA94F110CC
:1024B000E0CFC801880F991F880F991F69E070E06D
:1024C0000E94083970936F0160936E0180917301CF
:1024D0008F5F80937301DACEFA81F4B955B8888D95
:1024E0000E94D3089B838A8389810E94D7089F8397
:1024F0008E8340913A0150913B01481B590B4A3061
:10250000510550F514B881E00E949F082C8124B930
:1025100005B9888D0E94D3089B838A8389810E9494
:10252000D7089F838E8320911F013091200140E0C6
:1025300050E060E871EA83E09CE10E942F39AA81B3
:10254000BB810E94883920913A0130913B014E8134
:102550005F81241B350B09C02A813B81241B350B6D
:10256000A4E6B0E00E9473399A0140E050E00E9476
:102570002F3949015A0147B888E088B974B875B84D
:102580008F890E94D3086C0189810E94D7089D839E
:102590008C83888D0E94D7089C0150E3C51651E1B9
:1025A000D50608F0BAC115B98F892D8B3E8B0E94D4
:1025B000D308AC0114B98F894B8B5C8B0E94D30874
:1025C0007C0115B881E00E949F0815B98F890E948F
:1025D000D3082D893E894B895C8960E4E61666E064
:1025E000F60608F056C08133914108F452C0C60186
:1025F0008A569F4F4817590708F04BC086E08093D2
:102600002501809159018F5F809359018C819D81B3
:10261000821B930B90934F0180934E01C21AD30AF1
:10262000D0925501C092540114B815B868B881E031
:102630000E949F0814B98F890E94D308853F910595
:1026400008F03EC274B889810E94D308813D93404E
:1026500008F436C28F890E94D7088D3D924008F455
:102660002FC214B98F890E94D3088D3D924008F47F
:1026700027C215B981E00E949F0815B88F890E9472
:10268000D308853F910508F01BC287E080932501A0
:1026900017C274B875B881E00E949F08012B04B975
:1026A00005B98F890E94D3083C01E0903A01F0906F
:1026B0003B01E81AF90A89810E94D7089D838C831F
:1026C00020913A0130913B01A901481B590B5D87CC
:1026D0004C87888D0E94D7086C018C859D858E3F24
:1026E000994008F4AAC084E0809325018CE080938F
:1026F000240187012E143F0410F40219130940909D
:10270000260150902701612C712C60E871EA83E06A
:102710009CE1A30192010E942F39D8010E948839BF
:10272000EC85FD859F0140E050E00E942F398091AB
:102730005901882369F080914A0190914B01A09141
:102740004C01B0914D0182179307A407B507F8F427
:1027500020934A0130934B0140934C0150934D011B
:102760008C819D818C199D0990934F0180934E011E
:102770009701A0E1B7E20E947339A30192010E9480
:102780002F39309351012093500181E001C080E046
:1027900040914A0150914B0160914C0170914D0163
:1027A000481559056A057B0528F580924A019092E3
:1027B0004B01A0924C01B0924D018E819F812A81E4
:1027C0003B81821B930B90934F0180934E01A0E1BC
:1027D000B7E20E94733920911F013091200140E03F
:1027E00050E00E942F39205F384D309351012093E3
:1027F000500103C0882309F464C19101A0E1B7E24C
:102800000E94733920911F013091200140E050E077
:102810000E942F39309353012093520129853A8524
:10282000A0E1B7E20E947339A30192010E942F39FF
:10283000309355012093540143C131E623163104EE
:1028400008F06BC049E4E4164DE0F40608F465C0F6
:1028500085E08093250182E080932401C6018650A3
:102860009F4F8615970520F483E0809324011AC0BA
:10287000C614D70498F4A0912601B09127019301C2
:102880002C193D090E947339970140E050E00E94E5
:102890002F3930934F0120934E0104C010924F0105
:1028A00010924E0158855770252E8981806480933F
:1028B0007C007BE0D72EEE24E394F12CA89560E019
:1028C000852D03D304B905B986B18221E9F714B97E
:1028D00080917A00806480937A0080917A0086FDEE
:1028E000FCCF8091780090917900E80EF91EDA947F
:1028F000D110E4CFC701880F991F880F991F69E095
:1029000070E00E94083970935501609354018091E2
:1029100059018F5F80935901D3C088E087B988B986
:1029200014B815B888E087B967EC261661E036065A
:1029300008F4A9C088B908ECFB84F428F7B881E052
:102940000E949F0847B88F890E94D708429710F0CD
:102950000150A1F77E84770C612E660C64B865B8CF
:1029600061E0852DB2D28F890E94D3086C0174B8C2
:1029700015B88B8587B9988598B960E0852DA5D263
:1029800080903A0190903B01888D0E94D3085C01B1
:10299000EE85E4B98F890E94D3087C01888D0E945E
:1029A000D708E81AF90A88E088B947B814B915B900
:1029B00061E0852D8AD28F890E94D3088C01888D91
:1029C0000E94D708081B190BE016F10638F464B80A
:1029D00065B88F890E94D308780117C06401CA18AE
:1029E000DB0874B815B8FB85F7B9288528B960E00D
:1029F000852D6BD200913A0110913B01888D0E9488
:102A0000D308A801481B590BCA019701275931095E
:102A100029383141C0F58E159F05A8F5C60153E050
:102A2000969587955A95E1F7893C910510F088ECC9
:102A300090E08C0D9D1D8E159F0528F5C70144E083
:102A4000969587954A95E1F78C159D05E0F4809160
:102A50002501833018F483E0809325012091230120
:102A6000822F90E0FC01EB56FE4F6F896083388D1A
:102A70003683880F991FFC01EF55FE4FF182E082EB
:102A80002F5F20932301688D8F892CD088E087B930
:102A900088B914B815B86896E2E10C94393A909167
:102AA00073019F5F90937301882381F34981409361
:102AB0007001588D509371016F8960937201E6CF58
:102AC00081E0909159019F5F909359018823F1F221
:102AD0008981809356019F8990935701E88DE093F7
:102AE0005801D4CFA0E0B0E0E8E7F5E10C941F3A3C
:102AF000A895E62FF0E0E75BFE4FB49033969491F3
:102B0000E82FF0E0E75BFE4FC4913396F4904091DC
:102B100073012091590130E0240F311D232B09F05E
:102B2000CFC1862E982EA8952091290130912A0197
:102B3000220F331F220F331F30933B0120933A01A2
:102B40002091780130917901220F331F220F331F1A
:102B500030933901209338018EEB8093360188E061
:102B600088B9E92FE860E7B9C4B9C5B9D8E1C12C83
:102B7000D12C882D0E94D308782E692E892D0E9491
:102B8000D7088C018C199D0997FF03C091958195F9
:102B9000910903972CF0A895D150680151F72EC0E8
:102BA000CC0F15B8C4B9892D0E94D3088135910581
:102BB00028F5C5B9892D0E94D308EC018F2D8860B6
:102BC00087B9F8B815B8B4B8A8E1AA2E412C512C91
:102BD000892D0E94D3086C01882D0E94D7087C01A2
:102BE0008419950997FF03C09195819591090397E1
:102BF000CCF0A895AA942701A110EACF80912901D1
:102C000090912A0190933B0180933A018091780141
:102C100090917901909339018093380187E38093F3
:102C200036014EC1BB0CB4B8882D0E94D3085C019C
:102C3000003C84E4180728F4C53821E0D207F0F6F8
:102C400004C0C03B8DE4D807C8F694EAE91692E0C8
:102C5000F90608F065C028E9A216B10478F20091DF
:102C60003A0110913B019E01A8E9B7EB0E9473392C
:102C700098012C1B3D0B40E050E00E942F39690168
:102C80007A0198012A193B09A8E9B7EB0E94733928
:102C9000850120E030E0A90198010E942F39C83752
:102CA000DF4050F4F2E0CC0CDD1CEE1CFF1CFA956A
:102CB000D1F7CA01B90110C098E7A9169FE0B9067B
:102CC000B0F4DA01C901E2E0880F991FAA1FBB1F07
:102CD000EA95D1F7BC01CD016C0D7D1D8E1D9F1DA8
:102CE00025E030E040E050E00E942F390CC0DA01CE
:102CF000C9018C0D9D1DAE1DBF1D9C01AD015695DA
:102D0000479537952795A4E6B0E00E9488396B0176
:102D10007C012CEAC20E2DE0D21EE11CF11C78C011
:102D2000272D362D0217130708F49801E701EC143C
:102D3000FD0408F4E60159012017310708F4580191
:102D4000A0912601B0912701C501821B930B9C0124
:102D50000E94733920913A0130913B012A193B09B5
:102D600040E050E00E942F3929013A018E01EC1613
:102D7000FD0608F48701A0911F01B09120019E017A
:102D8000201B310B0E9473396801E12CF12CA70143
:102D900096010E942F3998E7A9169FE0B90680F4A2
:102DA000D301C20162E0880F991FAA1FBB1F6A9559
:102DB000D1F7BC01CD01620F731F841F951F13C093
:102DC00008378FE01807C0F4DA01C90132E0880F34
:102DD000991FAA1FBB1F3A95D1F7BC01CD01640D05
:102DE000751D861D971D25E030E040E050E00E94F3
:102DF0002F3969017A010CC0DA01C901840D951DD2
:102E0000A61DB71D6C017D01F694E794D794C79475
:102E100010912501143008F0F1CE9A94890C282DD8
:102E200030E0E901C25ADE4F8881220F331F220FA2
:102E3000331FF901E255FE4F8823D9F140805180BC
:102E400062807380A7019601241935094609570944
:102E500057FF07C050954095309521953F4F4F4FF4
:102E60005F4FAAE0B0E00E94883924E6420E511C70
:102E7000611C711CA30192012C0D3D1D4E1D5F1D97
:102E80000E942F39232B242B252B09F0B7CE13308A
:102E900019F081E08093250182E0888380917A0196
:102EA000E82FF0E0EF59FE4F80828F5F80937A0128
:102EB000A5CEC082D182E282F38281E088839ECE59
:102EC000CDB7DEB7E0E10C943B3ACF93C82FC09565
:102ED00095B160FF02C0982B01C09C2395B994B1B5
:102EE000892B84B982E00E949F0884B18C2384B925
:102EF00085B18C2385B9CF910895A0E0B0E0E3E8D7
:102F0000F7E10C94253A1AE008E08FE3C82E99E027
:102F1000D92E07B908B915B8C4B880E00E94D30803
:102F20007C0181E00E94D708EC0182E00E94D70872
:102F30009C0180912501893081F488E087B914B81B
:102F4000F0920601E0920501D0930801C0930701B9
:102F500030930A01209309015BC084E0E816F10474
:102F600040F4C430D10550F42430310530F399E0F9
:102F70000BC088EEE81683E0F80610F499E001C073
:102F800098E0C83ED34008F49260283E334008F4ED
:102F9000946097B9C0E0D0E0A89580E00E94CB088B
:102FA0005C0181E00E94D7087C0182E00E94D70882
:102FB00024E1A21625E0B20608F4389A24E1E216CC
:102FC00025E0F20608F4399A843125E0920708F4E6
:102FD0003A9A26E0A216B10430F426E0E216F10493
:102FE00010F4069738F02196C43F81E0D807A1F687
:102FF000D0922501E12CF12CEC16FD0631F00E9457
:103000008E082FEFE21AF20AF7CF115009F081CFA4
:10301000CDB7DEB7EAE00C94413ACF92DF92EF925F
:10302000FF92CF9320917F013091800140918101E7
:1030300050918201C09191018AE0C82ED12CE12CDF
:10304000F12C8C2FCF5F213A96E8390791E04907A0
:10305000510538F0CA01B901A70196010E942F3924
:10306000F0CF80939101A0913A01B0913B010E9471
:10307000883928E833E140E050E00E942F3920935E
:103080007F01309380014093810150938201CF9161
:10309000FF90EF90DF90CF900895A4E0B0E0E3E5DB
:1030A000F8E10C94223A2FEF260F982F990F980FE2
:1030B000920F90935B01E82FF0E0E75BFE4FB49036
:1030C000262F30E0F901E75BFE4FF490F901E45B55
:1030D000FE4F049190912501913009F4B4C2909172
:1030E00023014BE951E025E9C22E21E0D22EFA015D
:1030F0002E2F241B2917B8F42191261310C09F01ED
:1031000027503109D9012C91281309C0D6011C96EA
:103110002D913C911D972C3D354008F494C222E03E
:10312000C20ED11CE5CF162F782E086010928C01AC
:1031300010928B0181EF8093910110927F01109288
:1031400080011092810110928201D7DE88E088B957
:1031500007B9F4B8F5B8872D0E94D7086C01812F04
:103160000E94D708C81AD90A14B810925D011092AB
:103170005C0180915C0190915D01843F914008F079
:10318000AFC0B5B8B4B80E94880814B815B80E948A
:103190008F08A895872D0E94D7087C01EC18FD08A0
:1031A00080915C0190915D018E37910528F07BE460
:1031B000E716F1040CF494C08DE2E81681E0F806FD
:1031C00054F480915C0190915D01019690935D01B2
:1031D00080935C01CECFC70120915C0130915D01ED
:1031E000232B09F0A3C1B5E1EB16B5E0FB060CF407
:1031F0009DC183DE15B88FE087B988E088B9FB2CC4
:10320000FF0CF4B880E480937B0084E580BF872DB9
:10321000806480937C0086E180937A000E9492080B
:1032200010925D0110925C01109280001092850056
:103230001092840087E286BB81E280936F0081E078
:1032400080937C01F5B890912501809381009530A1
:1032500009F04CC081E090E0072C01C0880F0A946F
:10326000EAF780958F7087B9F89483B7817F83BF21
:1032700080917C01882389F083B7816083BF789433
:10328000889583B78E7F83BFF894A89580915C0161
:1032900090915D018034964059F7789410928100A6
:1032A000E0908600F090870010926F0086E980938E
:1032B0007A0014B815B8872D0E94D70820913E01D6
:1032C00030913F01821B930B0C9690939401809355
:1032D000930180915C0190915D018032934040F0B8
:1032E00088E087B988B914B815B8ADC107B9BCCFA3
:1032F00080915C0190915D0190938A018093890196
:10330000F0928801E092870184EF8093910180918F
:103310005C0190915D0182349105C8F06091870154
:10332000709188018091890190918A0124E630E0B2
:1033300040E050E00E942F392093870130938801AC
:103340004093890150938A0186EF80939101A09167
:103350007D01B0917E0120918701309188014091DB
:10336000890150918A010E94883920E233E040E0CF
:1033700050E00E942F3920938701309388014093B9
:10338000890150938A0120937F01309380014093FB
:1033900081015093820141DE80919101843F09F0C7
:1033A00070C0C0907F01D0908001E0908101F090CA
:1033B000820120EAC2162FE0D206E104F104C0F433
:1033C000A70196012C543F4F4F4F5F4F60EA7FE0BB
:1033D00080E090E00E942F39C20ED31EE41EF51E3D
:1033E000C0927F01D0928001E0928101F09282012F
:1033F000C0907F01D0908001E0908101F090820127
:10340000C114D10471E0E706F10428F4D092BF01A1
:10341000C092BE0106C081E090E09093BF0180930E
:10342000BE0180915B0190E0815A9C4F0E94B03AAE
:1034300090E0A0E0B0E08C159D05AE05BF0568F4F6
:10344000C81AD90AEA0AFB0AC0927F01D092800109
:10345000E0928101F092820114C024E1C20ED11CDD
:10346000E11CF11CC816D906EA06FB0610F40E94FE
:10347000CC0E10927F011092800110928101109267
:103480008201B4B880917F0190918001A091810167
:10349000B09182014997A105B10508F421CFC12C53
:1034A000D12C80912301882329F08091250185303A
:1034B00009F016CF88E080932501809191019091C9
:1034C00092019817C4F089130BCF80907F019090E0
:1034D0008001A0908101B0908201409183015091C0
:1034E00084016091850170918601481559056A052E
:1034F0007B0508F0F5CE40917F01509180016091ED
:103500008101709182014093830150938401609303
:1035100085017093860180939201D0928E01C092B2
:103520008D0110938F0170929001DACEA12CB12CF5
:1035300020915C0130915D012A153B0560F00E94ED
:103540008908872D0E94D7088C199D09A8952FEF0F
:10355000A21AB20AEDCF5701A81AB90A1A141B040D
:103560009CF479ECA716B1040CF0BACE28EE33E047
:10357000D5010E94823997010F2C000C440B550B8A
:103580000E942F39690102C0C12CD12C80915C01AD
:1035900090915D010196A0E0B0E080938701909347
:1035A0008801A0938901B0938A01C7018A0D9B1DF0
:1035B00096D02091870130918801409189015091E6
:1035C0008A01DC010E948839609387017093880129
:1035D0008093890190938A0160937F0170938001A9
:1035E000809381019093820187EF8093910115DD93
:1035F00020917F01309180014091810150918201A1
:1036000082E493E029833A834B835C830E94B03A3F
:10361000A8EEB3E0A81BB10987FDB39529813A81D3
:103620004B815C810E94923924E630E040E050E01A
:103630000E942F3920937F013093800140938101B4
:10364000509382012ECF2496EDE00C943E3A1F92C7
:103650000F920FB60F9211248F939F93B59904C0C8
:1036600080917C01811109C0B59B10C080918600BA
:10367000909187008A3F910548F480915C01909178
:103680005D01019690935D0180935C019F918F9104
:103690000F900FBE0F901F9018951F920F920FB6AC
:1036A0000F9211248F939F9310927C01B09B10C0B6
:1036B00080918600909187008A3F910548F480911F
:1036C0005C0190915D01019690935D0180935C0196
:1036D0009F918F910F900FBE0F901F9018950F9292
:1036E00021E08C32920710F48CE291E08C529140F0
:1036F00069E170E00E94083999E16B3210F0982F6F
:103700006BE2981BE3EEF2E0E60FF11DE60FF11D10
:103710009F93CF010E94B03A482F3196CF010E946B
:10372000B03A582F3196CF010E94B03A282F3196E7
:10373000CF010E94B03A382F6F91421B530B649F08
:10374000C001659F900D11240C9669E170E00E9404
:103750000839620F731FCB010F900895A0E0B0E00D
:10376000E4EBFBE10C94233A88E893E190932A017F
:103770008093290190933B0180933A018EEB8093D3
:103780003601C8E0C8B988E187B90E949708C7B96F
:1037900084E00E94D308AC018B5C9840833F914049
:1037A000A0F481E08093450120913A0130913B01E2
:1037B000AFEBB9E00E9473399A0140E050E00E94FB
:1037C0002F3930932A01209329018091290190916A
:1037D0002A0190933B0180933A018EE00E94D70822
:1037E0008EE00E94D30890933F0180933E010E9497
:1037F0000D0A83DB88E0F82EF8B8C9E0C7B985E187
:1038000085B9DD24D394D4B880E00E94D3088C011C
:10381000DAE0D7B994E0892E84B881E00E94D30819
:10382000080F191F2CE0E22EE7B830E1932E94B870
:1038300082E00E94D308080F191F15B8C8B9C7B98C
:10384000D4B8C0903A01D0903B0180E00E94D308E8
:103850005C01D8B9D7B984B880913A0190913B0105
:10386000E601C80FD91F81E00E94D3086C01E8B8B7
:10387000E7B894B820913A0130913B01C20FD31FB1
:10388000CA19DB0982E00E94D308CC19DD09C81BE4
:10389000D90BF7B8F8B814B840913A0150913B01F0
:1038A0006A01CC0CDD1CC40ED51EC01AD10ACC1A7C
:1038B000DD0AE12CF12C9801A0E9BAE10E947339EC
:1038C000A70196010E942F3949015A013093440102
:1038D000209343019E01A0E9BAE10E947339A70138
:1038E00096010E942F3930933D0120933C012057CF
:1038F000354E309327012093260180E7881A85EE04
:10390000980A9092200180921F0187E380933601EC
:10391000CDB7DEB7ECE00C943F3A0F931F93CF93F3
:10392000DF93C82F162FD42F0E94B50581E291E0B6
:103930000E941B06F5D1612F8C2F0E94B430C1E08C
:103940008091C2019091C301A091C401B091C501C1
:10395000892B8A2B8B2B09F0C0E08091020187FD17
:1039600002C0C11104C08DE191E00E941B06812FAD
:103970000E94B505C11132C00E94B8058091610155
:103980000E94C106DD2309F47CC08091460182318A
:1039900028F490E08D599C4F0E941B0680E00E9405
:1039A000F405C11120C06091C2017091C3018091E2
:1039B000C4019091C50103E028E447EF0E942E075F
:1039C00080E391E00E941B0689E793E00E94B83AE9
:1039D00023E046E464EF0E9417081FC0D111D5CF41
:1039E00080E00E94F405809161010E94C1068091EF
:1039F00002018E3F94F48EE491E00E941B066091D8
:103A00000B0170910C0180910D0190910E0103E06A
:103A100028E4409102010E942E078091BA01909102
:103A2000BB01A091BC01B091BD01892B8A2B8B2BCE
:103A3000F1F080E00E94F4056091BA017091BB0141
:103A40008091BC019091BD0104E028E440E00E9417
:103A50002E078BE291E00E941B0623E040E26FEF0D
:103A60008091C0019091C1010E94170807C080E0B9
:103A70000E94D20580914901811107C00E94CC05A6
:103A800004C080E00E94F4058ECFDF91CF911F919A
:103A90000F910895EF92FF920F93CF93DF93D82F5A
:103AA0000E94330480918F010E94B5058AE691E05F
:103AB0000E941B061DD560918F018091900170D3EB
:103AC00090938C0180938B01C1E08A3F9F4F08F057
:103AD000C0E0E0908D01F0908E01CC2321F082E2D5
:103AE00091E00E941B06809190010E94B505DD23A4
:103AF00059F09091460182E1891B0E94BB0582E842
:103B000090E00E941B0602C00E94CC050E9489041E
:103B1000609183017091840180918501909186016B
:103B200004E026E4409192010E942E07CC2369F024
:103B300089E591E00E941B0622E044E06EEF80914F
:103B40008B0190918C010E9417080E94CC050E9465
:103B50008E04EF2869F082E591E00E941B0622E0C6
:103B600045E26FEF80918D0190918E010E941708C0
:103B70000E94CC05DF91CF910F91FF90EF900895B7
:103B80008F7021F40E9493040C94270F08958F30B6
:103B900021F490914001913011F08F5F089580E001
:103BA0000895CF938DE890E00E94F929C0E00E942B
:103BB000860A60E082E00E94721562E080E00E9466
:103BC00072150E94330480917A01882329F041E024
:103BD00062E080E0A2DE12C08DE890E00E941B0649
:103BE0008DE693E00E941B060E9489048FE30E94E9
:103BF0006C0580E00E94D2050E94CC058C2FC0DFAE
:103C000088EE93E00E947E09811109C080911E0117
:103C1000843028F48C2FBBDFC82F8A3F40F20E94EB
:103C20003A04CF9108950F931F93CF93DF93C0E091
:103C3000D8E012EF02E10E94860A60E082E02DDA0D
:103C4000D093250180919101843FE1F480917F011F
:103C500090918001A0918101B091820184369105FB
:103C6000A105B10578F440E060E082E00E94292ED1
:103C700060937F0170938001809381019093820112
:103C80001093910180919101823FACF08093920159
:103C900080917F0190918001A0918101B09182017A
:103CA0008093830190938401A0938501B093860152
:103CB00081E0F0DE1CC00E94330486E890E00E94A0
:103CC0001B0680914601902F981B892F0E94BB05EF
:103CD00082E890E00E941B060E9489048FE30E9404
:103CE0006C050E94CC050E948E040E94CC058C2F8E
:103CF00047DF88EE93E00E947E0981110AC080911F
:103D00001E01843030F48C2F42DFC82F8A3F08F424
:103D100092CF0E943A04DF91CF911F910F910895A5
:103D2000A8E1B0E0E6E9FEE10C941D3A82E0809360
:103D3000020180912501813009F02EC280917A0123
:103D4000813009F029C220916101298B34E0239F41
:103D5000F0011124E255FE4F408051806280738053
:103D600049E0441642E554066104710408F014C2A7
:103D70005B8A4A8A10E08989123028F40E94B706CB
:103D8000B82EA92E03C00E94B7065C01EA2DF0E010
:103D9000E45BFE4F24918B2D90E0FC01E75BFE4F2E
:103DA000E49115B858E058B930EF43165104610456
:103DB0007104B8F410FD15C020901F01309020014F
:103DC00040E9241A4AE1340A41E050E00B2C02C0D9
:103DD000440F551F0A94E2F7CA018860822B87B905
:103DE00008C0E4B9822F886087B920901F01309005
:103DF000200104E18B2D288F0E94CF084C018A2DD1
:103E00000E94D708288D54E08516910410F4049779
:103E100010F0015079F780E480937B0094E590BF27
:103E20008B2D806480937C0086E180937A00E12C66
:103E3000F12C10928000109285001092840087E28D
:103E400086BB288F0E949208012F0170288D10FDDB
:103E500005C081E88093810028B908C028B90E9474
:103E60009B0880E286BB81E88093810086B385FD54
:103E70000CC080FFFBCF21E026BBA89597012F5FE8
:103E80003F4F79012035310589F738E038B9109274
:103E9000810090E296BB20918600309187006901F5
:103EA00040918400509185002417350738F480FF35
:103EB00005C041E046BB5FEFE51AF50A86E980934D
:103EC0007A0024E18B2D288F0E94CF084C018A2D87
:103ED0000E94D708288D34E08316910410F40497CB
:103EE00010F0215079F780904301909044014A8965
:103EF0005B89840E951E820C931C209121013091C8
:103F0000220150E925165AE13506B0F481EEC816B3
:103F1000D104E104F10438F4C60165E070E00E94C8
:103F20000839645101C069E128523109261B310961
:103F300067FD339586E009C0C40160EB76E30E941B
:103F4000083987E0860F285D3F4F90E0A0E0B0E0A1
:103F50008C159D05AE05BF0528F4C81AD90AEA0AD2
:103F6000FB0A03C0C12CD12C7601002329F092E278
:103F7000C90ED11CE11CF11C40E5E416F10418F057
:103F8000C12CD12C76015BE0C516D104E104F1040B
:103F900028F081E0C81AD108E108F10840913A01FF
:103FA00050913B01A12CB12CA8EEB3E00E947339D3
:103FB0006C8B7D8B8E8B9F8B9101DA010E94733904
:103FC000A50194010E942F39442755276C897D89CA
:103FD0008E899F890E942F39C9010E94650AFC01C0
:103FE000A5019401C701B6010E94ED384B015C01A7
:103FF000CF01A0E0B0E073E0880F991FAA1FBB1F9C
:104000007A95D1F7BC01CD016B5F7F4F8F4F9F4FEA
:104010002AE030E040E050E00E942F39C501B401B1
:104020000E942F39E12FF0E0A1E0B0E0AC0FBD1FFE
:1040300094E0199FA00DB11D11242D933D934D9334
:104040005C931397011116C08CE0C816D104E104EB
:10405000F10480F03196EE0FFF1FEE0FFF1F81E09D
:1040600090E08C0F9D1FE80FF91F2083318342835E
:1040700053831F5FA8951F5F143008F47CCE88E03F
:1040800088B984E00E949F0891E00D811E812F81F4
:10409000388549815A816B817C81401751076207BD
:1040A000730708F090E00D851E852F8538894985B6
:1040B0005A856B857C85401751076207730710F49A
:1040C00083E001C082E0E92FF0E0EE0FFF1FEE0F6A
:1040D000FF1F21E030E02C0F3D1FE20FF31FD9013D
:1040E00034E0839FA00DB11D11240D911D912D91E0
:1040F0003C91408151816281738104171507260725
:10410000370708F0892FE1E0F0E0EC0FFD1F44E0F5
:10411000849FE00DF11D11244081518162817381E2
:1041200040930B0150930C0160930D0170930E01AD
:1041300080FD0AC080EF481651046104710420F428
:104140008BEF8093020117C08CEF80930201CB01AB
:10415000BA016B5F7F4F8F4F9F4F2AE030E040E006
:1041600050E00E942F3920930B0130930C014093B3
:104170000D0150930E0180910B0190910C01A091C3
:104180000D01B0910E01892B8A2B8B2B11F410920B
:10419000020188E087B914B86896E2E10C94393AD4
:1041A000AEE1B0E0E6EDF0E20C941D3A662EB82EDA
:1041B000860F898320912501283059F520918301AC
:1041C00030918401409185015091860157FD15C0C1
:1041D0001091920109C0CA01B9012AE0312D412D87
:1041E000512D0E942F391F5F173FACF391F42431FA
:1041F00060E036074105510518F48FEF9FEF45C188
:10420000173F39F480E028178DE73807410541054D
:1042100010F020E03DE72C8B3D8B26EDA22EECE448
:10422000F1E0E60DF11D859188608E87ECE4F1E008
:10423000EB0DF11D859188608F87E9E4F1E0E60DD3
:10424000F11D7590E9E4F1E0EB0DF11DC59090ECE6
:10425000692AB92A81E0E82EF12C012D112D8E83D7
:104260001F82188619861A861B861C861D86188E44
:10427000198E1B8E1A8E0E947D1788E088B9609275
:104280007C000E9493083F8537B975B874B852E036
:104290005A95F1F70000000014B815B8DD243E85EA
:1042A00037B975B874B860927C00A895A0927A006E
:1042B00080917A0086FDFCCF2090780030907900C4
:1042C000B0927C004C2DE5D020917800309179009F
:1042D000288B398B3F8537B9C5B8C4B8A895B0923B
:1042E0007C00A0927A0080917A0086FDFCCF6091DC
:1042F00078007091790060927C00472DCAD040917F
:1043000078005091790014B8CB01820D931DE80E0E
:10431000F91E011D111DEA82FB820C831D83888911
:104320009989840F951F2E813F8168857985280F93
:10433000391F611D711D2E833F836887798722E3B2
:104340002417150650F075B874B80E949D0814B86B
:1043500015B8888D8395888F07C0483E73E057074E
:1043600018F08A8D83958A8F88899989281719066C
:1043700060F03E8537B9C5B8C4B80E949D0814B82E
:1043800015B8898D8395898F07C0883E73E097079C
:1043900018F08B8D83958B8FD3945D2D5F3F49F003
:1043A0005F3731F45C2D550FC50E572D550F750E27
:1043B00076CF4090430150904401440C551C92012B
:1043C000E4E0240D351DEA95E1F729015701680164
:1043D0006E807F8088849984209125012830C1F4E3
:1043E0006C897D89812D912D655070408040904071
:1043F0009B01AC010E94ED389B01AC0160E779E7BD
:1044000086E190E00E942F39621A730A840A950AA5
:10441000A614B704C804D90428F46A187B088C08C9
:104420009D0803C0662477244301B20180E090E038
:104430009301A4010E94ED389501A6010E942F3935
:104440008EE393E07981870F911D0E94B03A682E28
:10445000C90160E170E00E940839260F371FC901C9
:104460006816190618F4861991090FC08C5E9F4FC3
:104470008615910540F48C899D89843981E19807DE
:1044800010F00E94CC0E812D912D6E96E2E10C94DD
:10449000393A109281001092800010926F001092B1
:1044A0008B0010928A0057E056BB5FEF5093850057
:1044B0005093840055E050937B0056EB50937A0064
:1044C00051E05093810058E25A95F1F7000045B948
:1044D00044B955E05A95F1F7000014B815B8109298
:1044E000810080917A0084FFFCCF80937A00089548
:1044F0008F929F92AF92BF92EF92FF920F931F9372
:10450000CF93DF9300D000D0CDB7DEB780918D017F
:1045100090918E01892B09F0B9C0E0918F01F0E0F4
:10452000E45BFE4F14911860E0919001F0E0E75BCE
:10453000FE4FF4900E947D1788E088B915B817B92E
:10454000F4B8809190010E94D7088C0120919201CB
:104550008CE0820F843008F099C0809183019091A3
:104560008401A0918501B09186013FE0E32EE20E27
:104570004AE0842E912CA12CB12CBC01CD016B5FA3
:104580007F4F8F4F9F4FA50194010E942F39DA0171
:10459000C901E39467E0E612F0CF293863E13607FA
:1045A0004105510508F072C02530310508F46EC090
:1045B000F5B8F4B8E12CF12CE216F30670F4298377
:1045C0003A834B835C830E94990882E0E80EF11CD9
:1045D0005C814B813A812981EFCF14B815B8A89539
:1045E00085E0809336018091900129833A834B8343
:1045F0005C830E94D70829813A814B815C8108172E
:10460000190720F47C01E01AF10A02C0E12CF12C18
:10461000A12CB12CA216B30670F429833A834B83E4
:104620005C830E9499086FEFA61AB60A5C814B81E1
:104630003A812981EFCF809190010E94D70827E32A
:1046400020933601A8950817190718F4801B910BC1
:1046500002C080E090E08E159F0588F49701281B2A
:10466000390B69F0A4EFB1E00E947339970140E083
:1046700050E00E942F3930938E0120938D010E94CB
:104680007D1788E087B988B914B815B80F900F90D6
:104690000F900F90DF91CF911F910F91FF90EF90AE
:1046A000BF90AF909F908F900895A5E0B0E0EBE5AC
:1046B000F3E20C941D3A88E392E09BD620EF2B8323
:1046C00054980E948E0814BC16BC109212011092CD
:1046D0001301109214011092150131E035BB309393
:1046E0006E001092800083E19AE790938B00809394
:1046F0008A00E1E0F0E0F0938900E09388001092F6
:1047000085001092840083B5816083BDF6E0F6BB1E
:10471000F0936F00789424E02093810012E31A82D2
:104720000E948708A8954F9902C031E03A8385B569
:10473000811127C015BC86B5809312010E948E049A
:104740000E94CC050E9493040E94CC050E94FB05A8
:1047500086E60E946C050E94FF056091120170912F
:104760001301809114019091150147E00E942C08DB
:10477000549880918100882339F08FE30E946C0562
:1047800003C0115069F6D6CF1092810010926F00CD
:1047900020911201309113014091140150911501A3
:1047A000DA01C9010197A109B109893D9146A10525
:1047B000B10508F0FCC0AAE0B0E00E948839DC0135
:1047C000CB010896A11DB11D23E0B695A79597953D
:1047D00087952A95D1F7BC01660F771F70937501F5
:1047E0006093740154980E948E0816BC10921201B6
:1047F00010921301109214011092150181E085BBF3
:1048000080936E00109277011092760194E09BBB2A
:1048100080916800846080936800789480916D0036
:10482000806180936D0019820E948708A8954F9936
:1048300002C0E1E0EA8380916D0084FF05C0F98148
:10484000FF5FF983FA3F81F715BC80916D008F7E81
:1048500080936D00809168008B7F8093680086B59F
:10486000809312010E948E0484E50E946C050E94D0
:10487000FF056091120170911301809114019091D4
:10488000150120917401309175013D832C8328EA34
:1048900031E640E050E00E949839EC81FD815F01F3
:1048A000C12CD12CE12CF12C00E010E00E94C13988
:1048B00049013A011B012C012C813D812038310531
:1048C00030F007E023E745EFB401C30116C084E6EA
:1048D000A82EB12CC12CD12CE12CF12C00E010E041
:1048E0009401C2010E94C139F22FE42F07E023E7AF
:1048F00047EF6F2F732F8E2F952F0E942E07398130
:104900003A3F21F48FE30E946C0551C09401A3014A
:10491000B101C2012C393E4C43405105610571057E
:104920008105910509F008F442C00E94930486E6CF
:104930000E946C050E94FF059401A301B101C20110
:10494000540163017101820121153A4C4A495B43CC
:10495000610571058105910589F080F020E030E066
:104960004AE85DE568E775E483E691E00E94C139B5
:10497000F22FE42F07E028E44AEF0FC020E030E8F0
:1049800046EC54EA6EE77DE883E090E00E94C1398E
:10499000F22FE42F07E028E44CEF6F2F732F8E2FB8
:1049A000952F0E942E078AE70E946C05549810925A
:1049B0006E0080ED97E00E947E092A81820F49F403
:1049C00080911E01833028F43B8131503B833111AB
:1049D00077CE2596E2E10C94393A1F920F920FB6EA
:1049E0000F9211248F939F93AF93BF9378948091EC
:1049F000120190911301A0911401B09115019F5FD4
:104A0000AF4FBF4F8093120190931301A0931401F5
:104A1000B0931501BF91AF919F918F910F900FBEF1
:104A20000F901F9018951F920F920FB60F9211249E
:104A30008F9386E085BD8F910F900FBE0F901F90D2
:104A400018951F920F920FB60F921124A8951092ED
:104A5000810015BC0F900FBE0F901F9018951F92EC
:104A60000F920FB60F9211242F933F938F939F9322
:104A70008091760190917701892B11F481E085BDB9
:104A800020917601309177018091740190917501A8
:104A90002817390730F015BC80916D008F7E809308
:104AA0006D00809176019091770101969093770146
:104AB000809376019F918F913F912F910F900FBE20
:104AC0000F901F9018958D3008F08D50811103C004
:104AD00082E492E03BC0813019F488E392E036C072
:104AE000823019F48FE092E031C0833019F484E011
:104AF00092E02CC0843019F488E990E027C085301A
:104B000019F48DE890E022C0863019F486E890E030
:104B10001DC0873019F483EF91E018C0883019F474
:104B200084EE91E013C0893019F480E392E00EC066
:104B30008A3019F48DEC91E009C08B3019F486E2CB
:104B400092E004C08C3021F48BE192E00E941B06BD
:104B50000C94CC0508950F93CF9388E990E049D445
:104B6000C0E01092250160E082E05FD480912501D1
:104B70008830C1F50E94890483E40E946C050E947C
:104B8000FF0560918301709184018091850190916E
:104B9000860103E026E4409192010E942E070E94C4
:104BA000CC0560918F0180919001FADA90938C018D
:104BB00080938B010E948E048AE591E00E941B067F
:104BC00080918B0190918C018A3F2FEF920730F4F6
:104BD00022E044E06EEF0E94170808C08FE30E94B5
:104BE0006C0504C00E94FB050E948E040E94CC0547
:104BF0008C2F0E94C01D88EE93E00E947E098111D7
:104C00000BC080911E01843038F48C2F0E94C71D88
:104C1000C82F8A3F08F4A5CFCF910F9108951F9315
:104C2000CF93DF9380E392E0E4D3C0E0D0E01AE0DA
:104C30000E94F7050E942E040E942E0484E491E055
:104C40000E941B0686E00E94D30863E09C01129F2D
:104C5000C001139F900D11240E9422080E94FB05A1
:104C60000E942E0484E491E00E941B0687E00E94CB
:104C7000D30863E09C01129FC001139F900D112483
:104C80000E9422088C2F0E94C01D88EE93E00E9493
:104C90007E0990911E01811102C0992361F0C0E04C
:104CA000963088F48F3510F0DF5F02C0882319F04A
:104CB000D53010F008C0D0E08C2F0E94C71DC82F3F
:104CC000803F08F4B5CFDF91CF911F910895A5E003
:104CD000B0E0EDE6F6E20C941D3A8FE092E089D365
:104CE00080E18093800010926F0081E090E09093CB
:104CF00089008093880010928B0010928A0083E0D4
:104D000086BB1092820088E08093810015B891E103
:104D100094B988B989E087B9229A80938100312CAF
:104D20001B82FAE02F2E21E02C83812C912C540140
:104D3000839431E13D83832D90E00A966EE170E02B
:104D40000E941C39162F062F4B81641789F00E9490
:104D500033048FE092E00E941B06712C701628F439
:104D60008EE20E946C057394F9CF0E94CC051B83E0
:104D70005D815231B8F0C701B601A50194010E94CE
:104D80002F396B017C018C81622D0E94FC38A92F88
:104D9000B0E0A50194010E948839C60ED71EE81E16
:104DA000F91E0CC08C81622D0E94FC38A92FB0E046
:104DB000A50194010E9488396B017C010E9489043D
:104DC0008C81821103C09D81923138F4ED811A8269
:104DD0001982E63140F082E507C021E030E03A83F5
:104DE00029838CE301C08EE30E946C050E94B80504
:104DF0004D81C701B6010E942C08C701B6017E5E35
:104E000085489F4FA7019601220F331F441F551F4E
:104E10000E942F39CA014F3F510539F030F08DE023
:104E20008093810080E094E01FC04034510530F051
:104E30008CE08093810080E091E016C048305105FD
:104E400030F08BE08093810080E490E00DC0892BEE
:104E500031F09AE09093810088E090E005C0E9E0AD
:104E6000E093810081E090E02C01612C712CCA015B
:104E7000B901A30192010E942F39215031093093C9
:104E80008900209388008091880090918900892B67
:104E900031F421E030E030938900209388000E94B3
:104EA000CC050E948E0486E60E946C050E94B8051F
:104EB000009188001091890060E079E08DE390E036
:104EC000A30192010E942F39A4E6B0E00E94883924
:104ED00098012F5F3F4F40E050E00E942F39290199
:104EE0003A01A4E6B0E0A70196010E948839A30127
:104EF0009201261B370B480B590BCA01B90105E279
:104F000028E44EEF0E942E078AE70E946C050E945B
:104F1000CC058CED95E00E947E09811105C0809141
:104F20001E0181114AC04AC0863960F0109281008A
:104F30001092800088E087B914B822982596E2E1A3
:104F40000C94393A8135A0F149815A81452BE9F019
:104F50005D8151505D83C501B4012AE030E040E03D
:104F600050E00E942F3949015A01C701B6010E9441
:104F70002F39CA01B9012AE030E040E050E00E9438
:104F80002F396C833AE0232E44C08D818631B8F5E9
:104F90008F5F8D83863111F425E1222EAAE0B0E0E7
:104FA000A50194010E9488394B015C011C8231C02B
:104FB0008B3018F09C819F5F9C83312C80911E0167
:104FC0008B3008F0B3CF80911D0187FD03C0EC81C9
:104FD0008E0F04C08F5F820DFC818F0F90E0622DD9
:104FE00070E06F5F7F4F0E941C398C83832D0E947D
:104FF000C71D382E2FEE281708F09DCE97CF8AE0D8
:10500000282E31E03C83812C912C5401839441E182
:105010004D83312C90CEA4E0B0E0E1E1F8E20C94B5
:10502000223A84E092E0E5D183E2809380001092FE
:105030006F008FEF90E090938B0080938A0083E065
:1050400086BB1092820015B881E184B988E088B9E6
:1050500089E087B9229A21E030E0309389002093DB
:1050600088008093810000E0712C92E310E024E638
:10507000C22ED12CE12CF12C88248A9433E0932E7B
:10508000A12CB12C9715E9F1943620F08CE9782EFB
:10509000790E01C0792E272D30E0AFEFB3E00E94EA
:1050A00073396E5C7F4F8F4F9F4FA70196010E940F
:1050B0002F3930938B0020938A0029833A834B83C6
:1050C0005C830E948904A8EEB3E029813A814B8178
:1050D0005C810E94883961507E4F8F4F9F4FA501A0
:1050E00094010E942F39DA01C90125E045E26FEFF2
:1050F0000E9417080E94CC05193218F08CE30E9418
:105100009F0880E496E00E947E09182F833860F0A3
:1051100088E087B9109281001092800014B822981C
:105120002496EDE00C943E3A80911E018B3080F77E
:1051300090911D0197FD9C59970D133310F0965FC8
:1051400003C0112361F09F5F00E0802F99830E94CC
:10515000C71D082F9981803F08F494CFD9CF8111C2
:10516000F3CFF3CFCF93DF938DEC91E042D18DE37A
:1051700093E00E94B03AC82FD0E081E80E94250455
:105180008C2F0E9425040E94890424E040E260E004
:105190008C2F90E00E9417080E94CC0580E496E0D6
:1051A0000E947E09811105C090911E01992321F072
:1051B00002C08238C0F4D0E090911E019B3098F478
:1051C00090911D0197FD9058C90F882329F08932CD
:1051D00010F0CF5F01C0C158CF778D2F0E94C71D3F
:1051E000D82F803F50F26C2F8DE393E00E94BD3AA0
:1051F000DF91CF9108950F931F93CF93DF9383EFA8
:1052000091E0F7D082E493E00E94B03AC82FD0E05A
:105210000E9489040C2F0C2E000C110BC7FF0BC031
:105220008DE20E946C0523E045E26FEF8827992705
:10523000801B910B04C023E045E26FEFC8010E9480
:1052400017080E94CC0580E496E00E947E09811137
:1052500005C090911E01992321F002C08238E8F424
:10526000D0E090911E019B30C0F490911D01C90FB8
:10527000882329F0893210F0CF5F01C0C150C135B9
:1052800014F0C55603C0CC3E0CF4CB598D2F0E94B0
:10529000C71DD82F803F08F4BBCF6C2F82E493E06A
:1052A0000E94BD3ADF91CF911F910F9108958130F7
:1052B00019F480E0FAC90895823011F408CD0895F8
:1052C000833011F4A8CE0895843011F444CC0895AD
:1052D000853019F40C94D11D0895863029F40E946C
:1052E0003A040C94131E0895873011F484CF089566
:1052F000883021F481E10C94FF0A0895893011F47B
:105300008ECC08958A3011F42DCF08958B3011F48E
:10531000CEC108958C3011F40C94A90A0895FF921F
:105320000F931F93CF93DF938DE492E062D0D0E090
:10533000C0E01BE01C0F00E0FF24F394F00E60E0DF
:105340008F2D0E94FF03023021F48EE30E946C0532
:1053500002C00E94B8051D3018F083EF810F01C014
:10536000812FB1DB0F2D1F5F063031F780E49FE105
:105370000E947E098111D0E090914001913009F4A2
:10538000D0E0823330F490917B01992371F088232F
:1053900061F0CC2341F18C2F8ADF10921E01109214
:1053A0001D018DE492E025D080E090911E019A309D
:1053B000D0F490911D01992319F097FD05C0D0E01C
:1053C000C90F81110CC00CC0935FC90F811106C0B9
:1053D000D1E0CD3008F4ADCFCD50ABCFD0E0CF5F32
:1053E000DF5FD238B0F380E0CDB7DEB7E5E00C94F4
:1053F000463AA2E0B0E0EFEFF9E20C942C3A898350
:105400009A830E943A0489819A810E941B0614E6BD
:1054100082E00E949F084F9902C01150C9F70E9474
:1054200089042296E3E00C94483AA4E0B0E0EBE172
:10543000FAE20C94243A182F062F262F30E0F901B7
:10544000E45BFE4FE491E860FE2EE82FF0E0E75BBE
:10545000FE4FA490F901E75BFE4FE49010928C019F
:1054600010928B0110927F011092800110928101A5
:105470001092820187EF809391010E947D1788E04E
:1054800088B9F7B8E4B8E5B8812F0E94D7087C0145
:10549000802F0E94D708E81AF90A14B810925D010B
:1054A00010925C0120E030E09CE2C92EDD24D39410
:1054B0004AE0942E54E6B52E80915C0190915D01F6
:1054C000843D904308F071C0A5B880915C01909133
:1054D0005D01892B89F0F601E21BF30B60915C0101
:1054E00070915D01929EC001939E900D11240E94C7
:1054F0000839E617F70750F4A4B80E94920814B8C8
:1055000080915C0190915D01019628C080915C01C1
:1055100090915D010B97C8F060915C0170915D0105
:10552000B29EC001B39E900D11240E9408396E17DF
:105530007F0758F4A4B80E94870814B880915C01D2
:1055400090915D018C599F4F09C0A4B80E948D08AD
:1055500014B880915C0190915D010A9690935D0171
:1055600080935C0115B80E949408A895812F0E9431
:10557000D7089C012E193F0980915C0190915D0133
:105580008B31964018F0253231057CF02D3281E0C8
:1055900038070CF491CF80915C0190915D010197E7
:1055A00069F4253185E038074CF088E087B988B97F
:1055B00014B815B82496EBE00C94403A40915C0185
:1055C00050915D01440F551F60E070E040938701EA
:1055D000509388016093890170938A01C90168E240
:1055E00070E00E941C39C901860F971F0E946F1B33
:1055F00020918701309188014091890150918A0161
:10560000DC010E9488396093870170938801809340
:10561000890190938A0160937F0170938001809348
:105620008101909382010E940D1820917F01309199
:105630008001409181015091820182E493E02983AD
:105640003A834B835C830E94B03AA8EEB3E0A81B78
:10565000B10987FDB39529813A814B815C810E9414
:10566000923920E137E240E050E00E942F39209348
:105670007F0130938001409381015093820188E043
:105680008093250120938301309384014093850109
:1056900050938601809191018093920110928E0126
:1056A00010928D0100938F01109390017ECFCF92C5
:1056B000DF92FF920F931F93CF93DF930E943A04E0
:1056C0008EE091E00E941B060E9489048AEC90E023
:1056D0000E941B0680E493E00E94B03A23E040E27F
:1056E0006EEF90E00E94170881E493E00E94B03AC8
:1056F00023E040E26EEF90E00E9417088FE393E012
:105700000E94B03A23E044E06EEF90E00E94170858
:105710000E948E0483EC90E00E941B0623E044E08C
:105720006FEF80913C0190913D010E9417080E940B
:1057300093048CEB90E00E941B0623E044E06FEFA3
:1057400080914301909144010E94170888E99AE3EF
:105750000E947E0980911E018B3008F0C2C08091AA
:105760001D0187FDABCF0E943A0488EB90E00E94B8
:105770001B0684E693E00E94B03A90E042970E94B4
:10578000610685E693E00E94B03A90E042970E945D
:10579000610681E693E00E94B03A90E023E046E49F
:1057A00064EF42970E9417080E94890483E00E94D8
:1057B000BB0580E693E00E94B03A90E042970E94D9
:1057C000610683E693E00E94B03A90E042970E941F
:1057D00061068FE593E00E94B03A90E023E046E452
:1057E00064EF42970E9417080E948E0486E290E0C0
:1057F0000E941B0686E693E00E94B83A0E944D067E
:105800000E9493048FE190E00E941B0688E693E0DB
:105810000E94B03A082E000C990B0E944D0660E0E1
:1058200087E00E94FF03C0E0FC2EFF0CFC0ED0E0DE
:10583000FA94CD1709F449C00F2D0D0F10E0000F99
:10584000111FC8018F5A9C4F0E94B83A6C01C801C1
:105850008D5B9C4F0E94B83A8C018091AD018730DE
:10586000A8F088E99AE30E947E0980911E018B309E
:10587000C0F590911D019E3F0CF420CF9E3F09F48E
:1058800072CF9F3F61F20E943A0403C080E00E9401
:10589000D20580EB90E00E941B068C2F0E94B5057C
:1058A0008AE30E946C058D2F0E94B50580E00E945E
:1058B000D20523E040E26EEFC6010E94170823E004
:1058C00046E462EFC8010E941708DF5FD33009F099
:1058D000B0CFCF5FC33009F0A7CF88E99AE30E9429
:1058E0007E09DF91CF911F910F91FF90DF90CF90B4
:1058F0000895A1E8B0E0EFE7FCE20C941E3A509066
:105900009501D0909B01F0909C01852D90E09C0129
:10591000275B3E4F5901352D3064432E68E0362E0B
:105920008F2C912CF401E75BFE4F8491F501C4901C
:10593000C82A2491220F282B40927C006D2C712CB8
:10594000F301E45BFE4FE491E860E7B938B815B8BD
:1059500014B8CF57DF4F2883C158D0400E94930816
:10596000CF57DF4F2881C158D040E22E022F40E4AC
:10597000BE016F5F7F4F80E090E17ED0FE017596A3
:1059800080E09AE0219131913695279536952795BB
:10599000122F821728F49F5F822F903499F701C04D
:1059A000182F812F869586958695F12FF81B8F2FBE
:1059B000903409F453C0FE013196E90FF11DE90F4F
:1059C000F11D208131813695279536952795281729
:1059D00008F042C082E080932501D0925801509295
:1059E0005601F0925701F401E60DF71DE35AFE4F00
:1059F00010826D2D8F2D0E94721580915801E091BB
:105A00005701F0E0E80FF11DEE0FFF1FEE0FFF1F33
:105A1000E655FE4F80809180A280B3801352212FE3
:105A200030E0A4E6B0E00E9473392B013C019A2DCE
:105A3000892D782D6627A50194012057354E4F4FAB
:105A40005F4F0E942F39C301B2010E942F3930935A
:105A50005501209354010AC09F5FAACF9F2DFD2CB2
:105A600080919B01D81202C0D92E5ACFCF57DF4F59
:105A7000E1E10C943A3A0895E62FF72F903009F4BB
:105A80009395E5B8C4B8B6EFB0937A00A5E0A093BB
:105A90007B00A8E0A093810010928000AFEFA0935C
:105AA0008500A0938400A6E0A093360010928B009E
:105AB00010928A00B3E0AFE3A91B51E0392F3330D5
:105AC0002AF0A05CBC4F53953350F9CFB0938900B6
:105AD000A0938800A0917A00A4FFFCCFB6EBB0930E
